:100000000C9434000C9472060C942D060C94510040
:100010000C9451000C9451000C9451000C9451001C
:100020000C9451000C9451000C9451000C943A0320
:100030000C947C030C9451000C94F4060C94510025
:100040000C9451000C9451000C940F080C94D70799
:100050000C9451000C9435070C9451000C945100F1
:100060000C9451000C94510011241FBECFEFD8E026
:10007000DEBFCDBF12E0A0E0B1E0E6E8F3E102C0F0
:1000800005900D92A43CB107D9F724E0A4ECB2E0AE
:1000900001C01D92AC34B207E1F70E945B010C94E1
:1000A000C1090C94000061E08BE992E00E94C30753
:1000B00008958F929F92AF92BF92CF92DF92EF926C
:1000C000FF92CF93DF936B017C01EA01672B682BD2
:1000D000692B61F43BC0C501B4012AE030E040E087
:1000E00050E00E948B0949015A0109C00F2E812C52
:1000F000FAEC9F2EFAE9AF2EFBE3BF2EF02DC701DD
:10010000B601A50194010E948B09232B242B252BDA
:1001100011F316C0C701B601A50194010E948B0915
:10012000205D2993C62ED72EE82EF92EC501B401E5
:100130002AE030E040E050E00E948B0949015A017A
:1001400081149104A104B10429F702C080E38993CA
:100150001882DF91CF91FF90EF90DF90CF90BF900A
:10016000AF909F908F900895CF93DF93FC01EB01A8
:1001700099232CF4F195E195F1098DE2899330975B
:1001800041F422C0C9016AE070E00E9477099B0136
:1001900002C020E137E2CF01B9010E947709672B45
:1001A00089F30EC0CF01B9010E947709605D6993A0
:1001B000E82FF92FC9016AE070E00E9477099B01DE
:1001C000121613067CF302C080E389931882DF9134
:1001D000CF910895CF93DF93CDB7DEB76F970FB66A
:1001E000F894DEBF0FBECDBF0E949E078F3D20F06A
:1001F00081E08093C40206C00E949E07883210F4FA
:100200001092C4028091C402882309F44BC00E945A
:10021000B706AE014F5F5F4F0E9459006AE0CE0102
:1002200001960E94C3078BE30E94A9070E94A303C3
:10023000BE01675E7F4F0E94B40067E0CE01499621
:100240000E94C3078BE30E94A9070E949E03BE0180
:100250006E5E7F4F0E94B40067E0CE0142960E941E
:10026000C3078BE30E94A9070E949903BE01655F43
:100270007F4F0E94B40067E0CE010B960E94C30737
:100280008BE30E94A9070E946107BE01675E7F4F52
:100290000E94B40067E0CE0149960E94C3078AE03D
:1002A0000E94A9076F960FB6F894DEBF0FBECDBFB0
:1002B000DF91CF9108950E9484070E94EA060E9470
:1002C0004E020E940A060E944B078AB180628AB9D8
:1002D00078942FEF80E792E0215080409040E1F742
:1002E00000C000000E94530080E090E00E94B8012E
:1002F0000E94EC0288E59BE10E9491028BB1806232
:100300008BB960E070E08AE494E00E949605C0E05A
:1003100021C02FEF87EA91E6215080409040E1F71D
:1003200000C0000060E070E088E494E00E94960560
:1003300020914A0430914B048091480490914904E3
:100340002817390711F4CF5F05C090934B048093B1
:100350004A04C0E0C330E8F20E94AE058BB18F7D45
:100360008BB988EA9BE10E9491020E94D906FDCFD9
:10037000BC01009761F485B18770886385B981E01D
:10038000809300018093010160E07AEF66C09923B9
:1003900084F48FEF8093C602719561957109809105
:1003A000C502813011F4809301018FEF8093C50263
:1003B0000DC081E08093C6028091C5028F3F19F481
:1003C00081E08093010181E08093C502653F81E077
:1003D00078075CF088E199E70E94770980E18093D3
:1003E000000185B1877085B938C06B3F710564F035
:1003F00088E99AE30E94770988E08093000185B13B
:100400008770806285B929C06E37710564F08CE40D
:100410009DE10E94770984E08093000185B1877097
:10042000806185B91AC06034710564F086EA9EE087
:100430000E94770982E08093000185B18770806314
:1004400085B90BC083E597E00E94770981E080932E
:10045000000185B18770886385B980910101882387
:1004600021F0645C7F4F1092010120918400309153
:100470008500CB0101978217930758F47093890088
:1004800060938800625071097093850060938400C6
:1004900008957093890060938800089584B18E63F5
:1004A00084B98AB180688AB9109280008DE0809307
:1004B000810086E086BB20E130E030938B00209302
:1004C0008A0020E737E130938900209388008093E9
:1004D0006F0008958091C7029091C8020895882303
:1004E0003CF485B1826085B98FEF8093C60206C067
:1004F00085B18D7F85B981E08093C60285B1846026
:1005000085B98FE39FE10197F1F700C0000085B145
:100510008B7F85B98FE39FE10197F1F700C0000061
:100520000895CF93DF93EC0185B1877085B980E1A1
:10053000809300012FEF81EE94E0215080409040A5
:10054000E1F700C00000CE0101978F329543E8F536
:100550008091C7029091C8028C179D07A0F02EC011
:1005600081E00E946F023091C602209100018091CB
:10057000C7029091C8023202800D911D1124909300
:10058000C8028093C7028091C7029091C8028C175D
:100590009D0730F31AC08FEF0E946F023091C602A0
:1005A000209100018091C7029091C8023202800D13
:1005B000911D11249093C8028093C7028091C702B5
:1005C0009091C802C817D90730F380E090E00E94EC
:1005D000B801DF91CF9108958AB18F7E8AB98BB12E
:1005E00080618BB980E090E00E94B8012FEF89E62E
:1005F00098E1215080409040E1F700C0000085B1B3
:10060000877085B980E18093000103C08FEF0E945D
:100610006F024C99FBCF1092C8021092C70282E37E
:1006200090E00E9491022FEF89E698E121508040EE
:100630009040E1F700C000008BB180628BB985B1BA
:100640008770886385B981E08093000103C08FEFD4
:100650000E946F024C99FBCF85B1877085B980E10C
:10066000809300018BB18F7D8BB91092C8021092DC
:10067000C70208951F920F920FB60F9211242F9365
:100680003F938F939F933091C602209100018091F8
:10069000C7029091C8023202800D911D112480334F
:1006A000954308F53091C602209100018091C70260
:1006B0009091C8023202800D911D1124892B99F06E
:1006C00085B1846085B93091C60220910001809186
:1006D000C7029091C8023202800D911D112490939F
:1006E000C8028093C7029F918F913F912F910F90E5
:1006F0000FBE0F901F9018951F920F920FB60F927A
:1007000011248F9385B18B7F85B98091C60281308A
:1007100019F485B18D7F85B98091C6028F3F19F498
:1007200085B1826085B98F910F900FBE0F901F9099
:1007300018958091DF029091E00208958091E10286
:100740009091E20208958091DB029091DC0208957D
:1007500067E070E00E9477098091E1029091E202E7
:10076000680F791F7093E2026093E1026131774272
:1007700034F080E197E29093E2028093E10280916D
:10078000E1029091E202803F984D34F480EF98EDC1
:100790009093E2028093E10208950F931F93CF9309
:1007A000DF93EC010E94B7060091C9021091CA02C2
:1007B0002091CB023091CC02045C1F4F2F4F3F4F52
:1007C000061717072807390708F065C08091D1027E
:1007D0009091D2028C179D0759F58091D302909188
:1007E000D4029E01281B390B44E6429FC001439F5F
:1007F000900D11249093E0028093DF020E94B706CF
:100800000091CD021091CE022091CF023091D00202
:10081000601B710B7093DA026093D9028091DF0242
:100820009091E0020E9477097093E0026093DF02EA
:100830008091D1029091D202C817D90761F19E012F
:10084000281B390B3093E0022093DF024091D50240
:100850005091D6026091D7027091D802E9ECF2E093
:100860000081118122813381DA01A01BB10BB09389
:10087000DA02A093D902A1EDB2E013969C938E9375
:1008800012970483158326833783CD93DC934083AB
:10089000518362837383DF91CF911F910F910895EC
:1008A000CF92DF92EF92FF9265ED72E08BED92E0D6
:1008B0000E9496058091DB029091DC0260E273E079
:1008C0000E947709992374F591958195910960E9C2
:1008D00071E00E947709282F392F8093DB029093D3
:1008E000DC02293C310564F0E8ECF0E0C901BF010D
:1008F0000E947709E81BF90BF093DC02E093DB021E
:10090000E091DB02F091DC02EE0FFF1FEE5FFE4F85
:10091000808191819195819591099093DC028093DA
:10092000DB0227C060E971E00E947709282F392F88
:100930008093DB029093DC02293C310564F0E8EC03
:10094000F0E0C901BF010E947709E81BF90BF093A1
:10095000DC02E093DB02E091DB02F091DC02EE0FBF
:10096000FF1FEE5FFE4F808191819093DC028093A8
:10097000DB020E9461076091DB027091DC02072EAE
:10098000000C880B990B0E947E0820E030E040EDBF
:1009900050E40E94E2080E9446086B017C017093BB
:1009A000DC026093DB020E946A029601281B390B6D
:1009B000C9010E94CD038091DB029091DC020E946C
:1009C000A8032091DB023091DC0244E1429FC00188
:1009D000439F900D11246AE070E00E9477097093A4
:1009E000DE026093DD02693E734034F088EE93E0EE
:1009F0009093DE028093DD028091DD029091DE0211
:100A000088319C4F34F488E19CEF9093DE02809310
:100A1000DD028091DD029091DE020E94B801FF901C
:100A2000EF90DF90CF9008958091E802882361F0E5
:100A30008091EA029091EB0201979093EB028093F0
:100A4000EA0282E08093E3028091E902882361F068
:100A50008091EA029091EB0201969093EB028093D1
:100A6000EA0281E08093E30208958091E8028823FE
:100A700061F08091EA029091EB0201969093EB0273
:100A80008093EA0283E08093E3028091E90281117E
:100A90000BC08091EA029091EB0201979093EB02D8
:100AA0008093EA021092E30208958091E802811196
:100AB0000BC08091EA029091EB0201969093EB02B9
:100AC0008093EA021092E3028091E902882361F0A8
:100AD0008091EA029091EB0201979093EB02809350
:100AE000EA0283E08093E30208958091E802811195
:100AF0000CC08091EA029091EB0201979093EB0277
:100B00008093EA0281E08093E3028091E9028111FF
:100B10000CC08091EA029091EB0201969093EB0257
:100B20008093EA0282E08093E30208952091EA0232
:100B30003091EB02FC01318320836115710569F06E
:100B40008091E4029091E502A091E602B091E70263
:100B5000FB0180839183A283B38308959091E8027F
:100B60008091E902892319F083E08093E3022091C8
:100B7000E80281E090E0222311F080E090E02091F3
:100B8000E90230E082239323892B19F082E08093DD
:100B9000E3022091E8023091E90281E090E0332302
:100BA00011F080E090E030E082239323892B19F04C
:100BB00081E08093E3028091E8022091E90291E0D4
:100BC000811190E081E0211180E0892311F01092E1
:100BD000E3022FEF80E792E0215080409040E1F760
:100BE00000C0000089B188708093E90289B18470E7
:100BF0008093E802E091E302F0E0EE0FFF1FEE5673
:100C0000FD4F0190F081E02D09951092EB021092BA
:100C1000EA0208958AB18B7F8AB98BB184608BB95F
:100C20008AB1877F8AB98BB188608BB98DB38160B7
:100C30008DBBE9E6F0E080818160808380818D7FDB
:100C400080838DB382608DBB80818460808380814E
:100C5000877F80830E94AE0508951F920F920FB682
:100C60000F9211242F933F934F935F936F937F9332
:100C70008F939F93AF93BF93EF93FF9389B1887046
:100C80008093E90289B184708093E8028091EC023C
:100C90009091ED02A091EE02B091EF028093E402F8
:100CA0009093E502A093E602B093E702E091E3029D
:100CB000F0E0EE0FFF1FEE56FD4F0190F081E02DAA
:100CC0000995FF91EF91BF91AF919F918F917F9186
:100CD0006F915F914F913F912F910F900FBE0F90A9
:100CE0001F9018951F920F920FB60F9211242F93F9
:100CF0003F934F935F936F937F938F939F93AF93A4
:100D0000BF93EF93FF9389B188708093E90289B113
:100D100084708093E8028091EC029091ED02A091A2
:100D2000EE02B091EF028093E4029093E502A0936B
:100D3000E602B093E702E091E302F0E0EE0FFF1F5E
:100D4000EE56FD4F0190F081E02D0995FF91EF9156
:100D5000BF91AF919F918F917F916F915F914F91D3
:100D60003F912F910F900FBE0F901F90189560919B
:100D7000EC027091ED028091EE029091EF020895E5
:100D800080919A028F5F80939A02833029F481E0E8
:100D90008093F00210929A028091F3028F5F809309
:100DA000F302833029F481E08093F1021092F30280
:100DB00008958091F102882321F00E94EA001092A8
:100DC000F1028091F002882321F00E9450041092D9
:100DD000F002089589EF87BD82E484BD83E085BD7C
:100DE00082E080936E0008951F920F920FB60F92CB
:100DF00011242F933F934F935F936F937F938F9320
:100E00009F93AF93BF93EF93FF930E94C00680918F
:100E1000F20291E0980F9093F2028A30A8F4809148
:100E2000EC029091ED02A091EE02B091EF020196DA
:100E3000A11DB11D8093EC029093ED02A093EE02F0
:100E4000B093EF021092F202FF91EF91BF91AF9138
:100E50009F918F917F916F915F914F913F912F91D2
:100E60000F900FBE0F901F9018951F920F920FB604
:100E70000F9211248F939F93809178009091790025
:100E80009093F7028093F6029F918F910F900FBE7F
:100E90000F901F90189587B18E7F87B988B18E7F8C
:100EA00088B981E080937E00EAE7F0E08FEA8083F2
:100EB000ACE7B0E08C9180648C9380818064808307
:100EC00008958091F4029091F502AC014E5C5F4F61
:100ED0002091F6023091F7024217530740F0C29773
:100EE0002091F6023091F7022817390740F48091DB
:100EF000F6029091F7029093F5028093F4028091AC
:100F0000F4029091F502089586E08093C20088E093
:100F10008093C400E1ECF0E0808180618083808177
:100F20008068808380818860808380818062808304
:100F3000E0ECF0E0808180628083089590915E0310
:100F400080915F03981718F0891B8A510895891BB7
:100F50000895482F20915E0330E0C901019666EEA6
:100F600070E00E94770990915F03981759F0F9019A
:100F7000E05AFC4F408380935E03E1ECF0E0808117
:100F80008062808308951F93CF93DF93EC01162F27
:100F90000E949E07181720F006C00E94A9072196FC
:100FA00088818111FACFDF91CF911F9108951F920F
:100FB0000F920FB60F9211245F936F937F938F93CD
:100FC0009F93AF93BF93EF93FF93E0915F03809163
:100FD0005E03E81789F0F0E0E05AFC4F80818093CF
:100FE000C60080915F0390E0019666EE70E00E947B
:100FF000770980935F0305C0E1ECF0E080818F7D8D
:101000008083FF91EF91BF91AF919F918F917F91DD
:101010006F915F910F900FBE0F901F9018951F92C8
:101020000F920FB60F9211242F933F934F935F931C
:101030006F937F938F939F93AF93BF93EF93FF93A0
:101040002091F80230E0C901019664E670E00E9448
:1010500077094091C6009091F902981731F0F90193
:10106000E650FD4F40838093F802FF91EF91BF91CE
:10107000AF919F918F917F916F915F914F913F9130
:101080002F910F900FBE0F901F9018950E944D0842
:101090006894B1110C94DC0808950E94C10888F08E
:1010A0009F5798F0B92F9927B751B0F0E1F0660F2C
:1010B000771F881F991F1AF0BA95C9F714C0B1306D
:1010C00091F00E94DB08B1E008950C94DB08672FD3
:1010D000782F8827B85F39F0B93FCCF3869577959C
:1010E0006795B395D9F73EF4909580957095619585
:1010F0007F4F8F4F9F4F0895E89409C097FB3EF4B0
:1011000090958095709561957F4F8F4F9F4F992354
:10111000A9F0F92F96E9BB279395F69587957795D2
:101120006795B795F111F8CFFAF4BB0F11F460FF92
:101130001BC06F5F7F4F8F4F9F4F16C0882311F0EA
:1011400096E911C0772321F09EE8872F762F05C0FE
:10115000662371F096E8862F70E060E02AF09A9599
:10116000660F771F881FDAF7880F9695879597F98E
:10117000089557FD9058440F551F59F05F3F71F087
:101180004795880F97FB991F61F09F3F79F08795EE
:101190000895121613061406551FF2CF4695F1DF77
:1011A00008C0161617061806991FF1CF8695710507
:1011B000610508940895E894BB2766277727CB013B
:1011C00097F908950E94F5080C9466090E94580941
:1011D00038F00E945F0920F0952311F00C944F091C
:1011E0000C94550911240C94DC080E94B90870F382
:1011F000959FC1F3950F50E0551F629FF001729FBC
:10120000BB27F00DB11D639FAA27F00DB11DAA1FCA
:10121000649F6627B00DA11D661F829F2227B00D17
:10122000A11D621F739FB00DA11D621F839FA00DA2
:10123000611D221F749F3327A00D611D231F849FF2
:10124000600D211D822F762F6A2F11249F57504049
:101250009AF0F1F088234AF0EE0FFF1FBB1F661FC4
:10126000771F881F91505040A9F79E3F510580F08D
:101270000C944F090C94DC085F3FE4F3983ED4F3E0
:10128000869577956795B795F795E7959F5FC1F731
:10129000FE2B880F911D9695879597F9089597F9DC
:1012A0009F6780E870E060E008959FEF80EC08950C
:1012B00000240A9416161706180609060895002435
:1012C0000A9412161306140605060895092E0394AF
:1012D000000C11F4882352F0BB0F40F4BF2B11F423
:1012E00060FF04C06F5F7F4F8F4F9F4F089597FB44
:1012F000072E16F4009407D077FD09D00E94AD099F
:1013000007FC05D03EF4909581959F4F0895709508
:1013100061957F4F0895A1E21A2EAA1BBB1BFD0108
:101320000DC0AA1FBB1FEE1FFF1FA217B307E407C4
:10133000F50720F0A21BB30BE40BF50B661F771F1C
:10134000881F991F1A9469F76095709580959095FC
:101350009B01AC01BD01CF010895AA1BBB1B51E14C
:1013600007C0AA1FBB1FA617B70710F0A61BB70B15
:10137000881F991F5A95A9F780959095BC01CD01BA
:061380000895F894FFCF70
:101386000101000007000F0017001F0027002F00B3
:1013960036003E0046004E0056005E0065006D00B9
:1013A60075007D0085008C0094009C00A400AB00B5
:1013B600B300BB00C300CA00D200DA00E100E900B6
:1013C600F100F800000107010F0116011E012601B8
:1013D6002D0135013C0143014B0152015A016101C6
:1013E6006801700177017E0185018D0194019B01E1
:1013F600A201A901B001B701BE01C501CC01D3010B
:10140600DA01E101E801EF01F601FD0103020A023A
:10141600110217021E0225022B02320238023F0277
:1014260045024B02520258025E0264026B027102CE
:1014360077027D02830289028F0295029B02A10236
:10144600A602AC02B202B702BD02C302C802CE02B5
:10145600D302D802DE02E302E802EE02F302F80249
:10146600FD02020307030C03110316031A031F03ED
:10147600240329032D03320336033B033F034303AF
:1014860048034C035003540358035C03600364038E
:1014960068036C037003730377037B037E03820385
:1014A600850388038C038F039203950398039B039C
:1014B6009E03A103A403A703AA03AC03AF03B203CD
:1014C600B403B703B903BB03BE03C003C203C4031B
:1014D600C603C803CA03CC03CE03CF03D103D30389
:1014E600D403D603D703D903DA03DB03DC03DE0315
:1014F600DF03E003E103E103E203E303E403E403C0
:10150600E503E603E603E603E703E703E703E7038A
:10151600E7031405350555057505017469656D7094
:101526006F3B6572726F723B696E74656772616C50
:101536003B64657269766164613B736574506F697B
:041546006E740A00B5
:00000001FF
