S00E00005072756562612E73726563B7
S11300000C9434000C9405040C94CE030C9451000D
S11300100C9451000C9451000C9451000C949202D5
S11300200C9451000C9451000C9451000C94510008
S11300300C9451000C9451000C9451000C945100F8
S11300400C9451000C9451000C94D1040C9497041A
S11300500C9451000C9451000C9451000C945100D8
S11300600C9451000C94510011241FBECFEFD8E022
S1130070DEBFCDBF11E0A0E0B1E0E4E2FBE002C0EE
S113008005900D92A630B107D9F723E0A6E0B1E0C0
S113009001C01D92AE32B207E1F70E9487000C94B2
S11300A090050C9400000F931F93CF93DF938C0162
S11300B099234CF41195019511098DE20E9469046C
S11300C0C0E1D7E21AC08BE20E946904F9CFC801EB
S11300D0BE010E940505462F8C019E01ADECBCECCF
S11300E00E946E05EC01D695C795D695C795D69511
S11300F0C79580E3840F0E946904209741F780E04C
S11301000E946904DF91CF911F910F9108950E947D
S11301103C0484B1826084B985B1826085B92FEFD3
S113012089E698E1215080409040E1F700C000004A
S113013085B18D7F85B92FEF89E698E12150804004
S11301409040E1F700C000000E94860178940E946C
S11301503501EC0180E091E00E948404CE010E940C
S113016053002FEF89E698E1215080409040E1F759
S113017000C00000C0E0D0E00E943A010E943501B6
S1130180C817D90709F0EC011816190624F485B12B
S11301908D7F85B9F1CF85B1826085B9EDCF8F921E
S11301A09F92AF92BF92CF92DF92EF92FF92CF9342
S11301B04B015C010F2EC12CFAECDF2EFAE9EF2E75
S11301C0FBE3FF2EF02D17C0C501B401A701960172
S11301D00E942D05C22F4B015C01C701B6012AE024
S11301E030E040E050E00E942D0569017A0180E38F
S11301F08C0F0E946904C114D104E104F10421F7B5
S113020080E00E946904CF91FF90EF90DF90CF903F
S1130210BF90AF909F908F9008950F931F93CF93AB
S1130220DF938C01C0E1D7E216C0C801BE010E9471
S11302300505462F8C019E01ADECBCEC0E946E05B9
S1130240EC01D695C795D695C795D695C79580E305
S1130250840F0E946904209741F780E00E9469049A
S1130260DF91CF911F910F91089580912A01909170
S11302702B01089580911701109217010895909110
S1130280190180911B01892319F083E080930601F1
S11302902091190181E090E0222311F080E090E0A8
S11302A020911B0130E082239323892B19F082E0F3
S11302B0809306012091190130911B0181E090E0A7
S11302C0332311F080E090E030E082239323892BE4
S11302D019F081E0809306018091190120911B019E
S11302E091E0811190E081E0211180E0892311F0F7
S11302F010920601089583E18093B30082E0809315
S1130300B0008093B1008093700008958AB18B7F10
S11303108AB98BB184608BB98AB1877F8AB98BB172
S113032088608BB90E947B018DB381608DBBE9E647
S1130330F0E080818160808380818D7F80838DB3B4
S113034082608DBB8081846080838081877F80838D
S11303500E943F0108958091130190911401A0918E
S11303601501B091160140910B0150910C0160915F
S11303700D0170910E01841B950BA60BB70B809396
S1130380070190930801A0930901B0930A01809199
S113039028019091290199230CF401969C0135952B
S11303A027958091070190910801A0910901B091CE
S11303B00A01B695A79597958795820F931F9093F9
S11303C0290180932801A0912001B091210120EA04
S11303D036E841E050E00E947D05209128013091EB
S11303E02901032E000C440B550B0E944F0530933A
S11303F02301209322010895809113019091140107
S1130400A0911501B091160140910B0150910C017E
S113041060910D0170910E01841B950BA60BB70B17
S11304208093070190930801A0930901B0930A01F6
S1130430809128019091290199230CF401969C0143
S1130440359527958091070190910801A0910901A4
S1130450B0910A01B695A79597958795820F931F3A
S1130460909329018093280180912A0190912B0176
S11304702091260130912701821B930B9093210137
S113048080932001A0912001B091210120EA36E857
S113049041E050E00E947D0520912801309129011E
S11304A0032E000C440B550B0E944F05309323017F
S11304B02093220108950E944E04849790F184E5CC
S11304C00E946904609113017091140180911501D7
S11304D0909116010E94CF0081E40E9469048091EA
S11304E02A0190912B010E94530086E50E94690421
S11304F080912201909123010E94530084E60E947E
S113050069048091070190910801A0910901B091BB
S11305100A010E940D018AE00E94690480E00E94A1
S1130520690408951F920F920FB60F9211242F930E
S11305303F934F935F936F937F938F939F93AF9367
S1130540BF93EF93FF9380910F0190911001A091BD
S11305501101B09112010196A11DB11D80930F01EB
S113056090931001A0931101B093120180911E0188
S113057090911F019C012F5F3F4F30931F012093E7
S11305801E01853F9140C4F010921F0110921E017C
S113059080910F0190911001A0911101B09112016D
S11305A08093130190931401A0931501B093160145
S11305B00E94AB010E945B02FF91EF91BF91AF914A
S11305C09F918F917F916F915F914F913F912F9167
S11305D00F900FBE0F901F9018950E94FC0110926F
S11305E01F0110921E018091130190911401A0919A
S11305F01501B091160180930B0190930C01A09307
S11306000D01B0930E0120912A0130912B018091AC
S11306102401909125012817390731F00E944E04D6
S1130620849710F00E945B02809120019091210137
S113063090931D0180931C0180912A0190912B01BC
S113064090932701809326010895809106018130BB
S113065051F138F0823009F446C0833009F463C0A4
S113066082C080911901882361F080912A019091C0
S11306702B01019790932B0180932A0182E08093B0
S1130680060180911B01882309F46DC080912A0121
S113069090912B01019690932B0180932A0181E084
S11306A08093060160C080911901882361F08091D4
S11306B02A0190912B01019690932B0180932A019A
S11306C083E08093060180911B0181114CC08091CD
S11306D02A0190912B01019790932B0180932A0179
S11306E01092060140C08091190181110BC08091C4
S11306F02A0190912B01019690932B0180932A015A
S11307001092060180911B01882369F180912A01CE
S113071090912B01019790932B0180932A0183E000
S11307208093060120C08091190181110CC0809131
S11307302A0190912B01019790932B0180932A0118
S113074081E08093060180911B0181110CC080918E
S11307502A0190912B01019690932B0180932A01F9
S113076082E08093060180910F0190911001A09185
S11307701101B09112018093130190931401A0937D
S11307801501B09316010E94ED0280912A01909107
S11307902B01909325018093240108951F920F92B9
S11307A00FB60F9211242F933F934F935F936F9340
S11307B07F938F939F93AF93BF93EF93FF9389B1ED
S11307C0887080931A0189B1847080931801809194
S11307D01A0180931B0180911801809319010E94D2
S11307E0250381E080931701FF91EF91BF91AF91B1
S11307F09F918F917F916F915F914F913F912F9135
S11308000F900FBE0F901F9018951F920F920FB666
S11308100F9211242F933F934F935F936F937F9382
S11308208F939F93AF93BF93EF93FF9389B1887096
S113083080931A0189B184708093180180911A0100
S113084080931B0180911801809319010E94250354
S113085081E080931701FF91EF91BF91AF919F9138
S11308608F917F916F915F914F913F912F910F9055
S11308700FBE0F901F90189586E08093C20083E30B
S11308808093C400E1ECF0E080818061808380810A
S113089080688083808188608083089590912D0191
S11308A080912C01981760F020912D0180912C01EA
S11308B030E0281B31098EEF90E0821B930B0895E2
S11308C080912C0120912D0190E0821B91090197C8
S11308D00895282F80912D0190E001966FEF70E02C
S11308E00E94190590912C01981769F0E0912D014F
S11308F0F0E0E05DFE4F208380932D01E1ECF0E019
S113090080818062808308950F931F93CF938C011D
S1130910C0E003C00E946904CF5FF801EC0FF11D31
S113092080818111F7CFCF911F910F9108951F926C
S11309300F920FB60F9211245F936F937F938F934F
S11309409F93AF93BF93EF93FF9390912D01809169
S11309502C01981799F0E0912C01F0E0E05DFE4F36
S113096080818093C60080912C0190E001966FEF06
S113097070E00E94190580932C0105C0E1ECF0E0C1
S113098080818F7D8083FF91EF91BF91AF919F9183
S11309908F917F916F915F910F900FBE0F901F9079
S11309A018951F920F920FB60F9211242F935F93F5
S11309B06F937F938F939F93AF93BF93EF93FF9323
S11309C080912F0190E001966FEF70E00E9419056D
S11309D02091C60090912E01981741F0E0912F01CB
S11309E0F0E0E15DFD4F208380932F01FF91EF91B3
S11309F0BF91AF919F918F917F916F915F912F9153
S1130A000F900FBE0F901F901895AA1BBB1B51E1AE
S1130A1007C0AA1FBB1FA617B70710F0A61BB70B6A
S1130A20881F991F5A95A9F780959095BC01CD010F
S1130A30089597FB072E16F4009407D077FD09D08C
S1130A400E94050507FC05D03EF4909581959F4FC3
S1130A500895709561957F4F0895A1E21A2EAA1BFF
S1130A60BB1BFD010DC0AA1FBB1FEE1FFF1FA2175A
S1130A70B307E407F50720F0A21BB30BE40BF50B57
S1130A80661F771F881F991F1A9469F760957095E0
S1130A90809590959B01AC01BD01CF010895052E71
S1130AA097FB1EF400940E94660557FD07D00E9430
S1130AB02D0507FC03D04EF40C9466055095409523
S1130AC0309521953F4F4F4F5F4F089590958095F6
S1130AD0709561957F4F8F4F9F4F0895A29FB001EE
S1130AE0B39FC001A39F700D811D1124911DB29F5E
S1130AF0700D811D1124911D0895B7FF0C94850577
S1130B000E948505821B930B08950E946E05A59F84
S1130B10900DB49F900DA49F800D911D11240895F4
S1070B20F894FFCF73
S1090B24486F6C61000043
S9030000FC
