S0110000477275614D656A6F722E7372656387
S11300000C9434000C94350A0C94F0090C945100AF
S11300100C9451000C9451000C9451000C94510018
S11300200C9451000C9451000C9451000C94E9046C
S11300300C942B050C9451000C94DF0A0C94510081
S11300400C9451000C9451000C947D0C0C94160CDF
S11300500C9451000C94200B0C9451000C945100FE
S11300600C9451000C94510011241FBECFEFD8E022
S1130070DEBFCDBF12E0A0E0B1E0E4E9FEE102C0E2
S113008005900D92AC3DB107D9F724E0ACEDB2E098
S113009001C01D92AF3BB207E1F70E9402030C942A
S11300A0480F0C9400008AB18F778AB98BB18068AD
S11300B08BB984B18E7F84B985B1816085B9089587
S11300C04F9B10C01092E0028091E1028F5F8093F9
S11300D0E1028031E0F081E08093DE0284E68093E7
S11300E0E10215C01092E1028091E0028F5F8093DB
S11300F0E002803128F01092DE0284E68093E00270
S11301008091E0028D3019F481E08093DC0218992B
S11301100BC08091DF028F5F8093DF028B3030F061
S113012081E08093DD0208951092DF02089561E07A
S11301308AEA92E00E94020C08958F929F92AF92F5
S1130140BF92CF92DF92EF92FF92CF93DF936B0136
S11301507C01EA01672B682B692B61F43BC0C50164
S1130160B4012AE030E040E050E00E94120F49015F
S11301705A0109C00F2E812CFAEC9F2EFAE9AF2EFA
S1130180FBE3BF2EF02DC701B601A50194010E9427
S1130190120F232B242B252B11F316C0C701B601F4
S11301A0A50194010E94120F205D2993C62ED72E1B
S11301B0E82EF92EC501B4012AE030E040E050E019
S11301C00E94120F49015A0181149104A104B1043F
S11301D029F702C080E389931882DF91CF91FF90C1
S11301E0EF90DF90CF90BF90AF909F908F90089545
S11301F0CF93DF93FC01EB0199232CF4F195E19566
S1130200F1098DE28993309741F422C0C9016AE073
S113021070E00E94FE0E9B0102C020E137E2CF0194
S1130220B9010E94FE0E672B89F30EC0CF01B901FC
S11302300E94FE0E605D6993E82FF92FC9016AE000
S113024070E00E94FE0E9B01121613067CF302C09E
S113025080E389931882DF91CF910895CF93DF9340
S1130260CDB7DEB76F970FB6F894DEBF0FBECDBF24
S11302700E94DD0B8F3D20F081E08093E20206C0F6
S11302800E94DD0B883210F41092E2028091E202A7
S1130290882309F45AC00E947A0AAE014F5F5F4F67
S11302A00E949D006AE0CE0101960E94020C8BE33D
S11302B00E94E80B0E94D305BE01675E7F4F0E9437
S11302C0F80067E0CE0149960E94020C8BE30E947D
S11302D0E80B0E94C705BE016E5E7F4F0E94F800C6
S11302E067E0CE0142960E94020C8BE30E94E80B69
S11302F00E94C205BE01655F7F4F0E94F80067E05F
S1130300CE010B960E94020C8BE30E94E80B0E9424
S11303104C0BBC0180E090E00E94DA0D2DEC3CEC2B
S113032044E551E40E94910E0E94A40DDC01CB012E
S1130330BE01675E7F4F0E94F80067E0CE014996D8
S11303400E94020C8AE00E94E80B6F960FB6F894A4
S1130350DEBF0FBECDBFDF91CF9108953F924F9284
S11303605F926F927F928F929F92AF92BF92CF9241
S1130370DF92EF92FF920F931F93CF93DF93CDB74A
S1130380DEB7C254D1090FB6F894DEBF0FBECDBF9D
S1130390CE0101960E944E0C882309F41AC1FE0175
S11303A0F39680E1DF011D928A95E9F76AE083ED17
S11303B092E00E94020C6AE0CE0101960E94020CB7
S11303C0E12CF12CC4C0BDE23B1205C0B7FAB094D5
S11303D0B7F8B0942FC0C32CD12CE0E3CE1AD108C7
S11303E00E2D10E0000F111F000F111F81E090E08F
S11303F08C0F9D1F080F191FD801D2966D917D9106
S11304008D919C91D59720E030E040E251E40E9428
S1130410910E2B013C01B601DD0C880B990B0E9457
S1130420DC0DA30192010E94C10CF80162AB73AB15
S113043084AB95AB832D0E94E80BF39408C00F2E78
S1130440812C912CF0E8AF2EFFE3BF2EF02DE1E0DC
S1130450F0E0EC0FFD1FEF0DF11D3080FCE23F16C4
S113046009F447C08EE2381609F443C090E2391605
S113047009F43FC03110A7CF3CC00E32C9F10C3291
S1130480B9F110E000531109CE2CD12CCC0CDD1C99
S1130490CC0CDD1CA1E0B0E0AC0FBD1FCA0EDB1E0E
S11304A0F60162A973A984A995A920E030E040E28D
S11304B051E40E94910E2B013C01B801110F880BED
S11304C0990B0E94DC0DA30192010E94C10CD6017C
S11304D0D2966D937D938D939C93D59720E030E0D5
S11304E040E251E4C501B4010E94910E4B015C014C
S11304F0F394E1E0F0E0EC0FFD1FEF0DF11D00813E
S1130500003211F00111B9CFCE2CD12CCC0CDD1C52
S1130510CC0CDD1CE1E0F0E0EC0FFD1FCE0EDF1E85
S1130520D601D2966D917D918D919C91D597A5011F
S113053094010E94320DF60162AB73AB84AB95ABB0
S1130540E394003221F4802F0E94E80BF394E1E05D
S1130550F0E0EC0FFD1FEF0DF11D808181116FCFD5
S11305606BA97CA98DA99EA923E333E343E451EC51
S11305700E942D0D811104C08BB180648BB903C01E
S11305808BB18F7B8BB9F4E0EF1223C06BA97CA9EC
S11305908DA99EA90E941D076FA978AD89AD9AAD5A
S11305A00E940B076BAD7CAD8DAD9EAD0E94140710
S11305B023966CAD7DAD8EAD9FAD23970E94AB0DA0
S11305C0162F862F90E00E94260780E3810F0E9459
S11305D0E80BCE5BDF4F0FB6F894DEBF0FBECDBF86
S11305E0DF91CF911F910F91FF90EF90DF90CF900B
S11305F0BF90AF909F908F907F906F905F904F903F
S11306003F9008950E94C30B0E94D50A0E94F703ED
S11306100E94CD090E94360B0E9453008AB1806269
S11306208AB978942FEF80E792E02150804090407F
S1130630E1F700C000000E94970080E090E00E9473
S113064061030E94950488E59BE10E943A048BB102
S113065080628BB960E070E08DEB94E00E945909F0
S1130660C0E021C02FEF87EA91E6215080409040FE
S1130670E1F700C0000060E070E08BEB94E00E94C2
S113068059092091BD043091BE048091BB0490911E
S1130690BC042817390711F4CF5F05C09093BE043A
S11306A08093BD04C0E0C330E8F20E9471098BB1AD
S11306B08F7D8BB988EA9BE10E943A040E94B40AB8
S11306C0FDCFBC01009761F485B18770886385B95B
S11306D081E0809300018093010160E07AEF66C0BD
S11306E0992384F48FEF8093E402719561957109E5
S11306F08091E302813011F4809301018FEF8093A4
S1130700E3020DC081E08093E4028091E3028F3F15
S113071019F481E08093010181E08093E302653F55
S113072081E078075CF088E199E70E94FE0E80E1A1
S11307308093000185B1877085B938C06B3F71051E
S113074064F088E99AE30E94FE0E88E08093000139
S113075085B18770806285B929C06E37710564F0F0
S11307608CE49DE10E94FE0E84E08093000185B13B
S11307708770806185B91AC06034710564F086EAB7
S11307809EE00E94FE0E82E08093000185B1877096
S1130790806385B90BC083E597E00E94FE0E81E07B
S11307A08093000185B18770886385B980910101C8
S11307B0882321F0645C7F4F109201012091840012
S11307C030918500CB0101978217930758F47093F9
S11307D0890060938800625071097093850060936A
S11307E0840008957093890060938800089584B10B
S11307F08E6384B98AB180688AB9109280008DE0D2
S11308008093810086E086BB20E130E030938B004A
S113081020938A0020E737E13093890020938800F1
S113082080936F0008958091E5029091E602089507
S113083088233CF485B1826085B98FEF8093E4020C
S113084006C085B18D7F85B981E08093E40285B1CE
S1130850846085B98FE39FE10197F1F700C0000040
S113086085B18B7F85B98FE39FE10197F1F700C0D4
S113087000000895CF93DF93EC0185B1877085B9AB
S113088080E1809300012FEF81EE94E021508040BD
S11308909040E1F700C00000CE0101978F329543EC
S11308A0E8F58091E5029091E6028C179D07A0F08F
S11308B02EC081E00E9418043091E40220910001CE
S11308C08091E5029091E6023202800D911D11247F
S11308D09093E6028093E5028091E5029091E6020E
S11308E08C179D0730F31AC08FEF0E9418043091C3
S11308F0E402209100018091E5029091E602320227
S1130900800D911D11249093E6028093E50280915D
S1130910E5029091E602C817D90730F380E090E031
S11309200E946103DF91CF9108958AB18F7E8AB9C5
S11309308BB180618BB980E090E00E9461038BB140
S113094080648BB92FEF89E698E121508040904074
S1130950E1F700C0000085B1877085B980E180931C
S1130960000103C08FEF0E9418044C99FBCF8BB198
S11309708F7B8BB91092E6021092E50282E390E03D
S11309800E943A042FEF89E698E12150804090407C
S1130990E1F700C000008BB18F7B8BB985B1877004
S11309A0886385B981E08093000103C08FEF0E94C2
S11309B018044C99FBCF85B1877085B980E1809389
S11309C000018BB18F7B8BB91092E6021092E50285
S11309D008951F920F920FB60F9211242F933F93F5
S11309E08F939F933091E402209100018091E5025E
S11309F09091E6023202800D911D112480339543BB
S1130A0008F53091E402209100018091E502909173
S1130A10E6023202800D911D1124892B99F085B1D3
S1130A20846085B93091E402209100018091E5024F
S1130A309091E6023202800D911D11249093E602FA
S1130A408093E5029F918F913F912F910F900FBE5C
S1130A500F901F9018951F920F920FB60F921124AA
S1130A608F9385B18B7F85B98091E402813019F42D
S1130A7085B18D7F85B98091E4028F3F19F485B1EA
S1130A80826085B98F910F900FBE0F901F901895BB
S1130A9064EF72E08CEF92E00E945909E091F30256
S1130AA0F0E0EE0FFF1FEE5FFE4F0190F081E02DAE
S1130AB00995609308037093090380930A03909344
S1130AC00B032091DC02222361F020919A0222235D
S1130AD019F010929A0203C021E020939A02109216
S1130AE0DC0220919A022223A1F120E030E04AE7BF
S1130AF054E40E948C0E181664F480E090E0AAE797
S1130B00B4E48093080390930903A0930A03B09379
S1130B100B03609108037091090380910A0390917B
S1130B200B0320E030E04AE754EC0E942D0D8823AB
S1130B3064F480E090E0AAE7B4EC80930803909317
S1130B400903A0930A03B0930B038BB180628BB9A2
S1130B500BC0109208031092090310920A0310921A
S1130B600B038BB18F7D8BB96091080370910903DE
S1130B7080910A0390910B030E94A40DCB010E9463
S1130B80610308958091FE029091FF02089560919F
S1130B9004037091050380910603909107030E945A
S1130BA0A40DCB0108958091F8029091F902089563
S1130BB0BC01990F880B990B0E94DC0D20910C034A
S1130BC030910D0340910E0350910F030E94910E3A
S1130BD020910403309105034091060350910703CB
S1130BE00E94C10C60930403709305038093060371
S1130BF09093070320E836E948E15BE40E948C0EF9
S1130C00181664F480E896E9A8E1BBE48093040331
S1130C1090930503A0930603B09307036091040324
S1130C2070910503809106039091070320E836E94B
S1130C3048E15BEC0E942D0D882364F480E896E97A
S1130C40A8E1BBEC8093040390930503A0930603EF
S1130C50B093070308950F931F93CF93DF93EC0191
S1130C600E947A0A0091E7021091E8022091E902B9
S1130C703091EA02025E1F4F2F4F3F4F06171707AE
S1130C802807390708F05FC08091EF029091F002C5
S1130C908C179D0729F58091F1029091F2029E0133
S1130CA0281B390B3093FF022093FE020E947A0A1C
S1130CB00091EB021091EC022091ED023091EE02D2
S1130CC0601B710B7093FB026093FA028091FE0229
S1130CD09091FF020E94FE0E7093FF026093FE0249
S1130CE08091EF029091F002C817D90761F19E013B
S1130CF0281B390B3093FF022093FE024091F4022B
S1130D005091F5026091F6027091F702E7EEF2E07D
S1130D100081118122813381DA01A01BB10BB093D0
S1130D20FB02A093FA02AFEEB2E013969C938E936B
S1130D3012970483158326833783CD93DC934083F2
S1130D40518362837383DF91CF911F910F91089533
S1130D50CF92DF92EF92FF928091FC029091FD027C
S1130D609093F9028093F8020E942B068091FC0272
S1130D709091FD020E94D8056091FC027091FD02E1
S1130D80072E000C880B990B0E94DC0D20919B020E
S1130D9030919C0240919D0250919E020E94910EBE
S1130DA06B017C016091FE027091FF02072E000C22
S1130DB0880B990B0E94DC0D2091100330911103D4
S1130DC040911203509113030E94910E9B01AC01B8
S1130DD0C701B6010E94C10C6B017C012091040380
S1130DE030910503409106035091070360910C0371
S1130DF070910D0380910E0390910F030E94910E48
S1130E009B01AC01C701B6010E94C10CFF90EF9099
S1130E10DF90CF90089560930C0370930D0380933B
S1130E200E0390930F0308956093100370931103BE
S1130E308093120390931303089560939B0270931D
S1130E409C0280939D0290939E0208959091F302D8
S1130E50981751F08093F302109204031092050343
S1130E601092060310920703089560E273E00E9453
S1130E70FE0E992314F4805E9C4F803921E0920782
S1130E80DCF060E971E00E94FE0E893C91054CF0B3
S1130E9028EC30E0B9010E94FE0EA901481B590B51
S1130EA0CA01880F991FFC01E85FFE4F8081918180
S1130EB0919581959109089560E971E00E94FE0E73
S1130EC0893C91054CF028EC30E0B9010E94FE0EFB
S1130ED0A901481B590BCA01880F991FFC01E85F3F
S1130EE0FE4F808191810895CF92DF92EF92FF921D
S1130EF0CF938091FC029091FD0260E273E00E9426
S1130F00FE0E9093FD028093FC02992334F4805EDC
S1130F109C4F9093FD028093FC028091FC0290917F
S1130F20FD029C012F5531402336310510F0C1E0FC
S1130F3001C0CFEF0E9435079093FD028093FC021D
S1130F409093F9028093F8020E942B068091FC0290
S1130F509091FD020E94D8056C2FCC0F770B880B63
S1130F60990B0E94DC0D20919B0230919C024091D0
S1130F709D0250919E020E94910E6B017C01609132
S1130F80FC027091FD02072E000C880B990B0E9445
S1130F90DC0DA70196010E94910E6B017C0160910A
S1130FA0FE027091FF02072E000C880B990B0E9421
S1130FB0DC0D2091100330911103409112035091E4
S1130FC013030E94910E9B01AC01C701B6010E945C
S1130FD0C10C6B017C012091040330910503409105
S1130FE006035091070360910C0370910D038091E7
S1130FF00E0390910F030E94910E9B01AC01C70157
S1131000B6010E94C10CCF91FF90EF90DF90CF907A
S11310100895CF92DF92EF92FF92CF93DF93809166
S1131020FC029091FD020E9435079093FD0280938B
S1131030FC020E944C0BBC0180E090E00E94DA0D9F
S11310402DEC3CEC44E551E40E94910E60930003C6
S11310507093010380930203909303036091FC0255
S11310607091FD02072E000C880B990B0E94DC0D79
S113107020E030E040ED50E40E94910E0E94A40D67
S11310807093FD026093FC020E941304C091FC0261
S1131090D091FD028C0F9D1F9093F9028093F8026A
S11310A00E9413049E01281B390BC9010E942B06C0
S11310B0C0900003D0900103E0900203F09003037A
S11310C00E941304BC0180E090E00E94DA0D9B01B1
S11310D0AC01C701B6010E94C00C6B017C01609198
S11310E0FC027091FD02072E000C880B990B0E94E4
S11310F0DC0DA70196010E94C10C0E94A40D7093FF
S1131100FD026093FC02CB010E94D8056091FC02B1
S11311107091FD02072E000C880B990B0E94DC0DC8
S113112020919B0230919C0240919D0250919E021D
S11311300E94910E6B017C016091FE027091FF028E
S1131140072E000C880B990B0E94DC0D20911003D4
S11311503091110340911203509113030E94910E98
S11311609B01AC01C701B6010E94C10C6B017C015B
S11311702091040330910503409106035091070325
S113118060910C0370910D0380910E0390910F03F5
S11311900E94910E9B01AC01C701B6010E94C10CD3
S11311A0DF91CF91FF90EF90DF90CF9008958091E1
S11311B01903882361F080911B0390911C0301970C
S11311C090931C0380931B0382E08093140380910B
S11311D01A03882361F080911B0390911C030196EC
S11311E090931C0380931B0381E080931403089560
S11311F080911903882361F080911B0390911C0353
S1131200019690931C0380931B0383E08093140343
S113121080911A0381110BC080911B0390911C03D0
S1131220019790931C0380931B0310921403089559
S11312308091190381110BC080911B0390911C03B1
S1131240019690931C0380931B03109214038091C6
S11312501A03882361F080911B0390911C0301976A
S113126090931C0380931B0383E0809314030895DD
S11312708091190381110CC080911B0390911C0370
S1131280019790931C0380931B0381E080931403C4
S113129080911A0381110CC080911B0390911C034F
S11312A0019690931C0380931B0382E080931403A4
S11312B0089520911B0330911C03FC01318320838A
S11312C06115710569F08091150390911603A09141
S11312D01703B0911803FB0180839183A283B38326
S11312E008959091190380911A03892319F083E0DA
S11312F0809314032091190381E090E0222311F0DC
S113130080E090E020911A0330E082239323892B1C
S113131019F082E0809314032091190330911A0389
S113132081E090E0332311F080E090E030E082230C
S11313309323892B19F081E080931403809119037E
S113134020911A0391E0811190E081E0211180E065
S1131350892311F0109214032FEF80E792E02150BB
S113136080409040E1F700C0000089B1887080930C
S11313701A0389B1847080931903E0911403F0E097
S1131380EE0FFF1FE156FD4F0190F081E02D09950E
S113139010921C0310921B0308958AB18B7F8AB9A3
S11313A08BB184608BB98AB1877F8AB98BB188602D
S11313B08BB98DB381608DBBE9E6F0E080818160FB
S11313C0808380818D7F80838DB382608DBB80819B
S11313D0846080838081877F80830E94710908955F
S11313E01F920F920FB60F9211242F933F934F9396
S11313F05F936F937F938F939F93AF93BF93EF9379
S1131400FF9389B1887080931A0389B184708093A3
S1131410190380911D0390911E03A0911F03B091A5
S113142020038093150390931603A0931703B0939E
S11314301803E0911403F0E0EE0FFF1FE156FD4F97
S11314400190F081E02D0995FF91EF91BF91AF914B
S11314509F918F917F916F915F914F913F912F91C8
S11314600F900FBE0F901F9018951F920F920FB6FA
S11314700F9211242F933F934F935F936F937F9316
S11314808F939F93AF93BF93EF93FF9389B188702A
S113149080931A0389B184708093190380911D038A
S11314A090911E03A0911F03B09120038093150314
S11314B090931603A0931703B0931803E0911403B9
S11314C0F0E0EE0FFF1FE156FD4F0190F081E02D9B
S11314D00995FF91EF91BF91AF919F918F917F916A
S11314E06F915F914F913F912F910F900FBE0F908D
S11314F01F90189560911D0370911E0380911F0326
S11315009091200308958091A9028F5F8093A9028E
S1131510833029F481E0809323031092A9028091FF
S113152026038F5F80932603833029F481E0809320
S11315302403109226038091A8028F5F8093A8024F
S1131540853029F481E0809322031092A8028091CF
S1131550A7028F5F8093A702843129F481E08093EE
S113156021031092A702089580912403882321F077
S11315700E942E011092240380912303882321F0DA
S11315800E9448051092230380912203882321F0AE
S11315900E9460001092220380912103882321F08D
S11315A00E94AE0110922103089589EF87BD82E461
S11315B084BD83E085BD82E080936E0008951F9210
S11315C00F920FB60F9211242F933F934F935F9373
S11315D06F937F938F939F93AF93BF93EF93FF93F7
S11315E00E94830A8091250391E0980F909325032C
S11315F08A30A8F480911D0390911E03A0911F03CB
S1131600B09120030196A11DB11D80931D039093F9
S11316101E03A0931F03B093200310922503FF9190
S1131620EF91BF91AF919F918F917F916F915F9156
S11316304F913F912F910F900FBE0F901F901895CF
S11316401F920F920FB60F9211248F939F93809144
S113165078009091790090936903809368039F9137
S11316608F910F900FBE0F901F90189587B18E7FAA
S113167087B988B18E7F88B981E080937E00EAE7DC
S1131680F0E08FEA8083ACE7B0E08C9180648C93C7
S11316908081806480830895CF93DF9390912703A2
S11316A081E0963908F480E02AE6829F900D1124A7
S11316B0909327038091270390E001966FE070E0F8
S11316C00E94FE0E80932703C0912703D0E0CC0F25
S11316D0DD1FCC0FDD1FC45DDC4F6091680370918A
S11316E06903072E000C880B990B0E94DC0D68839C
S11316F079838A839B831092280310922903109282
S11317002A0310922B03C0E028C08091270390E0A5
S11317100F968C1B91096FE070E00E94FE0EFC0195
S1131720EE0FFF1FEE0FFF1FE45DFC4F6081718120
S113173082819381209128033091290340912A03C7
S113174050912B030E94C10C6093280370932903CA
S113175080932A0390932B03CF5FCF30B0F220E025
S113176030E040E751E460912803709129038091AF
S11317702A0390912B030E94320D0E94AB0DCB01E2
S1131780DF91CF91089586E08093C20083E0809337
S1131790C400E1ECF0E08081806180838081806816
S11317A08083808188608083808180628083E0EC94
S11317B0F0E080818062808308959091D1038091CC
S11317C0D203981718F0891B8A510895891B08952C
S11317D0482F2091D10330E0C901019666EE70E0F4
S11317E00E94FE0E9091D203981759F0F901ED5220
S11317F0FC4F40838093D103E1ECF0E08081806270
S1131800808308951F93CF93DF93EC01162F0E94DA
S1131810DD0B181720F006C00E94E80B2196888182
S11318208111FACFDF91CF911F9108951F920F92EA
S11318300FB60F9211245F936F937F938F939F93AF
S1131840AF93BF93EF93FF93E091D2038091D103C1
S1131850E81789F0F0E0ED52FC4F80818093C600D8
S11318608091D20390E0019666EE70E00E94FE0E35
S11318708093D20305C0E1ECF0E080818F7D80830A
S1131880FF91EF91BF91AF919F918F917F916F9154
S11318905F910F900FBE0F901F901895CF93DF9319
S11318A0EC0180916A03882321F1F89420E011C0AF
S11318B0FE01E20FF11D90E0DC01A359BC4F3C9105
S11318C03083019664E670E00E94FE0E80936C0300
S11318D02F5F90916B0380916C03981711F023365E
S11318E038F310926A037894C20FD11D188281E0F4
S11318F001C080E0DF91CF9108951F920F920FB63F
S11319000F9211242F933F935F936F937F938F9341
S11319109F93AF93BF93EF93FF9380916B0390E0FA
S1131920019664E670E00E94FE0E9091C60020913C
S11319306C032817A9F09A3011F09D3021F481E04E
S113194080936A030DC030916A03311120936B03B5
S1131950E0916B03F0E0E359FC4F908380936B03B9
S1131960FF91EF91BF91AF919F918F917F916F9173
S11319705F913F912F910F900FBE0F901F9018957C
S11319805058BB27AA270E94D80C0C94520E0E94D0
S1131990440E38F00E944B0E20F039F49F3F19F4A6
S11319A026F40C94410E0EF4E095E7FB0C943B0EE8
S11319B0E92F0E94630E58F3BA176207730784076E
S11319C0950720F079F4A6F50C94850E0EF4E095B5
S11319D00B2EBA2FA02D0B01B90190010C01CA01E5
S11319E0A0011124FF27591B99F0593F50F4503E90
S11319F068F11A16F040A22F232F342F4427585F82
S1131A00F3CF469537952795A795F0405395C9F799
S1131A107EF41F16BA0B620B730B840BBAF0915051
S1131A20A1F0FF0FBB1F661F771F881FC2F70EC0F0
S1131A30BA0F621F731F841F48F4879577956795C3
S1131A40B795F7959E3F08F0B0CF9395880F08F0AF
S1131A509927EE0F9795879508950E94170E08F41D
S1131A6081E008950E94460D0C94520E0E944B0E84
S1131A7058F00E94440E40F029F45F3F29F00C9482
S1131A803B0E51110C94860E0C94410E0E94630E71
S1131A9068F39923B1F3552391F3951B550BBB2799
S1131AA0AA2762177307840738F09F5F5F4F220FDE
S1131AB0331F441FAA1FA9F335D00E2E3AF0E0E8D5
S1131AC032D091505040E695001CCAF72BD0FE2F1F
S1131AD029D0660F771F881FBB1F261737074807B3
S1131AE0AB07B0E809F0BB0B802DBF01FF2793586B
S1131AF05F4F3AF09E3F510578F00C943B0E0C94E6
S1131B00860E5F3FE4F3983ED4F386957795679508
S1131B10B795F7959F5FC9F7880F911D969587959F
S1131B2097F90895E1E0660F771F881FBB1F6217BE
S1131B3073078407BA0720F0621B730B840BBA0B7C
S1131B40EE1F88F7E09508950E94AB0D6894B111DB
S1131B500C94860E08950E946B0E88F09F5798F09F
S1131B60B92F9927B751B0F0E1F0660F771F881F9E
S1131B70991F1AF0BA95C9F714C0B13091F00E94B8
S1131B80850EB1E008950C94850E672F782F882771
S1131B90B85F39F0B93FCCF3869577956795B395DF
S1131BA0D9F73EF490958095709561957F4F8F4F4E
S1131BB09F4F0895E89409C097FB3EF49095809553
S1131BC0709561957F4F8F4F9F4F9923A9F0F92FFF
S1131BD096E9BB279395F695879577956795B7957D
S1131BE0F111F8CFFAF4BB0F11F460FF1BC06F5F63
S1131BF07F4F8F4F9F4F16C0882311F096E911C075
S1131C00772321F09EE8872F762F05C0662371F095
S1131C1096E8862F70E060E02AF09A95660F771FA9
S1131C20881FDAF7880F9695879597F90895990F85
S1131C300008550FAA0BE0E8FEEF16161706E80792
S1131C40F907C0F012161306E407F50798F0621BB3
S1131C50730B840B950B39F40A2661F0232B242B88
S1131C60252B21F408950A2609F4A140A6958FEFA7
S1131C70811D811D089597F99F6780E870E060E0F9
S1131C8008959FEF80EC089500240A941616170611
S1131C9018060906089500240A9412161306140659
S1131CA005060895092E0394000C11F4882352F0BC
S1131CB0BB0F40F4BF2B11F460FF04C06F5F7F4F74
S1131CC08F4F9F4F089557FD9058440F551F59F05B
S1131CD05F3F71F04795880F97FB991F61F09F3F15
S1131CE079F087950895121613061406551FF2CF3E
S1131CF04695F1DF08C0161617061806991FF1CF8E
S1131D0086957105610508940895E894BB276627B4
S1131D107727CB0197F908950E94170E08F48FEFE7
S1131D2008950E94A40E0C94520E0E94440E38F0A2
S1131D300E944B0E20F0952311F00C943B0E0C9452
S1131D40410E11240C94860E0E94630E70F3959F2D
S1131D50C1F3950F50E0551F629FF001729FBB279E
S1131D60F00DB11D639FAA27F00DB11DAA1F649F3A
S1131D706627B00DA11D661F829F2227B00DA11DED
S1131D80621F739FB00DA11D621F839FA00D611D73
S1131D90221F749F3327A00D611D231F849F600D94
S1131DA0211D822F762F6A2F11249F5750409AF0BD
S1131DB0F1F088234AF0EE0FFF1FBB1F661F771F49
S1131DC0881F91505040A9F79E3F510580F00C9414
S1131DD03B0E0C94860E5F3FE4F3983ED4F3869555
S1131DE077956795B795F795E7959F5FC1F7FE2BB4
S1131DF0880F911D9695879597F9089597FB072E5F
S1131E0016F4009407D077FD09D00E94340F07FC24
S1131E1005D03EF4909581959F4F089570956195F6
S1131E207F4F0895A1E21A2EAA1BBB1BFD010DC012
S1131E30AA1FBB1FEE1FFF1FA217B307E407F50776
S1131E4020F0A21BB30BE40BF50B661F771F881F52
S1131E50991F1A9469F760957095809590959B01E8
S1131E60AC01BD01CF010895AA1BBB1B51E107C002
S1131E70AA1FBB1FA617B70710F0A61BB70B881F16
S1131E80991F5A95A9F780959095BC01CD010895A5
S1071E90F894FFCFF0
S1131E9401017407A8060908000007000F001700D1
S1131EA41F0027002F0036003E0046004E00560057
S1131EB45E0065006D0075007D0085008C00940053
S1131EC49C00A400AB00B300BB00C300CA00D20052
S1131ED4DA00E100E900F100F800000107010F0154
S1131EE416011E0126012D0135013C0143014B015C
S1131EF452015A0161016801700177017E01850173
S1131F048D0194019B01A201A901B001B701BE0195
S1131F14C501CC01D301DA01E101E801EF01F601C5
S1131F24FD0103020A02110217021E0225022B02FA
S1131F34320238023F0245024B02520258025E0248
S1131F4464026B02710277027D02830289028F02AA
S1131F5495029B02A102A602AC02B202B702BD0220
S1131F64C302C802CE02D302D802DE02E302E802AC
S1131F74EE02F302F802FD02020307030C03110349
S1131F8416031A031F03240329032D033203360300
S1131F943B033F03430348034C03500354035803D4
S1131FA45C036003640368036C03700373037703C3
S1131FB47B037E038203850388038C038F039203CC
S1131FC4950398039B039E03A103A403A703AA03F5
S1131FD4AC03AF03B203B403B703B903BB03BE0337
S1131FE4C003C203C403C603C803CA03CC03CE0399
S1131FF4CF03D103D303D403D603D703D903DA031A
S1132004DB03DC03DE03DF03E003E103E103E203B8
S1132014E303E403E403E503E603E603E603E70377
S1132024E703E703E703E703E80301CDCCCC3DD79B
S113203408F808180938090503017469656D706F97
S11320443B6572726F723B696E74656772616C3B57
S113205464657269766164613B736574506F696E1B
S10F2064740A006461746F733A20000079
S9030000FC
