:100000000C9434000C94B0090C946F090C945100BA
:100010000C9451000C9451000C9451000C94F10973
:100020000C9451000C9451000C9451000C94CE038C
:100030000C9410040C9451000C946C0A0C94510014
:100040000C9451000C9451000C941D0C0C94B60BA4
:100050000C9451000C94C00A0C9451000C94510063
:100060000C9451000C94510011241FBECFEFD8E026
:10007000DEBFCDBF12E0A0E0B1E0E4EDFDE102C0E3
:1000800005900D92AC3DB107D9F725E0ACEDB2E09B
:1000900001C01D92A830B207E1F70E9402030C9440
:1000A000E80E0C9400008AB18F778AB98BB1806812
:1000B0008BB984B18E7F84B985B1816085B908958B
:1000C0004F9B10C01092E0028091E1028F5F8093FD
:1000D000E1028031E0F081E08093DE0284E68093EB
:1000E000E10215C01092E1028091E0028F5F8093DF
:1000F000E002803128F01092DE0284E68093E00274
:100100008091E0028D3019F481E08093DC0218992F
:100110000BC08091DF028F5F8093DF028B3030F065
:1001200081E08093DD0208951092DF02089561E07E
:100130008AEA92E00E94A20B08958F929F92AF925A
:10014000BF92CF92DF92EF92FF92CF93DF936B013A
:100150007C01EA01672B682B692B61F43BC0C50168
:10016000B4012AE030E040E050E00E94B20E4901C4
:100170005A0109C00F2E812CFAEC9F2EFAE9AF2EFE
:10018000FBE3BF2EF02DC701B601A50194010E942B
:10019000B20E232B242B252B11F316C0C701B60159
:1001A000A50194010E94B20E205D2993C62ED72E80
:1001B000E82EF92EC501B4012AE030E040E050E01D
:1001C0000E94B20E49015A0181149104A104B104A4
:1001D00029F702C080E389931882DF91CF91FF90C5
:1001E000EF90DF90CF90BF90AF909F908F90089549
:1001F000CF93DF93FC01EB0199232CF4F195E1956A
:10020000F1098DE28993309741F422C0C9016AE077
:1002100070E00E949E0E9B0102C020E137E2CF01F8
:10022000B9010E949E0E672B89F30EC0CF01B90160
:100230000E949E0E605D6993E82FF92FC9016AE064
:1002400070E00E949E0E9B01121613067CF302C002
:1002500080E389931882DF91CF910895CF93DF9344
:10026000CDB7DEB76F970FB6F894DEBF0FBECDBF28
:100270000E947D0B8F3D20F081E08093E20206C05A
:100280000E947D0B883210F41092E2028091E2020B
:10029000882309F45AC00E94110AAE014F5F5F4FD4
:1002A0000E949D006AE0CE0101960E94A20B8BE3A2
:1002B0000E94880B0E94BF04BE01675E7F4F0E94B0
:1002C000F80067E0CE0149960E94A20B8BE30E94E2
:1002D000880B0E94B304BE016E5E7F4F0E94F8003F
:1002E00067E0CE0142960E94A20B8BE30E94880B2E
:1002F0000E94A704BE01655F7F4F0E94F80067E07F
:10030000CE010B960E94A20B8BE30E94880B0E94E9
:10031000EC0ABC0180E090E00E947A0D2DEC3CECF0
:1003200044E551E40E94310E0E94440DDC01CB01F2
:10033000BE01675E7F4F0E94F80067E0CE014996DC
:100340000E94A20B8AE00E94880B6F960FB6F89469
:10035000DEBF0FBECDBFDF91CF9108953F924F9288
:100360005F926F927F928F929F92AF92BF92CF9245
:10037000DF92EF92FF920F931F93CF93DF93CDB74E
:10038000DEB7C254D1090FB6F894DEBF0FBECDBFA1
:10039000CE0101960E94EE0B882309F41AC1FE01DA
:1003A000F39680E1DF011D928A95E9F76AE083ED1B
:1003B00092E00E94A20B6AE0CE0101960E94A20B7D
:1003C000E12CF12CC4C0BDE23B1205C0B7FAB094D9
:1003D000B7F8B0942FC0C32CD12CE0E3CE1AD108CB
:1003E0000E2D10E0000F111F000F111F81E090E093
:1003F0008C0F9D1F080F191FD801D2966D917D910A
:100400008D919C91D59720E030E040E251E40E942C
:10041000310E2B013C01B601DD0C880B990B0E94BB
:100420007C0DA30192010E94610CF80162AB73ABD9
:1004300084AB95AB832D0E94880BF39408C00F2EDC
:10044000812C912CF0E8AF2EFFE3BF2EF02DE1E0E0
:10045000F0E0EC0FFD1FEF0DF11D3080FCE23F16C8
:1004600009F447C08EE2381609F443C090E2391609
:1004700009F43FC03110A7CF3CC00E32C9F10C3295
:10048000B9F110E000531109CE2CD12CCC0CDD1C9D
:10049000CC0CDD1CA1E0B0E0AC0FBD1FCA0EDB1E12
:1004A000F60162A973A984A995A920E030E040E291
:1004B00051E40E94310E2B013C01B801110F880B51
:1004C000990B0E947C0DA30192010E94610CD60140
:1004D000D2966D937D938D939C93D59720E030E0D9
:1004E00040E251E4C501B4010E94310E4B015C01B0
:1004F000F394E1E0F0E0EC0FFD1FEF0DF11D008142
:10050000003211F00111B9CFCE2CD12CCC0CDD1C56
:10051000CC0CDD1CE1E0F0E0EC0FFD1FCE0EDF1E89
:10052000D601D2966D917D918D919C91D597A50123
:1005300094010E94D20CF60162AB73AB84AB95AB15
:10054000E394003221F4802F0E94880BF394E1E0C1
:10055000F0E0EC0FFD1FEF0DF11D808181116FCFD9
:100560006BA97CA98DA99EA923E333E343E451EC55
:100570000E94CD0C811104C08BB180648BB903C083
:100580008BB18F7B8BB9F4E0EF1223C06BA97CA9F0
:100590008DA99EA90E9433066FA978AD89AD9AAD49
:1005A0000E9421066BAD7CAD8DAD9EAD0E942A06EA
:1005B00023966CAD7DAD8EAD9FAD23970E944B0D04
:1005C000162F862F90E00E943C0680E3810F0E9448
:1005D000880BCE5BDF4F0FB6F894DEBF0FBECDBFEA
:1005E000DF91CF911F910F91FF90EF90DF90CF900F
:1005F000BF90AF909F908F907F906F905F904F9043
:100600003F9008950E94630B0E94AD030E9442092F
:100610000E94D60A0E9453008AB180628AB97894F7
:100620000E9497000E94640A0E94430AFDCFBC0109
:10063000009761F485B18770886385B981E0809304
:1006400000018093010160E07AEF66C0992384F491
:100650008FEF8093E4027195619571098091E302B7
:10066000813011F4809301018FEF8093E3020DC07C
:1006700081E08093E4028091E3028F3F19F481E0EE
:100680008093010181E08093E302653F81E0780778
:100690005CF088E199E70E949E0E80E18093000162
:1006A00085B1877085B938C06B3F710564F088E902
:1006B0009AE30E949E0E88E08093000185B18770C6
:1006C000806285B929C06E37710564F08CE49DE1C4
:1006D0000E949E0E84E08093000185B18770806146
:1006E00085B91AC06034710564F086EA9EE00E9404
:1006F0009E0E82E08093000185B18770806385B98A
:100700000BC083E597E00E949E0E81E0809300017C
:1007100085B18770886385B980910101882321F0B4
:10072000645C7F4F1092010120918400309185001C
:10073000CB0101978217930758F470938900609357
:100740008800625071097093850060938400089559
:100750007093890060938800089584B18E6384B992
:100760008AB180688AB9109280008DE08093810000
:1007700086E086BB20E130E030938B0020938A0036
:1007800020E737E1309389002093880080936F0041
:1007900008958091E5029091E60208951F920F92CC
:1007A0000FB60F9211242F933F938F939F93309105
:1007B000E402209100018091E5029091E60232026C
:1007C000800D911D11248033954308F53091E4028A
:1007D000209100018091E5029091E6023202800DA5
:1007E000911D1124892B99F085B1846085B93091D0
:1007F000E402209100018091E5029091E60232022C
:10080000800D911D11249093E6028093E5029F9143
:100810008F913F912F910F900FBE0F901F901895C1
:100820001F920F920FB60F9211248F9385B18B7F79
:1008300085B98091E402813019F485B18D7F85B945
:100840008091E4028F3F19F485B1826085B98F9160
:100850000F900FBE0F901F90189568EE72E08CEE0F
:1008600092E00E94A008E091E702F0E0EE0FFF1F87
:10087000EE5FFE4F0190F081E02D099560934A03F1
:1008800070934B0380934C0390934D032091DC02B3
:10089000222361F020919A02222319F010929A02E9
:1008A00003C021E020939A021092DC0220919A0268
:1008B0002223A1F120E030E04AE754E40E942C0E0C
:1008C000181664F480E090E0AAE7B4E480934A0349
:1008D00090934B03A0934C03B0934D0360914A0354
:1008E00070914B0380914C0390914D0320E030E0D8
:1008F0004AE754EC0E94CD0C882364F480E090E039
:10090000AAE7B4EC80934A0390934B03A0934C0363
:10091000B0934D038BB180628BB90BC010924A0328
:1009200010924B0310924C0310924D038BB18F7DAC
:100930008BB960914A0370914B0380914C03909165
:100940004D030E94440DCB010E941703089560914E
:10095000EE027091EF028091F0029091F1020E94FC
:10096000440DCB0108956091460370914703809137
:100970004803909149030E94440DCB010895809152
:10098000EA029091EB020895BC01990F880B990B34
:100990000E947C0D20914F033091500340915103F0
:1009A000509152030E94310E20914603309147032B
:1009B00040914803509149030E94610C60934603A3
:1009C00070934703809348039093490320E836E9E6
:1009D00048E15BE40E942C0E181664F480E896E966
:1009E000A8E1BBE48093460390934703A093480398
:1009F000B093490360914603709147038091480387
:100A00009091490320E836E948E15BEC0E94CD0C67
:100A1000882364F480E896E9A8E1BBEC8093460360
:100A200090934703A0934803B093490308954F92CE
:100A30005F926F927F928F929F92AF92BF92CF926E
:100A4000DF92EF92FF920F931F93CF93DF9300D02B
:100A500000D0CDB7DEB780914E0390E0019606E05E
:100A600010E0B8010E949E0E80934E03E82EF12CF8
:100A7000C701880F991F880F991F8A509D4F9A832D
:100A800089836091E8027091E902072E000C880BBF
:100A9000990B0E947C0DE981FA81608371838283C6
:100AA0009383C7010696B8010E949E0EFC01EE0FCB
:100AB000FF1FEE0FFF1FEA50FD4FC080D180E28084
:100AC000F3802AE037ED43EA5CE3C701B6010E94F8
:100AD000310E4B015C0129E23CE54FE05EE3C701CA
:100AE000B6010E94310E2B013C019B01AC01C501F6
:100AF000B4010E94610C69837A838B839C832BE70A
:100B000034E14EEA5EE3C701B6010E94310E6B018B
:100B10007C019B01AC0169817A818B819C810E945F
:100B2000610C9B01AC01C701B6010E94610C9B01E5
:100B3000AC01C301B2010E94610C9B01AC01C50173
:100B4000B4010E94610C6093EE027093EF028093F7
:100B5000F0029093F1020F900F900F900F90DF91A1
:100B6000CF911F910F91FF90EF90DF90CF90BF90AA
:100B7000AF909F908F907F906F905F904F9008956F
:100B8000CF92DF92EF92FF928091EC029091ED0272
:100B90009093EB028093EA020E9417058091EC0289
:100BA0009091ED020E94C4046091EC027091ED02FC
:100BB000072E000C880B990B0E947C0D20919B0244
:100BC00030919C0240919D0250919E020E94310EF4
:100BD0006B017C012091EE023091EF024091F00216
:100BE0005091F10260915303709154038091550329
:100BF000909156030E94310E9B01AC01C701B601D2
:100C00000E94610C6B017C012091460330914703E7
:100C1000409148035091490360914F0370915003F4
:100C200080915103909152030E94310E9B01AC01BF
:100C3000C701B6010E94610CFF90EF90DF90CF904A
:100C4000089560934F0370935003809351039093E2
:100C50005203089560935303709354038093550394
:100C600090935603089560939B0270939C02809327
:100C70009D0290939E0208959091E702981751F07B
:100C80008093E702109246031092470310924803A4
:100C900010924903089560E273E00E949E0E99232A
:100CA00014F4805E9C4F803921E09207DCF060E90B
:100CB00071E00E949E0E893C91054CF028EC30E0DA
:100CC000B9010E949E0EA901481B590BCA01880F49
:100CD000991FFC01E85FFE4F80819181919581957C
:100CE0009109089560E971E00E949E0E893C91058A
:100CF0004CF028EC30E0B9010E949E0EA901481B7F
:100D0000590BCA01880F991FFC01E85FFE4F8081D3
:100D100091810895CF92DF92EF92FF92CF938091CD
:100D2000EC029091ED0260E273E00E949E0E9093BF
:100D3000ED028093EC02992334F4805E9C4F9093F3
:100D4000ED028093EC028091EC029091ED029C0107
:100D50002F5531402336310510F0C1E001C0CFEFEF
:100D60000E944B069093ED028093EC029093EB026D
:100D70008093EA020E9417058091EC029091ED02A7
:100D80000E94C4046C2FCC0F770B880B990B0E9428
:100D90007C0D20919B0230919C0240919D025091CC
:100DA0009E020E94310E6B017C016091EC027091F9
:100DB000ED02072E000C880B990B0E947C0DA701F9
:100DC00096010E94310E6B017C0120E030E44CE979
:100DD00055E46091530370915403809155039091B1
:100DE00056030E94310E2091EE023091EF024091A5
:100DF000F0025091F1020E94D20C9B01AC01C7019C
:100E0000B6010E94610C6B017C0120914603309178
:100E10004703409148035091490360914F037091FB
:100E2000500380915103909152030E94310E9B0117
:100E3000AC01C701B6010E94610CCF91FF90EF9009
:100E4000DF90CF900895CF92DF92EF92FF92CF93F1
:100E5000DF938091EC029091ED020E944B069093FB
:100E6000ED028093EC020E94EC0ABC0180E090E06D
:100E70000E947A0D2DEC3CEC44E551E40E94310EC9
:100E80006093F2027093F3028093F4029093F50260
:100E90006091EC027091ED02072E000C880B990B0B
:100EA0000E947C0D20E030E040ED50E40E94310EC5
:100EB0000E94440D7093ED026093EC020E94C903FE
:100EC000C091EC02D091ED028C0F9D1F9093EB022C
:100ED0008093EA020E94C9039E01281B390BC901B5
:100EE0000E941705C090F202D090F302E090F40245
:100EF000F090F5020E94C903BC0180E090E00E94DE
:100F00007A0D9B01AC01C701B6010E94600C6B0118
:100F10007C016091EC027091ED02072E000C880BB1
:100F2000990B0E947C0DA70196010E94610C0E9402
:100F3000440D7093ED026093EC02CB010E94C40457
:100F40006091EC027091ED02072E000C880B990B5A
:100F50000E947C0D20919B0230919C0240919D0249
:100F600050919E020E94310E6B017C012091EE0295
:100F70003091EF024091F0025091F10260915303E1
:100F80007091540380915503909156030E94310E45
:100F90009B01AC01C701B6010E94610C6B017C0191
:100FA00020914603309147034091480350914903F3
:100FB00060914F03709150038091510390915203BF
:100FC0000E94310E9B01AC01C701B6010E94610C69
:100FD000DF91CF91FF90EF90DF90CF9008958091B7
:100FE0005E03882391F080916603909167030197D7
:100FF00090936703809366038FEF9FEF9093610355
:101000008093600382E08093570380915F0388237D
:1010100089F080916603909167030196909367032E
:101020008093660381E090E0909361038093600376
:1010300080935703089580915E03882391F08091F7
:10104000660390916703019690936703809366030C
:1010500081E090E0909361038093600383E080934C
:10106000570380915F03811111C0809166039091B5
:101070006703019790936703809366038FEF9FEF59
:1010800090936103809360031092570308958091B9
:101090005E03811111C080916603909167030196F0
:1010A000909367038093660381E090E090936103DF
:1010B000809360031092570380915F03882391F01F
:1010C00080916603909167030197909367038093E3
:1010D00066038FEF9FEF909361038093600383E03B
:1010E00080935703089580915E03811112C080910F
:1010F000660390916703019790936703809366035B
:101100008FEF9FEF909361038093600381E0809362
:10111000570380915F03811112C080916603909103
:1011200067030196909367038093660381E090E0E4
:10113000909361038093600382E080935703089546
:101140002091660330916703FC0131832083611590
:101150007105D9F120915C0330915D0380915A03B0
:1011600090915B03820F931F99230CF40196959540
:10117000879520915803309159038217930799F06E
:101180004091600350916103849F9001859F300DD1
:10119000949F300D1124FB013183208390935903D8
:1011A0008093580308954091640350916503209102
:1011B000600330916103429FC001439F900D529F95
:1011C000900D1124FB0191838083089590915E031B
:1011D00080915F03892319F083E080935703209166
:1011E0005E0381E090E0222311F080E090E0209106
:1011F0005F0330E082239323892B19F082E08093F0
:10120000570320915E0330915F0381E090E0332328
:1012100011F080E090E030E082239323892B19F0D5
:1012200081E08093570380915E0320915F0391E0FA
:10123000811190E081E0211180E0892311F010926A
:1012400057032FEF80E792E0215080409040E1F774
:1012500000C0000089B1887080935F0389B18470F9
:1012600080935E03E0915703F0E0EE0FFF1FE1561D
:10127000FD4F0190F081E02D0995109267031092C7
:10128000660308958AB18B7F8AB98BB184608BB96C
:101290008AB1877F8AB98BB188608BB98DB3816041
:1012A0008DBBE9E6F0E080818160808380818D7F65
:1012B00080838DB382608DBB8081846080838081D8
:1012C000877F808382E08093B00094E09093B100A8
:1012D0009093B300809370000E94E60808951F92D7
:1012E0000F920FB60F9211242F933F934F935F935A
:1012F0006F937F938F939F93AF93BF93EF93FF93DE
:10130000809162039091630390935B0380935A03EF
:10131000109263031092620389B1887080935F0317
:1013200089B1847080935E03E0915703F0E0EE0F83
:10133000FF1FE156FD4F0190F081E02D0995FF91CF
:10134000EF91BF91AF919F918F917F916F915F913D
:101350004F913F912F910F900FBE0F901F901895B6
:101360001F920F920FB60F9211242F933F934F931A
:101370005F936F937F938F939F93AF93BF93EF93FD
:10138000FF93809164039091650390935D03809334
:101390005C03109265031092640389B18870809396
:1013A0005F0389B1847080935E03E0915703F0E09E
:1013B000EE0FFF1FE156FD4F0190F081E02D0995E2
:1013C000FF91EF91BF91AF919F918F917F916F911D
:1013D0005F914F913F912F910F900FBE0F901F90F3
:1013E00018951F920F920FB60F9211248F939F930F
:1013F00080916403909165030196909365038093B7
:101400006403809162039091630301969093630358
:10141000809362039F918F910F900FBE0F901F904A
:101420001895609168037091690380916A039091A7
:101430006B0308958091A9028F5F8093A902813088
:1014400021F4809372031092A902809175038F5F3B
:1014500080937503863929F481E080937303109299
:1014600075038091A8028F5F8093A8028A3F29F4B8
:1014700081E0809371031092A8028091A7028F5F90
:101480008093A702089580917303882321F00E941E
:101490002E011092730380917203882321F00E9421
:1014A0002D041092720380917103882321F00E9411
:1014B00060001092710380917003882321F00E94D4
:1014C000AE0110927003089582E084BD85BD97E25D
:1014D00097BD80936E0008951F920F920FB60F92E2
:1014E00011242F933F934F935F936F937F938F9329
:1014F0009F93AF93BF93EF93FF930E941A0A80913B
:101500006C0390916D03A0916E03B0916F030196EF
:10151000A11DB11D80936C0390936D03A0936E0386
:10152000B0936F038091740391E0980F90937403CC
:101530008333A8F08091680390916903A0916A03B6
:10154000B0916B030196A11DB11D80936803909328
:101550006903A0936A03B0936B0310927403FF9125
:10156000EF91BF91AF919F918F917F916F915F911B
:101570004F913F912F910F900FBE0F901F90189594
:101580001F920F920FB60F9211248F939F93809109
:101590007800909179009093B8038093B7039F915E
:1015A0008F910F900FBE0F901F90189587B18E7F6F
:1015B00087B988B18E7F88B981E080937E00EAE7A1
:1015C000F0E08FEA8083ACE7B0E08C9180648C938C
:1015D0008081806480830895CF93DF939091760318
:1015E00081E0963908F480E02AE6829F900D11246C
:1015F000909376038091760390E001966FE070E01F
:101600000E949E0E80937603C0917603D0E0CC0FAB
:10161000DD1FCC0FDD1FC558DC4F6091B703709103
:10162000B803072E000C880B990B0E947C0D688371
:1016300079838A839B8310927703109278031092A8
:10164000790310927A03C0E028C08091760390E07D
:101650000F968C1B91096FE070E00E949E0EFC01BA
:10166000EE0FFF1FEE0FFF1FE558FC4F60817181E9
:10167000828193812091770330917803409179039F
:1016800050917A030E94610C609377037093780302
:101690008093790390937A03CF5FCF30B0F220E04C
:1016A00030E040E751E460917703709178038091D6
:1016B000790390917A030E94D20C0E944B0DCB01CA
:1016C000DF91CF91089586E08093C20083E08093FC
:1016D000C400E1ECF0E080818061808380818068DB
:1016E0008083808188608083808180628083E0EC59
:1016F000F0E0808180628083089590912004809141
:101700002104981718F0891B8A510895891B0895A0
:10171000482F2091200430E0C901019666EE70E068
:101720000E949E0E90912104981759F0F901EE5DE8
:10173000FB4F408380932004E1ECF0E080818062E5
:10174000808308951F93CF93DF93EC01162F0E949F
:101750007D0B181720F006C00E94880B2196888107
:101760008111FACFDF91CF911F9108951F920F92AF
:101770000FB60F9211245F936F937F938F939F9374
:10178000AF93BF93EF93FF93E091210480912004E6
:10179000E81789F0F0E0EE5DFB4F80818093C60092
:1017A0008091210490E0019666EE70E00E949E0E0A
:1017B0008093210405C0E1ECF0E080818F7D80837F
:1017C000FF91EF91BF91AF919F918F917F916F9119
:1017D0005F910F900FBE0F901F901895CF93DF93DE
:1017E000EC018091B903882321F1F89420E011C025
:1017F000FE01E20FF11D90E0DC01A454BC4F3C91CE
:101800003083019664E670E00E949E0E8093BB03D5
:101810002F5F9091BA038091BB03981711F0233684
:1018200038F31092B9037894C20FD11D188281E069
:1018300001C080E0DF91CF9108951F920F920FB603
:101840000F9211242F933F935F936F937F938F9306
:101850009F93AF93BF93EF93FF938091BA0390E070
:10186000019664E670E00E949E0E9091C600209161
:10187000BB032817A9F09A3011F09D3021F481E0C4
:101880008093B9030DC03091B90331112093BA038D
:10189000E091BA03F0E0E454FC4F90838093BA03E4
:1018A000FF91EF91BF91AF919F918F917F916F9138
:1018B0005F913F912F910F900FBE0F901F90189541
:1018C0005058BB27AA270E94780C0C94F20D0E9456
:1018D000E40D38F00E94EB0D20F039F49F3F19F42D
:1018E00026F40C94E10D0EF4E095E7FB0C94DB0D6F
:1018F000E92F0E94030E58F3BA1762077307840793
:10190000950720F079F4A6F50C94250E0EF4E095D9
:101910000B2EBA2FA02D0B01B90190010C01CA01A9
:10192000A0011124FF27591B99F0593F50F4503E54
:1019300068F11A16F040A22F232F342F4427585F46
:10194000F3CF469537952795A795F0405395C9F75E
:101950007EF41F16BA0B620B730B840BBAF0915016
:10196000A1F0FF0FBB1F661F771F881FC2F70EC0B5
:10197000BA0F621F731F841F48F487957795679588
:10198000B795F7959E3F08F0B0CF9395880F08F074
:101990009927EE0F9795879508950E94B70D08F443
:1019A00081E008950E94E60C0C94F20D0E94EB0D6C
:1019B00058F00E94E40D40F029F45F3F29F00C94A8
:1019C000DB0D51110C94260E0C94E10D0E94030EB8
:1019D00068F39923B1F3552391F3951B550BBB275E
:1019E000AA2762177307840738F09F5F5F4F220FA3
:1019F000331F441FAA1FA9F335D00E2E3AF0E0E89A
:101A000032D091505040E695001CCAF72BD0FE2FE3
:101A100029D0660F771F881FBB1F26173707480777
:101A2000AB07B0E809F0BB0B802DBF01FF2793582F
:101A30005F4F3AF09E3F510578F00C94DB0D0C940B
:101A4000260E5F3FE4F3983ED4F38695779567952D
:101A5000B795F7959F5FC9F7880F911D9695879564
:101A600097F90895E1E0660F771F881FBB1F621783
:101A700073078407BA0720F0621B730B840BBA0B41
:101A8000EE1F88F7E09508950E944B0D6894B11100
:101A90000C94260E08950E940B0E88F09F5798F024
:101AA000B92F9927B751B0F0E1F0660F771F881F63
:101AB000991F1AF0BA95C9F714C0B13091F00E947D
:101AC000250EB1E008950C94250E672F782F8827F6
:101AD000B85F39F0B93FCCF3869577956795B395A4
:101AE000D9F73EF490958095709561957F4F8F4F13
:101AF0009F4F0895E89409C097FB3EF49095809518
:101B0000709561957F4F8F4F9F4F9923A9F0F92FC3
:101B100096E9BB279395F695879577956795B79541
:101B2000F111F8CFFAF4BB0F11F460FF1BC06F5F27
:101B30007F4F8F4F9F4F16C0882311F096E911C039
:101B4000772321F09EE8872F762F05C0662371F05A
:101B500096E8862F70E060E02AF09A95660F771F6E
:101B6000881FDAF7880F9695879597F90895990F4A
:101B70000008550FAA0BE0E8FEEF16161706E80757
:101B8000F907C0F012161306E407F50798F0621B78
:101B9000730B840B950B39F40A2661F0232B242B4D
:101BA000252B21F408950A2609F4A140A6958FEF6C
:101BB000811D811D089597F99F6780E870E060E0BE
:101BC00008959FEF80EC089500240A9416161706D6
:101BD00018060906089500240A941216130614061E
:101BE00005060895092E0394000C11F4882352F081
:101BF000BB0F40F4BF2B11F460FF04C06F5F7F4F39
:101C00008F4F9F4F089557FD9058440F551F59F01F
:101C10005F3F71F04795880F97FB991F61F09F3FD9
:101C200079F087950895121613061406551FF2CF02
:101C30004695F1DF08C0161617061806991FF1CF52
:101C400086957105610508940895E894BB27662779
:101C50007727CB0197F908950E94B70D08F48FEF0D
:101C600008950E94440E0C94F20D0E94E40D38F089
:101C70000E94EB0D20F0952311F00C94DB0D0C94D9
:101C8000E10D11240C94260E0E94030E70F3959F13
:101C9000C1F3950F50E0551F629FF001729FBB2763
:101CA000F00DB11D639FAA27F00DB11DAA1F649FFF
:101CB0006627B00DA11D661F829F2227B00DA11DB2
:101CC000621F739FB00DA11D621F839FA00D611D38
:101CD000221F749F3327A00D611D231F849F600D59
:101CE000211D822F762F6A2F11249F5750409AF082
:101CF000F1F088234AF0EE0FFF1FBB1F661F771F0E
:101D0000881F91505040A9F79E3F510580F00C94D8
:101D1000DB0D0C94260E5F3FE4F3983ED4F38695DA
:101D200077956795B795F795E7959F5FC1F7FE2B78
:101D3000880F911D9695879597F9089597FB072E23
:101D400016F4009407D077FD09D00E94D40E07FC4A
:101D500005D03EF4909581959F4F089570956195BB
:101D60007F4F0895A1E21A2EAA1BBB1BFD010DC0D7
:101D7000AA1FBB1FEE1FFF1FA217B307E407F5073B
:101D800020F0A21BB30BE40BF50B661F771F881F17
:101D9000991F1A9469F760957095809590959B01AD
:101DA000AC01BD01CF010895AA1BBB1B51E107C0C7
:101DB000AA1FBB1FA617B70710F0A61BB70B881FDB
:101DC000991F5A95A9F780959095BC01CD0108956A
:041DD000F894FFCFB5
:101DD40001018A06C0052307000007000F00170051
:101DE4001F0027002F0036003E0046004E0056001C
:101DF4005E0065006D0075007D0085008C00940018
:101E04009C00A400AB00B300BB00C300CA00D20016
:101E1400DA00E100E900F100F800000107010F0118
:101E240016011E0126012D0135013C0143014B0120
:101E340052015A0161016801700177017E01850137
:101E44008D0194019B01A201A901B001B701BE015A
:101E5400C501CC01D301DA01E101E801EF01F6018A
:101E6400FD0103020A02110217021E0225022B02BF
:101E7400320238023F0245024B02520258025E020D
:101E840064026B02710277027D02830289028F026F
:101E940095029B02A102A602AC02B202B702BD02E5
:101EA400C302C802CE02D302D802DE02E302E80271
:101EB400EE02F302F802FD02020307030C0311030E
:101EC40016031A031F03240329032D0332033603C5
:101ED4003B033F03430348034C0350035403580399
:101EE4005C036003640368036C0370037303770388
:101EF4007B037E038203850388038C038F03920391
:101F0400950398039B039E03A103A403A703AA03B9
:101F1400AC03AF03B203B403B703B903BB03BE03FB
:101F2400C003C203C403C603C803CA03CC03CE035D
:101F3400CF03D103D303D403D603D703D903DA03DE
:101F4400DB03DC03DE03DF03E003E103E103E2037D
:101F5400E303E403E403E503E603E603E603E7033C
:101F6400E703E703E703E703E80301CDCCCC3DEF48
:101F7400071B08470873080503017469656D706FD2
:101F84003B6572726F723B696E74656772616C3B1C
:101F940064657269766164613B736574506F696EE0
:0C1FA400740A006461746F733A2000003E
:00000001FF
