:100000000C9434000C9433090C94F2080C945100B5
:100010000C9451000C9451000C9451000C947409F0
:100020000C9451000C9451000C9451000C94CE038C
:100030000C9410040C9451000C94080A0C94510078
:100040000C9451000C9451000C94B90B0C94520B6D
:100050000C9451000C945C0A0C9451000C945100C7
:100060000C9451000C94510011241FBECFEFD8E026
:10007000DEBFCDBF12E0A0E0B1E0ECE0FDE102C0E8
:1000800005900D92AC3DB107D9F724E0ACEDB2E09C
:1000900001C01D92AA3BB207E1F70E9402030C9433
:1000A000840E0C9400008AB18F778AB98BB1806876
:1000B0008BB984B18E7F84B985B1816085B908958B
:1000C0004F9B10C01092E0028091E1028F5F8093FD
:1000D000E1028031E0F081E08093DE0284E68093EB
:1000E000E10215C01092E1028091E0028F5F8093DF
:1000F000E002803128F01092DE0284E68093E00274
:100100008091E0028D3019F481E08093DC0218992F
:100110000BC08091DF028F5F8093DF028B3030F065
:1001200081E08093DD0208951092DF02089561E07E
:100130008AEA92E00E943E0B08958F929F92AF92BE
:10014000BF92CF92DF92EF92FF92CF93DF936B013A
:100150007C01EA01672B682B692B61F43BC0C50168
:10016000B4012AE030E040E050E00E944E0E490128
:100170005A0109C00F2E812CFAEC9F2EFAE9AF2EFE
:10018000FBE3BF2EF02DC701B601A50194010E942B
:100190004E0E232B242B252B11F316C0C701B601BD
:1001A000A50194010E944E0E205D2993C62ED72EE4
:1001B000E82EF92EC501B4012AE030E040E050E01D
:1001C0000E944E0E49015A0181149104A104B10408
:1001D00029F702C080E389931882DF91CF91FF90C5
:1001E000EF90DF90CF90BF90AF909F908F90089549
:1001F000CF93DF93FC01EB0199232CF4F195E1956A
:10020000F1098DE28993309741F422C0C9016AE077
:1002100070E00E943A0E9B0102C020E137E2CF015C
:10022000B9010E943A0E672B89F30EC0CF01B901C4
:100230000E943A0E605D6993E82FF92FC9016AE0C8
:1002400070E00E943A0E9B01121613067CF302C066
:1002500080E389931882DF91CF910895CF93DF9344
:10026000CDB7DEB76F970FB6F894DEBF0FBECDBF28
:100270000E94190B8F3D20F081E08093E20206C0BE
:100280000E94190B883210F41092E2028091E2026F
:10029000882309F45AC00E94A409AE014F5F5F4F42
:1002A0000E949D006AE0CE0101960E943E0B8BE306
:1002B0000E94240B0E94BF04BE01675E7F4F0E9414
:1002C000F80067E0CE0149960E943E0B8BE30E9446
:1002D000240B0E94B304BE016E5E7F4F0E94F800A3
:1002E00067E0CE0142960E943E0B8BE30E94240BF6
:1002F0000E94A704BE01655F7F4F0E94F80067E07F
:10030000CE010B960E943E0B8BE30E94240B0E94B1
:10031000880ABC0180E090E00E94160D2DEC3CECB8
:1003200044E551E40E94CD0D0E94E00CDC01CB01BC
:10033000BE01675E7F4F0E94F80067E0CE014996DC
:100340000E943E0B8AE00E94240B6F960FB6F89431
:10035000DEBF0FBECDBFDF91CF9108953F924F9288
:100360005F926F927F928F929F92AF92BF92CF9245
:10037000DF92EF92FF920F931F93CF93DF93CDB74E
:10038000DEB7C254D1090FB6F894DEBF0FBECDBFA1
:10039000CE0101960E948A0B882309F41AC1FE013E
:1003A000F39680E1DF011D928A95E9F76AE083ED1B
:1003B00092E00E943E0B6AE0CE0101960E943E0B45
:1003C000E12CF12CC4C0BDE23B1205C0B7FAB094D9
:1003D000B7F8B0942FC0C32CD12CE0E3CE1AD108CB
:1003E0000E2D10E0000F111F000F111F81E090E093
:1003F0008C0F9D1F080F191FD801D2966D917D910A
:100400008D919C91D59720E030E040E251E40E942C
:10041000CD0D2B013C01B601DD0C880B990B0E9420
:10042000180DA30192010E94FD0BF80162AB73ABA2
:1004300084AB95AB832D0E94240BF39408C00F2E40
:10044000812C912CF0E8AF2EFFE3BF2EF02DE1E0E0
:10045000F0E0EC0FFD1FEF0DF11D3080FCE23F16C8
:1004600009F447C08EE2381609F443C090E2391609
:1004700009F43FC03110A7CF3CC00E32C9F10C3295
:10048000B9F110E000531109CE2CD12CCC0CDD1C9D
:10049000CC0CDD1CA1E0B0E0AC0FBD1FCA0EDB1E12
:1004A000F60162A973A984A995A920E030E040E291
:1004B00051E40E94CD0D2B013C01B801110F880BB6
:1004C000990B0E94180DA30192010E94FD0BD60109
:1004D000D2966D937D938D939C93D59720E030E0D9
:1004E00040E251E4C501B4010E94CD0D4B015C0115
:1004F000F394E1E0F0E0EC0FFD1FEF0DF11D008142
:10050000003211F00111B9CFCE2CD12CCC0CDD1C56
:10051000CC0CDD1CE1E0F0E0EC0FFD1FCE0EDF1E89
:10052000D601D2966D917D918D919C91D597A50123
:1005300094010E946E0CF60162AB73AB84AB95AB79
:10054000E394003221F4802F0E94240BF394E1E025
:10055000F0E0EC0FFD1FEF0DF11D808181116FCFD9
:100560006BA97CA98DA99EA923E333E343E451EC55
:100570000E94690C811104C08BB180648BB903C0E7
:100580008BB18F7B8BB9F4E0EF1223C06BA97CA9F0
:100590008DA99EA90E949D056FA978AD89AD9AADE0
:1005A0000E948B056BAD7CAD8DAD9EAD0E94940518
:1005B00023966CAD7DAD8EAD9FAD23970E94E70C69
:1005C000162F862F90E00E94A60580E3810F0E94DF
:1005D000240BCE5BDF4F0FB6F894DEBF0FBECDBF4E
:1005E000DF91CF911F910F91FF90EF90DF90CF900F
:1005F000BF90AF909F908F907F906F905F904F9043
:100600003F9008950E94FF0A0E94AD030E94C50812
:100610000E94720A0E9453008AB180628AB978945B
:100620000E9497000E94FF090E94DE09FDCFBC01D5
:10063000009761F485B18770886385B981E0809304
:1006400000018093010160E07AEF66C0992384F491
:100650008FEF8093E4027195619571098091E302B7
:10066000813011F4809301018FEF8093E3020DC07C
:1006700081E08093E4028091E3028F3F19F481E0EE
:100680008093010181E08093E302653F81E0780778
:100690005CF088E199E70E943A0E80E180930001C6
:1006A00085B1877085B938C06B3F710564F088E902
:1006B0009AE30E943A0E88E08093000185B187702A
:1006C000806285B929C06E37710564F08CE49DE1C4
:1006D0000E943A0E84E08093000185B187708061AA
:1006E00085B91AC06034710564F086EA9EE00E9404
:1006F0003A0E82E08093000185B18770806385B9EE
:100700000BC083E597E00E943A0E81E080930001E0
:1007100085B18770886385B980910101882321F0B4
:10072000645C7F4F1092010120918400309185001C
:10073000CB0101978217930758F470938900609357
:100740008800625071097093850060938400089559
:100750007093890060938800089584B18E6384B992
:100760008AB180688AB9109280008DE08093810000
:1007700086E086BB20E130E030938B0020938A0036
:1007800020E737E1309389002093880080936F0041
:1007900008958091E5029091E60208951F920F92CC
:1007A0000FB60F9211242F933F938F939F93309105
:1007B000E402209100018091E5029091E60232026C
:1007C000800D911D11248033954308F53091E4028A
:1007D000209100018091E5029091E6023202800DA5
:1007E000911D1124892B99F085B1846085B93091D0
:1007F000E402209100018091E5029091E60232022C
:10080000800D911D11249093E6028093E5029F9143
:100810008F913F912F910F900FBE0F901F901895C1
:100820001F920F920FB60F9211248F9385B18B7F79
:1008300085B98091E402813019F485B18D7F85B945
:100840008091E4028F3F19F485B1826085B98F9160
:100850000F900FBE0F901F90189568EE72E08CEE0F
:1008600092E00E940A08E091E702F0E0EE0FFF1F1D
:10087000EE5FFE4F0190F081E02D09956093FA0242
:100880007093FB028093FC029093FD022091DC02A6
:10089000222361F020919A02222319F010929A02E9
:1008A00003C021E020939A021092DC0220919A0268
:1008B0002223A1F120E030E04AE754E40E94C80D71
:1008C000181664F480E090E0AAE7B4E48093FA029A
:1008D0009093FB02A093FC02B093FD026091FA0298
:1008E0007091FB028091FC029091FD0220E030E0CB
:1008F0004AE754EC0E94690C882364F480E090E09D
:10090000AAE7B4EC8093FA029093FB02A093FC0256
:10091000B093FD028BB180628BB90BC01092FA02CA
:100920001092FB021092FC021092FD028BB18F7D9F
:100930008BB96091FA027091FB028091FC02909158
:10094000FD020E94E00CCB010E9417030895609104
:10095000EE027091EF028091F0029091F1020E94FC
:10096000E00CCB0108956091F6027091F70280913E
:10097000F8029091F9020E94E00CCB010895809159
:10098000EA029091EB020895BC01990F880B990B34
:100990000E94180D2091FE023091FF024091000349
:1009A000509101030E94CD0D2091F6023091F70283
:1009B0004091F8025091F9020E94FD0B6093F602FB
:1009C0007093F7028093F8029093F90220E836E9D9
:1009D00048E15BE40E94C80D181664F480E896E9CB
:1009E000A8E1BBE48093F6029093F702A093F8028B
:1009F000B093F9026091F6027091F7028091F802CB
:100A00009091F90220E836E948E15BEC0E94690C1C
:100A1000882364F480E896E9A8E1BBEC8093F602B1
:100A20009093F702A093F802B093F90208956091B1
:100A3000E8027091E902072E000C880B990B0E94C6
:100A4000180D6093EE027093EF028093F002909382
:100A5000F1020895CF92DF92EF92FF928091EC0223
:100A60009091ED029093EB028093EA020E941705A9
:100A70008091EC029091ED020E94C4046091EC021E
:100A80007091ED02072E000C880B990B0E94180D37
:100A900020919B0230919C0240919D0250919E02B8
:100AA0000E94CD0D6B017C012091EE023091EF028E
:100AB0004091F0025091F1026091020370910303A2
:100AC00080910403909105030E94CD0D9B01AC0120
:100AD000C701B6010E94FD0B6B017C012091F6025B
:100AE0003091F7024091F8025091F9026091FE02B4
:100AF0007091FF0280910003909101030E94CD0D3F
:100B00009B01AC01C701B6010E94FD0BFF90EF9065
:100B1000DF90CF9008956093FE027093FF02809360
:100B200000039093010308956093020370930303FD
:100B30008093040390930503089560939B02709340
:100B40009C0280939D0290939E0208959091E702EB
:100B5000981751F08093E7021092F6021092F70274
:100B60001092F8021092F902089560E273E00E9478
:100B70003A0E992314F4805E9C4F803921E092074D
:100B8000DCF060E971E00E943A0E893C91054CF07E
:100B900028EC30E0B9010E943A0EA901481B590B1C
:100BA000CA01880F991FFC01E85FFE4F8081918187
:100BB000919581959109089560E971E00E943A0E3E
:100BC000893C91054CF028EC30E0B9010E943A0EC6
:100BD000A901481B590BCA01880F991FFC01E85F46
:100BE000FE4F808191810895CF92DF92EF92FF9224
:100BF000CF938091EC029091ED0260E273E00E944D
:100C00003A0E9093ED028093EC02992334F4805EC7
:100C10009C4F9093ED028093EC028091EC029091B6
:100C2000ED029C012F5531402336310510F0C1E013
:100C300001C0CFEF0E94B5059093ED028093EC02C6
:100C40009093EB028093EA020E9417058091EC02D8
:100C50009091ED020E94C4046C2FCC0F770B880B8F
:100C6000990B0E94180D20919B0230919C0240919B
:100C70009D0250919E020E94CD0D6B017C016091FE
:100C8000EC027091ED02072E000C880B990B0E946C
:100C9000180DA70196010E94CD0D6B017C0120E08B
:100CA00030E44CE955E460910203709103038091B4
:100CB0000403909105030E94CD0D2091EE02309126
:100CC000EF024091F0025091F1020E946E0C9B01E4
:100CD000AC01C701B6010E94FD0B6B017C012091A4
:100CE000F6023091F7024091F8025091F9026091BA
:100CF000FE027091FF0280910003909101030E9417
:100D0000CD0D9B01AC01C701B6010E94FD0BCF9137
:100D1000FF90EF90DF90CF900895CF92DF92EF9207
:100D2000FF92CF93DF938091EC029091ED020E94AD
:100D3000B5059093ED028093EC020E94880ABC01F5
:100D400080E090E00E94160D2DEC3CEC44E551E46F
:100D50000E94CD0D6093F2027093F3028093F4022F
:100D60009093F5026091EC027091ED02072E000C59
:100D7000880B990B0E94180D20E030E040ED50E404
:100D80000E94CD0D0E94E00C7093ED026093EC0286
:100D90000E94C903C091EC02D091ED028C0F9D1FFF
:100DA0009093EB028093EA020E94C9039E01281BE4
:100DB000390BC9010E941705C090F202D090F302CE
:100DC000E090F402F090F5020E94C903BC0180E0BB
:100DD00090E00E94160D9B01AC01C701B6010E9474
:100DE000FC0B6B017C016091EC027091ED02072E0F
:100DF000000C880B990B0E94180DA70196010E9408
:100E0000FD0B0E94E00C7093ED026093EC02CB01AD
:100E10000E94C4046091EC027091ED02072E000C58
:100E2000880B990B0E94180D20919B0230919C0217
:100E300040919D0250919E020E94CD0D6B017C015C
:100E40002091EE023091EF024091F0025091F102B8
:100E50006091020370910303809104039091050354
:100E60000E94CD0D9B01AC01C701B6010E94FD0B94
:100E70006B017C012091F6023091F7024091F8025B
:100E80005091F9026091FE027091FF02809100037F
:100E9000909101030E94CD0D9B01AC01C701B601E9
:100EA0000E94FD0BDF91CF91FF90EF90DF90CF90EC
:100EB000089580910E03882391F0809118039091FA
:100EC0001903019790931903809318038FEF9FEFF5
:100ED000909313038093120382E080930603809122
:100EE0000F03882389F080911803909119030196CC
:100EF000909319038093180381E090E0909313037B
:100F00008093120380930603089580910E03882333
:100F100091F0809118039091190301969093190311
:100F20008093180381E090E0909313038093120361
:100F300083E08093060380910F03811111C080919B
:100F40001803909119030197909319038093180344
:100F50008FEF9FEF90931303809312031092060379
:100F6000089580910E03811111C080911803909112
:100F700019030196909319038093180381E090E080
:100F800090931303809312031092060380910F0332
:100F9000882391F080911803909119030197909301
:100FA0001903809318038FEF9FEF9093130380939F
:100FB000120383E080930603089580910E0381114C
:100FC00012C080911803909119030197909319030F
:100FD000809318038FEF9FEF909313038093120376
:100FE00081E08093060380910F03811112C08091EC
:100FF0001803909119030196909319038093180395
:1010000081E090E0909313038093120382E0809339
:1010100006030895CF93DF93EB01209118033091DD
:101020001903FC0131832083209709F44FC060919C
:101030000B0370910C038091090390910A03680FD0
:10104000791F772314F46F5F7F4F9B0135952795A8
:10105000E0911203F091130380911003909111031A
:10106000E817F90759F580910703909108032817AD
:10107000390781F030930803209307032E9FC001A6
:101080002F9F900D3E9F900D11249983888310927D
:101090000D0318C0809116039091170365E070E06E
:1010A0000E943A0E620F731FE69FC001E79F900DEA
:1010B000F69F900D11249983888304C080E89EE3F5
:1010C00099838883F0931103E0931003DF91CF910C
:1010D000089590910E0380910F03892319F083E006
:1010E0008093060320910E0381E090E0222311F00B
:1010F00080E090E020910F0330E082239323892B3E
:1011000019F082E08093060320910E0330910F03C3
:1011100081E090E0332311F080E090E030E0822322
:101120009323892B19F081E08093060380910E03AD
:1011300020910F0391E0811190E081E0211180E086
:10114000892311F0109206032FEF80E792E02150DF
:1011500080409040E1F700C0000089B18870809322
:101160000F0389B1847080930E03E0910603F0E0D1
:10117000EE0FFF1FE156FD4F0190F081E02D099524
:10118000109219031092180308958AB18B7F8AB9BF
:101190008BB184608BB98AB1877F8AB98BB1886043
:1011A0008BB98DB381608DBBE9E6F0E08081816011
:1011B000808380818D7F80838DB382608DBB8081B1
:1011C000846080838081877F808382E08093B00009
:1011D00094E09093B1009093B300809370000E94CC
:1011E000690808951F920F920FB60F9211242F9342
:1011F0003F934F935F936F937F938F939F93AF939F
:10120000BF93EF93FF9380911403909115039093F4
:101210000A0380930903109215031092140389B1F5
:10122000887080930F0389B1847080930E03E091DE
:101230000603F0E0EE0FFF1FE156FD4F0190F08135
:10124000E02D0995FF91EF91BF91AF919F918F9103
:101250007F916F915F914F913F912F910F900FBEB2
:101260000F901F9018951F920F920FB60F92112496
:101270002F933F934F935F936F937F938F939F939E
:10128000AF93BF93EF93FF93809116039091170351
:1012900090930C0380930B03109217031092160384
:1012A00089B1887080930F0389B1847080930E0395
:1012B000E0910603F0E0EE0FFF1FE156FD4F0190B5
:1012C000F081E02D0995FF91EF91BF91AF919F9132
:1012D0008F917F916F915F914F913F912F910F90DF
:1012E0000FBE0F901F9018951F920F920FB60F927E
:1012F00011242F938F939F9380911603909117033E
:1013000080389C4049F08091160390911703019614
:101310009093170380931603809114039091150303
:1013200080389C4049F080911403909115030196F8
:1013300090931503809314039F918F912F910F9099
:101340000FBE0F901F90189560911A0370911B03A8
:1013500080911C0390911D030895809127038F5F56
:1013600080932703823029F481E080932403109234
:1013700027038091A9028F5F8093A902843129F409
:1013800081E0809325031092A9028091A8028F5FCB
:101390008093A8028A3029F481E08093230310927D
:1013A000A8028091A7028F5F8093A702883229F458
:1013B00081E0809322031092A70208958091240374
:1013C000882321F00E942D0410922403809125038C
:1013D000882321F00E942E0110922503809123037F
:1013E000882321F00E946000109223038091220341
:1013F000882321F00E94AE0110922203089582E01A
:1014000084BD93E095BD9CE797BD80936E000895E1
:101410001F920F920FB60F9211242F933F934F9369
:101420005F936F937F938F939F93AF93BF93EF934C
:10143000FF930E94AD0980911E0390911F03A0911C
:101440002003B09121030196A11DB11D80931E03BD
:1014500090931F03A0932003B09321038091260350
:1014600091E0980F909326038330A8F080911A039F
:1014700090911B03A0911C03B0911D030196A11D27
:10148000B11D80931A0390931B03A0931C03B09388
:101490001D0310922603FF91EF91BF91AF919F9191
:1014A0008F917F916F915F914F913F912F910F900D
:1014B0000FBE0F901F9018951F920F920FB60F92AC
:1014C00011248F939F93809178009091790090934D
:1014D0006A03809369039F918F910F900FBE0F90C5
:1014E0001F90189587B18E7F87B988B18E7F88B994
:1014F00081E080937E00EAE7F0E08FEA8083ACE74A
:10150000B0E08C9180648C938081806480830895A6
:10151000CF93DF939091280381E0963908F480E01F
:101520002AE6829F900D112490932803809128032E
:1015300090E001966FE070E00E943A0E80932803DD
:10154000C0912803D0E0CC0FDD1FCC0FDD1FC35DA1
:10155000DC4F6091690370916A03072E000C880BC1
:10156000990B0E94180D688379838A839B8310925C
:10157000290310922A0310922B0310922C03C0E02F
:1015800028C08091280390E00F968C1B91096FE092
:1015900070E00E943A0EFC01EE0FFF1FEE0FFF1FDE
:1015A000E35DFC4F608171818281938120912903E9
:1015B00030912A0340912B0350912C030E94FD0B84
:1015C0006093290370932A0380932B0390932C0339
:1015D000CF5FCF30B0F220E030E040E751E46091DF
:1015E000290370912A0380912B0390912C030E9470
:1015F0006E0C0E94E70CCB01DF91CF91089586E03D
:101600008093C20083E08093C400E1ECF0E080812D
:10161000806180838081806880838081886080830E
:10162000808180628083E0ECF0E080818062808352
:1016300008959091D2038091D303981718F0891BD5
:101640008A510895891B0895482F2091D20330E0D4
:10165000C901019666EE70E00E943A0E9091D303A4
:10166000981759F0F901EC52FC4F40838093D20354
:10167000E1ECF0E080818062808308951F93CF9336
:10168000DF93EC01162F0E94190B181720F006C0EB
:101690000E94240B219688818111FACFDF91CF918E
:1016A0001F9108951F920F920FB60F9211245F930E
:1016B0006F937F938F939F93AF93BF93EF93FF931A
:1016C000E091D3038091D203E81789F0F0E0EC5267
:1016D000FC4F80818093C6008091D30390E00196F7
:1016E00066EE70E00E943A0E8093D30305C0E1ECF1
:1016F000F0E080818F7D8083FF91EF91BF91AF916A
:101700009F918F917F916F915F910F900FBE0F907E
:101710001F901895CF93DF93EC0180916B03882382
:1017200021F1F89420E011C0FE01E20FF11D90E0DC
:10173000DC01A259BC4F3C913083019664E670E015
:101740000E943A0E80936D032F5F90916C038091FD
:101750006D03981711F0233638F310926B037894C9
:10176000C20FD11D188281E001C080E0DF91CF91CE
:1017700008951F920F920FB60F9211242F933F934B
:101780005F936F937F938F939F93AF93BF93EF93E9
:10179000FF9380916C0390E0019664E670E00E94F4
:1017A0003A0E9091C60020916D032817A9F09A3047
:1017B00011F09D3021F481E080936B030DC03091D6
:1017C0006B03311120936C03E0916C03F0E0E2595C
:1017D000FC4F908380936C03FF91EF91BF91AF9189
:1017E0009F918F917F916F915F913F912F910F907A
:1017F0000FBE0F901F9018955058BB27AA270E9424
:10180000140C0C948E0D0E94800D38F00E94870DF0
:1018100020F039F49F3F19F426F40C947D0D0EF45A
:10182000E095E7FB0C94770DE92F0E949F0D58F38C
:10183000BA17620773078407950720F079F4A6F5B5
:101840000C94C10D0EF4E0950B2EBA2FA02D0B01B8
:10185000B90190010C01CA01A0011124FF27591BF5
:1018600099F0593F50F4503E68F11A16F040A22FFB
:10187000232F342F4427585FF3CF4695379527956C
:10188000A795F0405395C9F77EF41F16BA0B620B6B
:10189000730B840BBAF09150A1F0FF0FBB1F661FB2
:1018A000771F881FC2F70EC0BA0F621F731F841FF5
:1018B00048F4879577956795B795F7959E3F08F01B
:1018C000B0CF9395880F08F09927EE0F97958795DD
:1018D00008950E94530D08F481E008950E94820C3F
:1018E0000C948E0D0E94870D58F00E94800D40F0E0
:1018F00029F45F3F29F00C94770D51110C94C20D1F
:101900000C947D0D0E949F0D68F39923B1F355232C
:1019100091F3951B550BBB27AA2762177307840702
:1019200038F09F5F5F4F220F331F441FAA1FA9F398
:1019300035D00E2E3AF0E0E832D091505040E69586
:10194000001CCAF72BD0FE2F29D0660F771F881FE7
:10195000BB1F261737074807AB07B0E809F0BB0BDA
:10196000802DBF01FF2793585F4F3AF09E3F5105EE
:1019700078F00C94770D0C94C20D5F3FE4F3983E21
:10198000D4F3869577956795B795F7959F5FC9F7D7
:10199000880F911D9695879597F90895E1E0660F58
:1019A000771F881FBB1F621773078407BA0720F0D1
:1019B000621B730B840BBA0BEE1F88F7E09508953A
:1019C0000E94E70C6894B1110C94C20D08950E9416
:1019D000A70D88F09F5798F0B92F9927B751B0F00D
:1019E000E1F0660F771F881F991F1AF0BA95C9F7A3
:1019F00014C0B13091F00E94C10DB1E008950C9473
:101A0000C10D672F782F8827B85F39F0B93FCCF325
:101A1000869577956795B395D9F73EF4909580951F
:101A2000709561957F4F8F4F9F4F0895E89409C03F
:101A300097FB3EF490958095709561957F4F8F4F01
:101A40009F4F9923A9F0F92F96E9BB279395F69517
:101A5000879577956795B795F111F8CFFAF4BB0F95
:101A600011F460FF1BC06F5F7F4F8F4F9F4F16C0F9
:101A7000882311F096E911C0772321F09EE8872F83
:101A8000762F05C0662371F096E8862F70E060E03F
:101A90002AF09A95660F771F881FDAF7880F9695B8
:101AA000879597F90895990F0008550FAA0BE0E85C
:101AB000FEEF16161706E807F907C0F01216130610
:101AC000E407F50798F0621B730B840B950B39F450
:101AD0000A2661F0232B242B252B21F408950A26B6
:101AE00009F4A140A6958FEF811D811D089597F9F6
:101AF0009F6780E870E060E008959FEF80EC0895B4
:101B000000240A94161617061806090608950024DC
:101B10000A9412161306140605060895092E039456
:101B2000000C11F4882352F0BB0F40F4BF2B11F4CA
:101B300060FF04C06F5F7F4F8F4F9F4F089557FD29
:101B40009058440F551F59F05F3F71F04795880F2B
:101B500097FB991F61F09F3F79F0879508951216C2
:101B600013061406551FF2CF4695F1DF08C016166E
:101B700017061806991FF1CF86957105610508941F
:101B80000895E894BB2766277727CB0197F9089536
:101B90000E94530D08F48FEF08950E94E00D0C94FD
:101BA0008E0D0E94800D38F00E94870D20F0952345
:101BB00011F00C94770D0C947D0D11240C94C20D32
:101BC0000E949F0D70F3959FC1F3950F50E0551F34
:101BD000629FF001729FBB27F00DB11D639FAA2782
:101BE000F00DB11DAA1F649F6627B00DA11D661FD1
:101BF000829F2227B00DA11D621F739FB00DA11DF2
:101C0000621F839FA00D611D221F749F3327A00DAB
:101C1000611D231F849F600D211D822F762F6A2F47
:101C200011249F5750409AF0F1F088234AF0EE0FAC
:101C3000FF1FBB1F661F771F881F91505040A9F7D9
:101C40009E3F510580F00C94770D0C94C20D5F3FC0
:101C5000E4F3983ED4F3869577956795B795F79515
:101C6000E7959F5FC1F7FE2B880F911D969587958D
:101C700097F9089597FB072E16F4009407D077FD87
:101C800009D00E94700E07FC05D03EF49095819516
:101C90009F4F0895709561957F4F0895A1E21A2E88
:101CA000AA1BBB1BFD010DC0AA1FBB1FEE1FFF1F00
:101CB000A217B307E407F50720F0A21BB30BE40B50
:101CC000F50B661F771F881F991F1A9469F7609597
:101CD0007095809590959B01AC01BD01CF01089551
:101CE000AA1BBB1B51E107C0AA1FBB1FA617B70742
:101CF00010F0A61BB70B881F991F5A95A9F780955E
:0C1D00009095BC01CD010895F894FFCF30
:101D0C000101F4052A058D06000007000F001700DD
:101D1C001F0027002F0036003E0046004E005600E4
:101D2C005E0065006D0075007D0085008C009400E0
:101D3C009C00A400AB00B300BB00C300CA00D200DF
:101D4C00DA00E100E900F100F800000107010F01E1
:101D5C0016011E0126012D0135013C0143014B01E9
:101D6C0052015A0161016801700177017E01850100
:101D7C008D0194019B01A201A901B001B701BE0123
:101D8C00C501CC01D301DA01E101E801EF01F60153
:101D9C00FD0103020A02110217021E0225022B0288
:101DAC00320238023F0245024B02520258025E02D6
:101DBC0064026B02710277027D02830289028F0238
:101DCC0095029B02A102A602AC02B202B702BD02AE
:101DDC00C302C802CE02D302D802DE02E302E8023A
:101DEC00EE02F302F802FD02020307030C031103D7
:101DFC0016031A031F03240329032D03320336038E
:101E0C003B033F03430348034C0350035403580361
:101E1C005C036003640368036C0370037303770350
:101E2C007B037E038203850388038C038F03920359
:101E3C00950398039B039E03A103A403A703AA0382
:101E4C00AC03AF03B203B403B703B903BB03BE03C4
:101E5C00C003C203C403C603C803CA03CC03CE0326
:101E6C00CF03D103D303D403D603D703D903DA03A7
:101E7C00DB03DC03DE03DF03E003E103E103E20346
:101E8C00E303E403E403E503E603E603E603E70305
:101E9C00E703E703E703E703E80301CDCCCC3D59A7
:101EAC00078507B107DD070503017469656D706F60
:101EBC003B6572726F723B696E74656772616C3BE5
:101ECC0064657269766164613B736574506F696EA9
:0C1EDC00740A006461746F733A20000007
:00000001FF
