S0110000477275614D656A6F722E7372656387
S11300000C9434000C94740A0C94330A0C9451002C
S11300100C9451000C9451000C9451000C94B50AAA
S11300200C9451000C9451000C9451000C9408044D
S11300300C944A040C9451000C94490B0C945100F8
S11300400C9451000C9451000C94FA0C0C94930CE5
S11300500C9451000C949D0B0C9451000C94510081
S11300600C9451000C94510011241FBECFEFD8E022
S1130070DEBFCDBF12E0A0E0B1E0EEE8FFE102C0D8
S113008005900D92A03EB107D9F724E0A0EEB2E0AE
S113009001C01D92A83FB207E1F70E946E020C94C2
S11300A0C50F0C9400008AB18F778AB98BB1806830
S11300B08BB984B18E7F84B985B1816085B9089587
S11300C04F9B10C01092E6028091E7028F5F8093ED
S11300D0E7028031E0F081E08093E30284E68093DC
S11300E0E70215C01092E7028091E6028F5F8093C9
S11300F0E602803128F01092E30284E68093E6025F
S11301008091E6028D3019F481E08093E102189920
S11301100DC01092E4028091E5028F5F8093E502A6
S11301208031B8F081E08093E20208958091E40286
S11301308F5F8093E402803128F01092E20284E61B
S11301408093E4028091E4028D3019F481E080937D
S1130150E002089561E08EEA92E00E947F0C089527
S11301600E945A0C8F3D20F081E08093E8020895AC
S11301700E945A0C883210F41092E80208958F926B
S11301809F92AF92BF92CF92DF92EF92FF92CF9362
S1130190DF936B017C01EA01672B682B692B61F407
S11301A03BC0C501B4012AE030E040E050E00E94C9
S11301B0A30F49015A0109C00F2E812CFAEC9F2E7E
S11301C0FAE9AF2EFBE3BF2EF02DC701B601A5015E
S11301D094010E94A30F232B242B252B11F316C06B
S11301E0C701B601A50194010E94A30F205D2993C4
S11301F0C62ED72EE82EF92EC501B4012AE030E030
S113020040E050E00E94A30F49015A018114910477
S1130210A104B10429F702C080E389931882DF9115
S1130220CF91FF90EF90DF90CF90BF90AF909F90D1
S11302308F9008953F924F925F926F927F928F9228
S11302409F92AF92BF92CF92DF92EF92FF920F9361
S11302501F93CF93DF93CDB7DEB7C254D1090FB646
S1130260F894DEBF0FBECDBFCE0101960E94CB0C29
S1130270882309F41AC1FE01F39680E1DF011D927F
S11302808A95E9F76AE087ED92E00E947F0C6AE0C4
S1130290CE0101960E947F0CE12CF12CC4C0BDE27A
S11302A03B1205C0B7FAB094B7F8B0942FC0C32C72
S11302B0D12CE0E3CE1AD1080E2D10E0000F111F4F
S11302C0000F111F81E090E08C0F9D1F080F191F74
S11302D0D801D2966D917D918D919C91D59720E016
S11302E030E040E251E40E940E0F2B013C01B601C4
S11302F0DD0C880B990B0E94590EA30192010E94F8
S11303003E0DF80162AB73AB84AB95AB832D0E94B9
S1130310650CF39408C00F2E812C912CF0E8AF2EBD
S1130320FFE3BF2EF02DE1E0F0E0EC0FFD1FEF0D39
S1130330F11D3080FCE23F1609F447C08EE2381606
S113034009F443C090E2391609F43FC03110A7CF35
S11303503CC00E32C9F10C32B9F110E0005311095E
S1130360CE2CD12CCC0CDD1CCC0CDD1CA1E0B0E0DF
S1130370AC0FBD1FCA0EDB1EF60162A973A984A9C6
S113038095A920E030E040E251E40E940E0F2B01D9
S11303903C01B801110F880B990B0E94590EA3015F
S11303A092010E943E0DD601D2966D937D938D935A
S11303B09C93D59720E030E040E251E4C501B401BC
S11303C00E940E0F4B015C01F394E1E0F0E0EC0FAE
S11303D0FD1FEF0DF11D0081003211F00111B9CFA5
S11303E0CE2CD12CCC0CDD1CCC0CDD1CE1E0F0E0DF
S11303F0EC0FFD1FCE0EDF1ED601D2966D917D91BE
S11304008D919C91D597A50194010E94AF0DF601A1
S113041062AB73AB84AB95ABE394003221F4802FD1
S11304200E94650CF394E1E0F0E0EC0FFD1FEF0D8A
S1130430F11D808181116FCF6BA97CA98DA99EA923
S113044023E333E343E451EC0E94AA0D811104C079
S11304508BB180648BB903C08BB18F7B8BB9F4E013
S1130460EF1223C06BA97CA98DA99EA90E946206E4
S11304706FA978AD89AD9AAD0E9436066BAD7CAD9F
S11304808DAD9EAD0E94590623966CAD7DAD8EADAB
S11304909FAD23970E94280E162F862F90E00E946E
S11304A06B0680E3810F0E94650CCE5BDF4F0FB6B5
S11304B0F894DEBF0FBECDBFDF91CF911F910F9196
S11304C0FF90EF90DF90CF90BF90AF909F908F9070
S11304D07F906F905F904F903F900895CF93DF93FC
S11304E0CDB7DEB72A970FB6F894DEBF0FBECDBFE7
S11304F00E94400C0E9416030E94060A0E94B30B3D
S11305000E9453008AB180628AB978940E94AA003A
S113051080E090E00E94BC020E94B4030E94400B61
S113052010E00E941F0B0E9432038436910540F4B0
S113053081E60E94650C0E94E50A6B017C0111E0D2
S11305400E943203813E9E4260F3112351F382E6FE
S11305500E94650C0E94E50A6C197D098E099F09A9
S1130560AE014F5F5F4F0E94BF006AE0CE0101966B
S11305700E947F0C10E0D5CFBC01009761F485B1D7
S11305808770886385B981E08093000180930101BD
S113059060E07AEF2AC0992384F48FEF8093EA0213
S11305A07195619571098091E902813011F480930C
S11305B001018FEF8093E9020DC081E08093EA028C
S11305C08091E9028F3F19F481E08093010181E079
S11305D08093E90288E199E70E948F0F81E080937C
S11305E0000185B18770886385B9809101018823F2
S11305F021F0645C7F4F10920101209184003091BE
S11306008500CB0101978217930758F470938900F2
S11306106093880062507109709385006093840030
S113062008957093890060938800089584B18E635F
S113063084B98AB180688AB9109280008BE0809373
S1130640810086E086BB21E030E030938B0020936C
S11306508A0020E737E13093890020938800809353
S11306606F0008958091EB029091EC020895882325
S11306703CF485B1826085B98FEF8093EA0206C0AD
S113068085B18D7F85B981E08093EA0285B184606C
S113069085B98FE39FE10197F1F700C0000085B1B0
S11306A08B7F85B98FE39FE10197F1F700C00000CC
S11306B00895CF93DF93EC0185B1877085B980E10C
S11306C0809300012FEF81EE94E021508040904010
S11306D0E1F700C00000CE0101978F329543E8F5A1
S11306E08091EB029091EC028C179D07A0F02EC034
S11306F081E00E9437033091EA0220910001809149
S1130700EB029091EC023202800D911D1124909322
S1130710EC028093EB028091EB029091EC028C1737
S11307209D0730F31AC08FEF0E9437033091EA021D
S1130730209100018091EB029091EC023202800D35
S1130740911D11249093EC028093EB028091EB02B3
S11307509091EC02C817D90730F380E090E00E9432
S1130760BC02DF91CF9108958AB18F7E8AB98BB193
S113077080618BB980E090E00E94BC028BB1806400
S11307808BB92FEF89E698E1215080409040E1F742
S113079000C0000085B1877085B980E180930001B5
S11307A003C08FEF0E9437034C99FBCF8BB18F7B33
S11307B08BB91092EC021092EB0282E390E00E945B
S11307C059032FEF89E698E1215080409040E1F7EA
S11307D000C000008BB18F7B8BB985B187708863B3
S11307E085B981E08093000103C08FEF0E94370335
S11307F04C99FBCF85B1877085B980E18093000166
S11308008BB18F7B8BB91092EC021092EB0208959E
S11308101F920F920FB60F9211242F933F938F9331
S11308209F933091EA02209100018091EB02909114
S1130830EC023202800D911D11248033954308F59A
S11308403091EA02209100018091EB029091EC0238
S11308503202800D911D1124892B99F085B1846099
S113086085B93091EA02209100018091EB029091C8
S1130870EC023202800D911D11249093EC028093BE
S1130880EB029F918F913F912F910F900FBE0F908C
S11308901F9018951F920F920FB60F9211248F93E9
S11308A085B18B7F85B98091EA02813019F485B1D5
S11308B08D7F85B98091EA028F3F19F485B18260FA
S11308C085B98F910F900FBE0F901F9018958F923E
S11308D09F92AF92BF92CF92DF92EF92FF926DEE12
S11308E072E081EF92E00E944A09E0919A02F0E0FE
S11308F0EE0FFF1FEE5FFE4F0190F081E02D099592
S113090060930F0370931003809311039093120369
S11309108091E102882361F080919C02882319F080
S113092010929C0203C081E080939C021092E10229
S11309308091E002882361F080919B02882319F062
S113094010929B0203C081E080939B021092E0020C
S113095080919C02882321F08BB180628BB90BC0FB
S113096010920F03109210031092110310921203AD
S11309708BB18F7D8BB980900F0390901003A09062
S11309801103B09012032AE939E949E95EE3C5018C
S1130990B4010E940E0F6B017C0120E030E844EDAD
S11309A054E40E94090F18164CF40F2EC12CF0E8E1
S11309B0DF2EF4EDEF2EF4E4FF2EF02D20E030E8EE
S11309C044ED54ECC701B6010E94AA0D88234CF4EF
S11309D00F2EC12CF0E8DF2EF4EDEF2EF4ECFF2EF9
S11309E0F02DA5019401C701B6010E94AA0D882328
S11309F044F4C0920F03D0921003E0921103F092DA
S1130A00120320910F033091100340911103509170
S1130A101203C701B6010E94090F181644F4C092CC
S1130A200F03D0921003E0921103F092120360912D
S1130A300F037091100380911103909112030E948F
S1130A40210ECB010E94BC02FF90EF90DF90CF906B
S1130A50BF90AF909F908F900895CF92DF92EF92C6
S1130A60FF92BC01990F880B990B0E94590E20919B
S1130A7013033091140340911503509116030E94FF
S1130A800E0F20910B0330910C0340910D035091F4
S1130A900E030E943E0D60930B0370930C0380932E
S1130AA00D0390930E03C090F302D090F402E090F3
S1130AB0F502F090F602A70196010E94090F18169C
S1130AC044F4C0920B03D0920C03E0920D03F09215
S1130AD00E03F7FAF094F7F8F09420910B03309199
S1130AE00C0340910D0350910E03C701B6010E94FF
S1130AF0090F181644F4C0920B03D0920C03E09231
S1130B000D03F0920E03FF90EF90DF90CF900895C5
S1130B10CF92DF92EF92FF926091ED027091EE021C
S1130B2080E29EE40E948F0F072E000C880B990B25
S1130B300E94590E2AE037ED43EA5CE30E940E0F4F
S1130B406B017C0128E431EE4AE75FE36091FF0228
S1130B507091000380910103909102030E940E0F93
S1130B609B01AC01C701B6010E943E0D6093FF02D8
S1130B70709300038093010390930203FF90EF901E
S1130B80DF90CF9008958F929F92AF92BF92CF92B1
S1130B90DF92EF92FF928091F1029091F202909392
S1130BA0F0028093EF020E9488058091F1029091F7
S1130BB0F2020E942D05C090FF02D0900003E09045
S1130BC00103F0900203C0920303D0920403E09265
S1130BD00503F09206036091F1027091F202072E70
S1130BE0000C880B990B0E94590E20919D023091A4
S1130BF09E0240919F025091A0020E940E0F4B0151
S1130C005C0120911703309118034091190350910E
S1130C101A03C701B6010E940E0F9B01AC01C50166
S1130C20B4010E943E0D6B017C0120910B033091B5
S1130C300C0340910D0350910E03609113037091C6
S1130C40140380911503909116030E940E0F9B01CB
S1130C50AC01C701B6010E943E0DFF90EF90DF90FA
S1130C60CF90BF90AF909F908F900895CF92DF92D6
S1130C70EF92FF926B017C019B01AC0160E070E894
S1130C8084ED94E40E94AF0D6093F3027093F40238
S1130C908093F5029093F602C0921303D09214034A
S1130CA0E0921503F0921603FF90EF90DF90CF903F
S1130CB00895609317037093180380931903909316
S1130CC01A03089560939D0270939E0280939F027D
S1130CD09093A002089590919A02981751F08093EE
S1130CE09A0210920B0310920C0310920D031092AF
S1130CF00E03089560E273E00E948F0F992314F4A9
S1130D00805E9C4F803921E09207DCF060E971E05D
S1130D100E948F0F893C91054CF028EC30E0B9011A
S1130D200E948F0FA901481B590BCA01880F991FF4
S1130D30FC01E85FFE4F8081918191958195910935
S1130D40089560E971E00E948F0F893C91054CF091
S1130D5028EC30E0B9010E948F0FA901481B590B00
S1130D60CA01880F991FFC01E85FFE4F80819181C1
S1130D700895CF92DF92EF92FF92CF93DF93EC012D
S1130D800E948805CE0188539F4F0E947A06EC0189
S1130D9020E030E04AE754E46091FF0270910003E0
S1130DA080910103909102030E94AF0D6B017C01BD
S1130DB0BE01DD0F880B990B0E94590EA701960105
S1130DC00E940E0F6093FB027093FC028093FD025D
S1130DD09093FE02DF91CF91FF90EF90DF90CF9040
S1130DE008958F929F92AF92BF92CF92DF92EF922B
S1130DF0FF92CF93E090F102F090F202F092F704A8
S1130E00E092F604C70160E273E00E948F0F9093B2
S1130E10F2028093F102992334F4805E9C4F909304
S1130E20F2028093F1028091F1029091F2029C010E
S1130E302F5531402336310510F0C1E001C0CFEF0A
S1130E400E947A069093F2028093F1029093F0024A
S1130E508093EF02C7010E94B9068091F10290913C
S1130E60F2020E942D058090FB029090FC02A0905B
S1130E70FD02B090FE028092030390920403A092BC
S1130E800503B09206036C2FCC0F770B880B990BDC
S1130E900E94590E20919D0230919E0240919F0222
S1130EA05091A0020E940E0F6B017C016091F1022F
S1130EB07091F202072E000C880B990B0E94590EB8
S1130EC0A70196010E940E0F6B017C01209117036C
S1130ED0309118034091190350911A03C501B401CC
S1130EE00E940E0F9B01AC01C701B6010E943E0D8A
S1130EF06B017C0120910B0330910C0340910D0395
S1130F0050910E03609113037091140380911503A3
S1130F10909116030E940E0F9B01AC01C701B6010C
S1130F200E943E0DCF91FF90EF90DF90CF90BF9045
S1130F30AF909F908F9008950E94B90621E338E006
S1130F4041E051E460910F0370911003809111030B
S1130F50909112030E940E0F2091FB023091FC022B
S1130F604091FD025091FE020E943E0D6093F702F3
S1130F707093F8028093F9029093FA020895CF9245
S1130F80DF92EF92FF928091F1029091F20290939E
S1130F90F7048093F6040E947A069093F2028093F9
S1130FA0F1020E94C90BBC0180E090E00E94570E40
S1130FB02DEC3CEC44E551E40E940E0F60930703D2
S1130FC0709308038093090390930A036091F102DC
S1130FD07091F202072E000C880B990B0E94590E97
S1130FE020E030E040ED50E40E940E0F0E94210EFC
S1130FF07093F2026093F1020E9432032091F10295
S11310003091F202820F931F9093F0028093EF02CB
S11310108091F6049091F7040E949C07C090070306
S1131020D0900803E0900903F0900A030E94320371
S1131030BC0180E090E00E94570E9B01AC01C70107
S1131040B6010E943D0D6B017C016091F10270912B
S1131050F202072E000C880B990B0E94590EA7016F
S113106096010E943E0D0E94210E7093F20260933D
S1131070F102C090F702D090F802E090F902F090EB
S1131080FA02C0920303D0920403E0920503F092A3
S11310900603CB010E942D056091F1027091F202CA
S11310A0072E000C880B990B0E94590E20919D026B
S11310B030919E0240919F025091A0020E940E0F17
S11310C06B017C01209103033091040340910503DB
S11310D050910603609117037091180380911903CE
S11310E090911A030E940E0F9B01AC01C701B60137
S11310F00E943E0D6B017C0120910B0330910C0387
S113110040910D0350910E036091130370911403E9
S113111080911503909116030E940E0F9B01AC0160
S1131120C701B6010E943E0DFF90EF90DF90CF9073
S1131130089580911C03882391F080912803909155
S11311402903019790932903809328038FEF9FEF3E
S11311509093AA028093A90282E080931B0380915A
S11311601D03882389F08091280390912903019617
S1131170909329038093280381E090E09093AA023E
S11311808093A90280931B03089580911C038823F4
S113119091F080912803909129030196909329035B
S11311A08093280381E090E09093AA028093A9029F
S11311B083E080931B0380911D03811111C08091F2
S11311C0280390912903019790932903809328037E
S11311D08FEF9FEF9093AA028093A90210921B03B2
S11311E0089580911C03811111C08091280390916E
S11311F029030196909329038093280381E090E0CA
S11312009093AA028093A90210921B0380911D035C
S1131210882391F08091280390912903019790935A
S11312202903809328038FEF9FEF9093AA02809362
S1131230A90283E080931B03089580911C0381110C
S113124012C0809128039091290301979093290358
S1131250809328038FEF9FEF9093AA028093A902B3
S113126081E080931B0380911D03811112C0809142
S113127028039091290301969093290380932803CE
S113128081E090E09093AA028093A90282E0809387
S11312901B030895FB012091280330912903DC01ED
S11312A02D933C93309709F454C02091220330913C
S11312B023038091200390912103280F391F40912B
S11312C0A9025091AA02249FC001259F900D349F2A
S11312D0900D112499230CF401969595879591838B
S11312E0808320911E0330911F038217930759F5C1
S11312F020912203309123038091200390912103B4
S1131300280F391F429FC001439F900D529F900D9B
S1131310112499230CF401969C013595279560912D
S1131320260370912703469FC001479F900D569F47
S1131330900D112499230CF4019695958795820FAD
S1131340931F918380838081918190931F03809365
S11313501E03089590911C0380911D03892319F0A5
S113136083E080931B0320911C0381E090E02223FF
S113137011F080E090E020911D0330E0822393235C
S1131380892B19F082E080931B0320911C03309178
S11313901D0381E090E0332311F080E090E030E021
S11313A082239323892B19F081E080931B0380917E
S11313B01C0320911D0391E0811190E081E0211133
S11313C080E0892311F010921B032FEF80E792E055
S11313D0215080409040E1F700C0000089B188703E
S11313E080931D0389B1847080931C03E0911B03D7
S11313F0F0E0EE0FFF1FEF55FD4F0190F081E02D5F
S11314000995109229031092280308958AB18B7FBD
S11314108AB98BB184608BB98AB1877F8AB98BB161
S113142088608BB98DB381608DBBE9E6F0E0808183
S11314308160808380818D7F80838DB382608DBB4A
S11314408081846080838081877F808382E0809331
S1131450B00094E09093B1009093B3008093700037
S11314600E94AA0908951F920F920FB60F92112499
S11314702F933F934F935F936F937F938F939F9398
S1131480AF93BF93EF93FF9380912403909125032F
S11314909093210380932003109225031092240338
S11314A089B1887080931D0389B1847080931C0373
S11314B0E0911B03F0E0EE0FFF1FEF55FD4F01908D
S11314C0F081E02D0995FF91EF91BF91AF919F912C
S11314D08F917F916F915F914F913F912F910F90D9
S11314E00FBE0F901F9018951F920F920FB60F9278
S11314F011242F933F934F935F936F937F938F9315
S11315009F93AF93BF93EF93FF93809126039091A2
S113151027039093230380932203109227031092AE
S1131520260389B1887080931D0389B184708093E8
S11315301C03E0911B03F0E0EE0FFF1FEF55FD4F7E
S11315400190F081E02D0995FF91EF91BF91AF914A
S11315509F918F917F916F915F914F913F912F91C7
S11315600F900FBE0F901F9018951F920F920FB6F9
S11315700F9211242F938F939F9380912603909120
S1131580270381159D4749F08091260390912703F5
S113159001969093270380932603809124039091CE
S11315A0250381159D4749F08091240390912503DB
S11315B0019690932503809324039F918F912F91FB
S11315C00F900FBE0F901F90189560912E0370918D
S11315D02F03809130039091310308958091370354
S11315E08F5F80933703823029F481E08093340342
S11315F0109237038091AD028F5F8093AD028431E6
S113160029F481E0809335031092AD028091AC02FD
S11316108F5F8093AC028A3029F481E08093330396
S11316201092AC028091AB028F5F8093AB02883240
S113163029F481E0809332031092AB0208958091E3
S11316403403882321F00E946704109234038091AC
S11316503503882321F00E94B00010923503809155
S11316603303882321F00E94600010923303809199
S11316703203882321F00E941A0110923203089544
S113168082E084BD93E095BD9CE797BD80936E0096
S113169008951F920F920FB60F9211242F933F9328
S11316A04F935F936F937F938F939F93AF93BF9366
S11316B0EF93FF930E94EE0A80912E0390912F03E3
S11316C0A0913003B09131030196A11DB11D809307
S11316D02E0390932F03A0933003B0933103809192
S11316E0360391E0980F909336038330A8F08091ED
S11316F02A0390912B03A0912C03B0912D03019602
S1131700A11DB11D80932A0390932B03A0932C0356
S1131710B0932D0310923603FF91EF91BF91AF91D7
S11317209F918F917F916F915F914F913F912F91F5
S11317300F900FBE0F901F9018951F920F920FB627
S11317400F9211248F939F93809178009091790048
S113175090937A03809379039F918F910F900FBE9A
S11317600F901F90189587B18E7F87B988B18E7FAF
S113177088B981E080937E00EAE7F0E08FEA808315
S1131780ACE7B0E08C9180648C938081806480832A
S11317900895CF93DF939091380381E0963908F44C
S11317A080E02AE6829F900D112490933803809163
S11317B0380390E001966FE070E00E948F0F8093F1
S11317C03803C0913803D0E0CC0FDD1FCC0FDD1FF0
S11317D0C35CDC4F6091790370917A03072E000C8F
S11317E0880B990B0E94590E688379838A839B83A3
S11317F01092390310923A0310923B0310923C0367
S1131800C0E028C08091380390E00F968C1B9109AA
S11318106FE070E00E948F0FFC01EE0FFF1FEE0FD0
S1131820FF1FE35CFC4F6081718182819381209171
S1131830390330913A0340913B0350913C030E9499
S11318403E0D6093390370933A0380933B03909366
S11318503C03CF5FCF30B0F220E030E040E751E40A
S11318606091390370913A0380913B0390913C035A
S11318700E94AF0D0E94280ECB01DF91CF910895F5
S113188086E08093C20083E08093C400E1ECF0E042
S1131890808180618083808180688083808188608A
S11318A08083808180628083E0ECF0E080818062CC
S11318B0808308959091E2038091E303981718F0D0
S11318C0891B8A510895891B0895482F2091E203AA
S11318D030E0C901019666EE70E00E948F0F90918E
S11318E0E303981759F0F901EC51FC4F40838093BE
S11318F0E203E1ECF0E080818062808308951F932D
S1131900CF93DF93EC01162F0E945A0C181720F086
S113191006C00E94650C219688818111FACFDF915F
S1131920CF911F9108951F920F920FB60F92112419
S11319305F936F937F938F939F93AF93BF93EF9333
S1131940FF93E091E3038091E203E81789F0F0E06C
S1131950EC51FC4F80818093C6008091E30390E0BA
S1131960019666EE70E00E948F0F8093E30305C03A
S1131970E1ECF0E080818F7D8083FF91EF91BF9156
S1131980AF919F918F917F916F915F910F900FBE57
S11319900F901F901895CF93DF93EC0180917B03F8
S11319A0882321F1F89420E011C0FE01E20FF11D1B
S11319B090E0DC01A258BC4F3C913083019664E670
S11319C070E00E948F0F80937D032F5F90917C03C2
S11319D080917D03981711F0233638F310927B031E
S11319E07894C20FD11D188281E001C080E0DF919C
S11319F0CF9108951F920F920FB60F9211242F9337
S1131A003F935F936F937F938F939F93AF93BF9312
S1131A10EF93FF9380917C0390E0019664E670E07D
S1131A200E948F0F9091C60020917D032817A9F082
S1131A309A3011F09D3021F481E080937B030DC036
S1131A4030917B03311120937C03E0917C03F0E01F
S1131A50E258FC4F908380937C03FF91EF91BF91F8
S1131A60AF919F918F917F916F915F913F912F9152
S1131A700F900FBE0F901F9018955058BB27AA27A0
S1131A800E94550D0C94CF0E0E94C10E38F00E9496
S1131A90C80E20F039F49F3F19F426F40C94BE0EBE
S1131AA00EF4E095E7FB0C94B80EE92F0E94E00ECB
S1131AB058F3BA17620773078407950720F079F47F
S1131AC0A6F50C94020F0EF4E0950B2EBA2FA02D60
S1131AD00B01B90190010C01CA01A0011124FF27D7
S1131AE0591B99F0593F50F4503E68F11A16F040D2
S1131AF0A22F232F342F4427585FF3CF46953795D1
S1131B002795A795F0405395C9F77EF41F16BA0B95
S1131B10620B730B840BBAF09150A1F0FF0FBB1F43
S1131B20661F771F881FC2F70EC0BA0F621F731F8C
S1131B30841F48F4879577956795B795F7959E3FE9
S1131B4008F0B0CF9395880F08F09927EE0F97957A
S1131B50879508950E94940E08F481E008950E94E8
S1131B60C30D0C94CF0E0E94C80E58F00E94C10EF3
S1131B7040F029F45F3F29F00C94B80E51110C94F5
S1131B80030F0C94BE0E0E94E00E68F39923B1F388
S1131B90552391F3951B550BBB27AA27621773078F
S1131BA0840738F09F5F5F4F220F331F441FAA1F23
S1131BB0A9F335D00E2E3AF0E0E832D091505040DF
S1131BC0E695001CCAF72BD0FE2F29D0660F771F8D
S1131BD0881FBB1F261737074807AB07B0E809F073
S1131BE0BB0B802DBF01FF2793585F4F3AF09E3FF8
S1131BF0510578F00C94B80E0C94030F5F3FE4F396
S1131C00983ED4F3869577956795B795F7959F5F3A
S1131C10C9F7880F911D9695879597F90895E1E086
S1131C20660F771F881FBB1F621773078407BA07E5
S1131C3020F0621B730B840BBA0BEE1F88F7E09540
S1131C4008950E94280E6894B1110C94030F08950E
S1131C500E94E80E88F09F5798F0B92F9927B75142
S1131C60B0F0E1F0660F771F881F991F1AF0BA953C
S1131C70C9F714C0B13091F00E94020FB1E0089589
S1131C800C94020F672F782F8827B85F39F0B93F7B
S1131C90CCF3869577956795B395D9F73EF49095EF
S1131CA08095709561957F4F8F4F9F4F0895E8946D
S1131CB009C097FB3EF490958095709561957F4F90
S1131CC08F4F9F4F9923A9F0F92F96E9BB2793953E
S1131CD0F695879577956795B795F111F8CFFAF44E
S1131CE0BB0F11F460FF1BC06F5F7F4F8F4F9F4F7F
S1131CF016C0882311F096E911C0772321F09EE8DD
S1131D00872F762F05C0662371F096E8862F70E042
S1131D1060E02AF09A95660F771F881FDAF7880F1C
S1131D209695879597F90895990F0008550FAA0B72
S1131D30E0E8FEEF16161706E807F907C0F01216DA
S1131D401306E407F50798F0621B730B840B950BDD
S1131D5039F40A2661F0232B242B252B21F4089532
S1131D600A2609F4A140A6958FEF811D811D0895CF
S1131D7097F99F6780E870E060E008959FEF80EC3A
S1131D80089500240A9416161706180609060895DD
S1131D9000240A9412161306140605060895092E43
S1131DA00394000C11F4882352F0BB0F40F4BF2BB2
S1131DB011F460FF04C06F5F7F4F8F4F9F4F0895F2
S1131DC057FD9058440F551F59F05F3F71F04795E8
S1131DD0880F97FB991F61F09F3F79F087950895CD
S1131DE0121613061406551FF2CF4695F1DF08C0EC
S1131DF0161617061806991FF1CF86957105610509
S1131E0008940895E894BB2766277727CB0197F9B0
S1131E1008950E94940E08F48FEF08950E94210FF4
S1131E200C94CF0E0E94C10E38F00E94C80E20F010
S1131E30952311F00C94B80E0C94BE0E11240C943E
S1131E40030F0E94E00E70F3959FC1F3950F50E0CD
S1131E50551F629FF001729FBB27F00DB11D639F58
S1131E60AA27F00DB11DAA1F649F6627B00DA11DFE
S1131E70661F829F2227B00DA11D621F739FB00DA4
S1131E80A11D621F839FA00D611D221F749F332714
S1131E90A00D611D231F849F600D211D822F762FAD
S1131EA06A2F11249F5750409AF0F1F088234AF08A
S1131EB0EE0FFF1FBB1F661F771F881F91505040F6
S1131EC0A9F79E3F510580F00C94B80E0C94030FB3
S1131ED05F3FE4F3983ED4F3869577956795B7957D
S1131EE0F795E7959F5FC1F7FE2B880F911D969597
S1131EF0879597F90895AA1BBB1B51E107C0AA1F38
S1131F00BB1FA617B70710F0A61BB70B881F991F96
S1131F105A95A9F780959095BC01CD01089597FB3A
S1131F20072E16F4009407D077FD09D00E947B0F8A
S1131F3007FC05D03EF4909581959F4F08957095C8
S1131F4061957F4F0895A1E21A2EAA1BBB1BFD01C8
S1131F500DC0AA1FBB1FEE1FFF1FA217B307E40784
S1131F60F50720F0A21BB30BE40BF50B661F771FDC
S1131F70881F991F1A9469F76095709580959095BC
S1111F809B01AC01BD01CF010895F894FFCF81
S1131F8E0101F106C305BF07000007000F0017008B
S1131F9E1F0027002F0036003E0046004E0056005C
S1131FAE5E0065006D0075007D0085008C00940058
S1131FBE9C00A400AB00B300BB00C300CA00D20057
S1131FCEDA00E100E900F100F800000107010F0159
S1131FDE16011E0126012D0135013C0143014B0161
S1131FEE52015A0161016801700177017E01850178
S1131FFE8D0194019B01A201A901B001B701BE019B
S113200EC501CC01D301DA01E101E801EF01F601CA
S113201EFD0103020A02110217021E0225022B02FF
S113202E320238023F0245024B02520258025E024D
S113203E64026B02710277027D02830289028F02AF
S113204E95029B02A102A602AC02B202B702BD0225
S113205EC302C802CE02D302D802DE02E302E802B1
S113206EEE02F302F802FD02020307030C0311034E
S113207E16031A031F03240329032D033203360305
S113208E3B033F03430348034C03500354035803D9
S113209E5C036003640368036C03700373037703C8
S11320AE7B037E038203850388038C038F039203D1
S11320BE950398039B039E03A103A403A703AA03FA
S11320CEAC03AF03B203B403B703B903BB03BE033C
S11320DEC003C203C403C603C803CA03CC03CE039E
S11320EECF03D103D303D403D603D703D903DA031F
S11320FEDB03DC03DE03DF03E003E103E103E203BE
S113210EE303E403E403E503E603E603E603E7037C
S113211EE703E703E703E703E80302010100008096
S113212E3F9908C508F1081D0901000503017469EA
S113213E656D706F3B6572726F723B696E74656725
S113214E72616C3B64657269766164613B7365743C
S113215E506F696E740A006461746F733A200000E4
S9030000FC
