S0110000477275614D656A6F722E7372656387
S11300000C9434000C94D00D0C948F0D0C9451006E
S11300100C9451000C9451000C9451000C94110E4A
S11300200C9451000C9451000C9451000C948C04C9
S11300300C94CE040C9451000C94AE0E0C9451000C
S11300400C9451000C9451000C945F100C94F80F14
S11300500C9451000C94020F0C9451000C94510018
S11300600C9451000C94510011241FBECFEFD8E022
S1130070DEBFCDBF12E0A0E0B1E0EAECF6E202C0E0
S113008005900D92A63FB107D9F725E0A6EFB2E09F
S113009001C01D92AA31B207E1F70E94E8020C9454
S11300A063130C9400008AB18F778AB98BB180688E
S11300B08BB984B18E7F84B985B1816085B9089587
S11300C04F9B10C01092FC028091FD028F5F8093C1
S11300D0FD028031E0F081E08093F90284E68093B0
S11300E0FD0215C01092FD028091FC028F5F809387
S11300F0FC02803128F01092F90284E68093FC021D
S11301008091FC028D3019F481E08093F7021899F4
S11301100DC01092FA028091FB028F5F8093FB0264
S11301208031B8F081E08093F80208958091FA025A
S11301308F5F8093FA02803128F01092F80284E6EF
S11301408093FA028091FA028D3019F481E0809351
S1130150F602089561E084EC92E00E94E40F0895B1
S1130160CF93DF93EC01DB0190E040E050EF1BC044
S1130170FE01E423F52323E030E0291B3109220F9B
S1130180331F220F331F02C0F695E7952A95E2F735
S1130190E050FF4F80818D93529542954F704527D3
S11301A05F7045279F5F943018F31C92DF91CF91C5
S11301B00895CF92DF92EF92FF92CF936B017C016F
S11301C0FA01C0E040E050E060E070EF24C0DB01E1
S11301D0CA018C219D21AE21BF2127E030E02C1BD8
S11301E03109220F331F220F331F04C0B695A79580
S11301F0979587952A95D2F7DC01A050BF4F8C9133
S11302008083689413F87695679557954795169467
S1130210D1F7CF5F3196C830D0F21082CF91FF90E2
S1130220EF90DF90CF900895CF93DF93CDB7DEB7F3
S11302306F970FB6F894DEBF0FBECDBF0E94BF0FFD
S11302408F3D20F081E08093FE0206C00E94BF0F24
S1130250883210F41092FE028091FE02882309F481
S11302605AC00E94410EAE014F5F5F4F0E94D900F9
S11302706AE0CE0101960E94E40F8BE30E94CA0F4C
S11302800E949306BE01675E7F4F0E94B00067E044
S1130290CE0149960E94E40F8BE30E94CA0F0E948C
S11302A08706BE016E5E7F4F0E94B00067E0CE01FC
S11302B042960E94E40F8BE30E94CA0F0E947B06C1
S11302C0BE01655F7F4F0E94B00067E0CE010B96D0
S11302D00E94E40F8BE30E94CA0F0E942E0FBC0100
S11302E080E090E00E94BC112DEC3CEC44E551E42C
S11302F00E9473120E948611DC01CB01BE01675E6D
S11303007F4F0E94B00067E0CE0149960E94E40F3F
S11303108AE00E94CA0F6F960FB6F894DEBF0FBE34
S1130320CDBFDF91CF9108953F924F925F926F922C
S11303307F928F929F92AF92BF92CF92DF92EF9271
S1130340FF920F931F93CF93DF93CDB7DEB7C254C1
S1130350D1090FB6F894DEBF0FBECDBFCE01019612
S11303600E943010882309F41AC1FE01F39680E13B
S1130370DF011D928A95E9F76AE08DEE92E00E9412
S1130380E40F6AE0CE0101960E94E40FE12CF12C07
S1130390C4C0BDE23B1205C0B7FAB094B7F8B0943C
S11303A02FC0C32CD12CE0E3CE1AD1080E2D10E0BF
S11303B0000F111F000F111F81E090E08C0F9D1F93
S11303C0080F191FD801D2966D917D918D919C9142
S11303D0D59720E030E040E251E40E9473122B01F3
S11303E03C01B601DD0C880B990B0E94BE11A301E0
S11303F092010E94A310F80162AB73AB84AB95AB7E
S1130400832D0E94CA0FF39408C00F2E812C912CC7
S1130410F0E8AF2EFFE3BF2EF02DE1E0F0E0EC0FAB
S1130420FD1FEF0DF11D3080FCE23F1609F447C0BB
S11304308EE2381609F443C090E2391609F43FC03D
S11304403110A7CF3CC00E32C9F10C32B9F110E023
S113045000531109CE2CD12CCC0CDD1CCC0CDD1C92
S1130460A1E0B0E0AC0FBD1FCA0EDB1EF60162A90D
S113047073A984A995A920E030E040E251E40E94E8
S113048073122B013C01B801110F880B990B0E94C8
S1130490BE11A30192010E94A310D601D2966D93BE
S11304A07D938D939C93D59720E030E040E251E416
S11304B0C501B4010E9473124B015C01F394E1E0A5
S11304C0F0E0EC0FFD1FEF0DF11D0081003211F083
S11304D00111B9CFCE2CD12CCC0CDD1CCC0CDD1CE5
S11304E0E1E0F0E0EC0FFD1FCE0EDF1ED601D29648
S11304F06D917D918D919C91D597A50194010E9458
S11305001411F60162AB73AB84AB95ABE394003288
S113051021F4802F0E94CA0FF394E1E0F0E0EC0F85
S1130520FD1FEF0DF11D808181116FCF6BA97CA997
S11305308DA99EA923E333E343E451EC0E940F11F8
S1130540811104C08BB180648BB903C08BB18F7BE4
S11305508BB9F4E0EF1223C06BA97CA98DA99EA9E5
S11305600E94E9076FA978AD89AD9AAD0E94D707BB
S11305706BAD7CAD8DAD9EAD0E94E00723966CAD56
S11305807DAD8EAD9FAD23970E948D11162F862FC2
S113059090E00E94F20780E3810F0E94CA0FCE5BB5
S11305A0DF4F0FB6F894DEBF0FBECDBFDF91CF9102
S11305B01F910F91FF90EF90DF90CF90BF90AF907D
S11305C09F908F907F906F905F904F903F90089591
S11305D00E94A50F0E9498030E94620D0E94180FAA
S11305E00E9453008AB180628AB978940E94AA005A
S11305F080E090E00E943E030E94370488E59BE17E
S11306000E94DB038BB180628BB960E070E088EEFE
S113061094E00E94950CC0E021C02FEF87EA91E698
S1130620215080409040E1F700C0000060E070E09D
S113063086EE94E00E94950C2091E8043091E90440
S11306408091E6049091E7042817390711F4CF5FED
S113065005C09093E9048093E804C0E0C330E8F255
S11306600E94060D8BB18F7D8BB988EA9BE10E94B5
S1130670DB030E94A50E0E94840EFDCFBC010097EF
S113068061F485B18770886385B981E08093100136
S11306908093110160E07AEF2AC0992384F48FEFEC
S11306A0809300037195619571098091FF028130F7
S11306B011F4809311018FEF8093FF020DC081E04C
S11306C0809300038091FF028F3F19F481E08093AF
S11306D0110181E08093FF0288E199E70E944F13A2
S11306E081E08093100185B18770886385B980911A
S11306F01101882321F0645C7F4F10921101209135
S1130700840030918500CB0101978217930758F438
S1130710709389006093880062507109709385001A
S1130720609384000895709389006093880008950D
S113073084B18E6384B98AB180688AB910928000CA
S11307408BE08093810086E086BB21E030E030932B
S11307508B0020938A0020E737E1309389002093AF
S1130760880080936F0008958091010390910203A3
S1130770089588233CF485B1826085B98FEF809316
S1130780000306C085B18D7F85B981E080930003A5
S113079085B1846085B987EC90E00197F1F700C0DA
S11307A0000085B18B7F85B987EC90E00197F1F764
S11307B000C000000895CF93DF93EC0185B18770EA
S11307C0886385B981E0809310012FEF81EE94E076
S11307D0215080409040E1F700C00000CE01019715
S11307E08F329543E8F580910103909102038C17B1
S11307F09D07A0F02EC081E00E94B9033091000350
S11308002091100180910103909102033202800D26
S1130810911D11249093020380930103809101039D
S1130820909102038C179D0730F31AC08FEF0E943A
S1130830B90330910003209110018091010390913C
S113084002033202800D911D1124909302038093C0
S113085001038091010390910203C817D90730F373
S113086080E090E00E943E03DF91CF9108958AB129
S11308708F7E8AB98BB180618BB980E090E00E9451
S11308803E038BB180648BB92FEF89E698E1215048
S113089080409040E1F700C0000085B18770886314
S11308A085B981E08093100103C08FEF0E94B903E2
S11308B04C99FBCF8BB18F7B8BB9109202031092B2
S11308C0010382E390E00E94DB032FEF89E698E1C5
S11308D0215080409040E1F700C000008BB18F7B35
S11308E08BB985B18770886385B981E080931001E5
S11308F003C08FEF0E94B9034C99FBCF85B1877079
S113090085B980E1809310018BB18F7B8BB91092F4
S113091002031092010308951F920F920FB60F92D3
S113092011242F933F938F939F9330910003209131
S1130930100180910103909102033202800D911DF8
S113094011248033954308F5309100032091100160
S113095080910103909102033202800D911D1124B4
S1130960892B99F085B1846085B930910003209179
S1130970100180910103909102033202800D911DB8
S1130980112490930203809301039F918F913F91CF
S11309902F910F900FBE0F901F9018951F920F92DA
S11309A00FB60F9211248F9385B18B7F85B98091F7
S11309B00003813019F485B18D7F85B980910003DE
S11309C08F3F19F485B1826085B98F910F900FBE66
S11309D00F901F901895E0912C03F0E0EE0FFF1F8D
S11309E0E85EFE4F0190F081E02D09950895CF92C5
S11309F0DF92EF92FF92CF93DF938091F7028823E7
S1130A0061F08091B202882319F01092B20203C0FF
S1130A1081E08093B2021092F7028091F60288235B
S1130A2031F010922C0310922A031092F60263E024
S1130A3073E087E093E00E94950CE091B002F0E04F
S1130A40EE0FFF1FEE5EFE4F0190F081E02D099541
S1130A5060932103709322038093230390932403D0
S1130A6020E030E84BEB54E40E946E12181664F454
S1130A7080E090E8ABEBB4E48093210390932203ED
S1130A80A0932303B0932403609121037091220364
S1130A90809123039091240320E030E84BEB54EC45
S1130AA00E940F11882364F480E090E8ABEBB4EC6F
S1130AB08093210390932203A0932303B0932403F0
S1130AC08091B202882309F45AC081E08093B10274
S1130AD08091B002823009F04EC0809129038111C7
S1130AE0F6C0109221031092220310922303109255
S1130AF024030E942E0FBC0180E090E00E94BC11F0
S1130B002DEC3CEC44E551E40E947312609319030C
S1130B1070931A0380931B0390931C030E94B403E5
S1130B20EC016091190370911A0380911B03909159
S1130B301C030E948D11645671096C177D0708F01F
S1130B40C6C00E94B403EC016091190370911A03AA
S1130B5080911B0390911C030E948D116C597F4F4F
S1130B60C617D70708F0B3C081E0809329038BB17F
S1130B7080628BB9ACC08BB180628BB9A8C0809104
S1130B80B002823009F098C0109229030E942E0FFF
S1130B90BC0180E090E00E94BC1160931903709343
S1130BA01A0380931B0390931C030E942E0F9093AF
S1130BB00603809305038091B102811153C0C09054
S1130BC01903D0901A03E0901B03F0901C0320E05B
S1130BD030E842EF53E4C701B6010E940F118823A5
S1130BE0BCF420E030E842EF53E4C701B6010E94B0
S1130BF0A21020E030E040E850E40E9473126093B9
S1130C00210370932203809323039093240350C001
S1130C1020E030EC40E054E4C701B6010E946E12BB
S1130C201816BCF420E030EC40E054E4C701B601EF
S1130C300E94A21020E030E040E850E40E947312C9
S1130C4060932103709322038093230390932403DE
S1130C502FC01092210310922203109223031092AA
S1130C60240326C0C0901903D0901A03E0901B03FC
S1130C70F0901C0320E030E842EF53E4C701B601D2
S1130C800E946E12181664F420E030EC40E054E444
S1130C90C701B6010E940F11882314F41092B10207
S1130CA01092210310922203109223031092240322
S1130CB08BB18F7D8BB90BC08BB18F7D8BB91092AB
S1130CC021031092220310922303109224036091B3
S1130CD021037091220380912303909124030E94A5
S1130CE08611CB010E943E03DF91CF91FF90EF90DC
S1130CF0DF90CF9008956091150370911603809151
S1130D001703909118030E948611CB0108956091F6
S1130D101D0370911E0380911F03909120030E9474
S1130D208611CB01089580910503909106030895DF
S1130D30BC01990F880B990B0E94BE1120911D03D1
S1130D4030911E0340911F03509120030E94A31071
S1130D5060931D0370931E0380931F0390932003DD
S1130D6020E030E04AEF53E40E946E12181664F457
S1130D7080E090E0AAEFB3E480931D0390931E03F8
S1130D80A0931F03B093200360911D0370911E0371
S1130D9080911F039091200320E030E04AEF53EC50
S1130DA00E940F11882364F480E090E0AAEFB3EC72
S1130DB080931D0390931E03A0931F03B0932003FD
S1130DC00895CF92DF92EF92FF92CF93DF93C09179
S1130DD00703D0910803BE010D2E000C880B990B5C
S1130DE00E94BE1123EC35EF48EC50E40E947312CC
S1130DF020E030E048E454E40E9414116B017C01CB
S1130E00609325037093260380932703909328030C
S1130E10D0930603C093050320E030E0A9010E94AB
S1130E206E1218161CF581E090E00E9498066091FD
S1130E3025037091260380912703909128030E9433
S1130E40E6122091B3023091B4024091B502509160
S1130E50B6020E94731220911D0330911E0340912B
S1130E601F03509120030E94A3103FC020E030E0F4
S1130E70A901C701B6010E940F1188239CF5F7FA56
S1130E80F094F7F8F094C0922503D0922603E092F0
S1130E902703F09228038FEF9FEF0E949806C090DB
S1130EA01D03D0901E03E0901F03F0902003609177
S1130EB025037091260380912703909128030E94B3
S1130EC0E6122091B3023091B4024091B5025091E0
S1130ED0B6020E9473129B01AC01C701B6010E94C5
S1130EE0A21003C060E070E0CB01DF91CF91FF90CE
S1130EF0EF90DF90CF900895CF92DF92EF92FF9220
S1130F006091030370910403683481E778077CF5EA
S1130F1089E09DE30E944F13072E000C880B990B68
S1130F200E94BE112AE037ED43EA5CE30E9473128B
S1130F306B017C0128E431EE4AE75FE36091110321
S1130F407091120380911303909114030E94731201
S1130F509B01AC01C701B6010E94A3106093110369
S1130F607093120380931303909314031BC028E41B
S1130F7031EE4AE75FE360911103709112038091AF
S1130F801303909114030E94731220E030E0A9012E
S1130F900E94A310609311037093120380931303B0
S1130FA090931403FF90EF90DF90CF900895609397
S1130FB02D0370932E0380932F0390933003089591
S1130FC0609331037093320380933303909334031B
S1130FD008956093B3027093B4028093B502909322
S1130FE0B60208959091B002981751F08093B00220
S1130FF010921D0310921E0310921F0310922003DF
S1131000089560E273E00E944F13992314F4805E04
S11310109C4F803921E09207DCF060E971E00E9486
S11310204F13893C91054CF028EC30E0B9010E9443
S11310304F13A901481B590BCA01880F991FFC01C2
S1131040E25EFE4F80819181919581959109089589
S113105060E971E00E944F13893C91054CF028EC43
S113106030E0B9010E944F13A901481B590BCA0172
S1131070880F991FFC01E25EFE4F808191810895E3
S1131080CF92DF92EF92FF920F931F938091070309
S11310909091080390931905809318050E94010804
S11310A0BC014396879770F480912B038F5F8093E4
S11310B02B03833348F010922B0310922A031092CF
S11310C02C0302C010922B03072E000C880B990BE3
S11310D00E94BE1120E030E040ED50E40E94731203
S11310E00E94861170930803609307030E94B4035F
S11310F02091070330910803820F931F90930603F6
S11311008093050380E090E6AAEEB5E4809319038A
S113111090931A03A0931B03B0931C030E94B4037F
S1131120BC0180E090E00E94BC119B01AC0160E036
S113113070E68AEE95E40E94A2106B017C01609136
S1131140070370910803072E000C880B990B0E946B
S1131150BE11A70196010E94A3100E9486117093EC
S11311600803609307030091090310910A03209177
S11311700B0330910C030093150310931603209373
S1131180170330931803CB010E949806609107035C
S113119070910803072E000C880B990B0E94BE1156
S11311A023E333E343E35FE30E9473121F910F9140
S11311B0FF90EF90DF90CF900895CF92DF92EF925F
S11311C0FF92CF93DF93EC010E947C07CE018853FA
S11311D09F4F0E940108EC0120E030E04AE754E40C
S11311E06091110370911203809113039091140381
S11311F00E9414116B017C01BE01DD0F880B990B59
S11312000E94BE11A70196010E9473122AE134E3E1
S11312104CE452E40E94731260930D0370930E0326
S113122080930F0390931003DF91CF91FF90EF9081
S1131230DF90CF9008950F931F93CF93DF93C091C6
S11312400703D0910803D0931905C0931805CE0164
S113125060E273E00E944F139093080380930703A6
S1131260992334F4805E9C4F909308038093070382
S113127080912A03813009F044C080910703909142
S1131280080385579140C79768F481E080932C0345
S113129010921D0310921E0310921F03109220033C
S11312A010922A03CE010E94DD0880910D039091D3
S11312B00E03A0910F03B091100380931503909334
S11312C01603A0931703B09318038091070390911A
S11312D008030E94010890930803809307039093E6
S11312E0060380930503BC01990F880B990B0E9498
S11312F0BE112DEC3CEC4CE45FEB0E9473128B01AD
S11313009C0180912A03811134C0CE01DD2324F491
S1131310882799278C1B9D0B80579E4F60E273E0B2
S11313200E944F13853F91401CF081E080932A0373
S11313300E944A0E0E94BC1128E431EE4AE150E4B6
S11313400E9414110E948611CB0160E273E00E9496
S11313504F130E940108BC01990F880B990B0E943E
S1131360BE1120E030E040EC5FE30E9473128B0179
S11313709C01C901B801DF91CF911F910F9108958C
S1131380CF92DF92EF92FF9280910703909108032E
S1131390909319058093180560E273E00E944F133F
S11313A090930803809307039093060380930503A7
S11313B0992334F4805E9C4F909308038093070331
S11313C080910703909108039C01215031093093C7
S11313D0080320930703805691408336910558F003
S11313E082E080932C031092210310922203109226
S11313F02303109224030E94B40381349F4148F0D4
S113140080910703909108030196909308038093B9
S113141007030E94B4038838934148F4809107037A
S11314209091080301979093080380930703809198
S11314301805909119050E94DD0880910D03909183
S11314400E03A0910F03B0911003809315039093A2
S11314501603A0931703B093180380910703909188
S113146008030E94010890930803809307030E94D5
S113147098066091070370910803709306036093C4
S11314800503072E000C880B990B0E94BE112091B6
S1131490B3023091B4024091B5025091B6020E9459
S11314A073126B017C0120911D0330911E03409146
S11314B01F035091200360912D0370912E0380919E
S11314C02F03909130030E9473129B01AC01C7015A
S11314D0B6010E94A3106B017C0120911503309189
S11314E016034091170350911803609131037091D2
S11314F0320380913303909134030E9473129B0151
S1131500AC01C701B6010E94A3106093210370933C
S113151022038093230390932403FF90EF90DF90A2
S1131520CF9008958F929F92AF92BF92CF92DF9205
S1131530EF92FF920F931F93CF93DF930E94DD08E6
S11315400091210310912203D0912303C09124031D
S113155020E030E844ED54E4602F712F8D2F9C2F50
S11315600E946E1218162CF0C02ED12EED2EFC2ED9
S11315700CC0C12C6894DD24D7F80F2EF4EDEF2EA7
S1131580F02D0F2EF4E4FF2EF02D20E030E844ED92
S113159054EC602F712F8D2F9C2F0E940F118823E4
S11315A064F4C12C6894DD24D7F80F2EF4EDEF2EEB
S11315B0F02D0F2EF4ECFF2EF02D80900D03909063
S11315C00E03A0900F03B090100321E338E041E034
S11315D051E46C2D7D2D8E2D9F2D0E9473129B0145
S11315E0AC01C501B4010E94A21060930903709379
S11315F00A0380930B0390930C03DF91CF911F9107
S11316000F91FF90EF90DF90CF90BF90AF909F909D
S11316108F900895CF92DF92EF92FF92809107030B
S11316209091080390931905809318050E9401086E
S113163090930803809307030E942E0FBC0180E05F
S113164090E00E94BC112DEC3CEC44E551E40E9476
S113165073126093190370931A0380931B0390937E
S11316601C036091070370910803072E000C880B7C
S1131670990B0E94BE1120E030E040ED50E40E943E
S113168073120E94861170930803609307030E94EB
S1131690B4032091070330910803820F931F9093A2
S11316A006038093050380911805909119050E9403
S11316B0920AC0901903D0901A03E0901B03F09093
S11316C01C030E94B403BC0180E090E00E94BC11A2
S11316D09B01AC01C701B6010E94A2106B017C0101
S11316E06091070370910803072E000C880B990B77
S11316F00E94BE11A70196010E94A3100E948611A8
S11317007093080360930703C0900903D0900A0301
S1131710E0900B03F0900C03C0921503D0921603D3
S1131720E0921703F0921803CB010E94980660918F
S1131730070370910803072E000C880B990B0E9475
S1131740BE112091B3023091B4024091B502509180
S1131750B6020E9473126B017C0120911503309133
S1131760160340911703509118036091310370914F
S1131770320380913303909134030E9473129B01CE
S1131780AC01C701B6010E94A3106B017C0120913A
S11317901D0330911E0340911F035091200360915B
S11317A02D0370912E0380912F03909130030E949A
S11317B073129B01AC01C701B6010E94A310FF90F4
S11317C0EF90DF90CF90089580913603882391F0B5
S11317D08091420390914303019790934303809334
S11317E042038FEF9FEF9093C0028093BF0282E089
S11317F08093350380913703882389F080914203D5
S1131800909143030196909343038093420381E0B4
S113181090E09093C0028093BF02809335030895B3
S113182080913603882391F0809142039091430381
S11318300196909343038093420381E090E0909358
S1131840C0028093BF0283E0809335038091370305
S1131850811111C0809142039091430301979093A9
S11318604303809342038FEF9FEF9093C0028093D2
S1131870BF0210923503089580913603811111C07F
S11318808091420390914303019690934303809384
S1131890420381E090E09093C0028093BF021092D3
S11318A0350380913703882391F08091420390910E
S11318B04303019790934303809342038FEF9FEF79
S11318C09093C0028093BF0283E080933503089510
S11318D080913603811112C0809142039091430399
S11318E0019790934303809342038FEF9FEF90936C
S11318F0C0028093BF0281E0809335038091370357
S1131900811112C0809142039091430301969093F8
S113191043038093420381E090E09093C00280935C
S1131920BF0282E0809335030895209142033091F1
S11319304303FC01318320836115710509F465C0FB
S113194020913C0330913D0380913A0390913B03F5
S1131950280F391F4091BF025091C002249FC0013B
S1131960259F900D349F900D112499230CF401961A
S113197095958795FB01918380832091380330915D
S113198039038217930739F52091400330914103BD
S113199080913E0390913F038217930774F4209142
S11319A0400330914103429FC001439F900D529FD9
S11319B0900D1124918380830EC020913E033091B9
S11319C03F03429FC001439F900D529F900D1124ED
S11319D0FB019183808320913C0330913D038091EE
S11319E03A0390913B03280F391F429FC001439F44
S11319F0900D529F900D112499230CF40196959506
S1131A008795909339038093380308959091360312
S1131A1080913703892319F083E080933503209163
S1131A20360381E090E0222311F080E090E02091E1
S1131A30370330E082239323892B19F082E08093CB
S1131A403503209136033091370381E090E033234E
S1131A5011F080E090E030E082239323892B19F089
S1131A6081E080933503809136032091370391E020
S1131A70811190E081E0211180E0892311F010921E
S1131A8035032FEF80E792E0215080409040E1F74A
S1131A9000C0000089B188708093370389B18470D5
S1131AA080933603E0913503F0E0EE0FFF1FE95415
S1131AB0FD4F0190F081E02D09951092430310929F
S1131AC0420308958AB18B7F8AB98BB184608BB944
S1131AD08AB1877F8AB98BB188608BB98DB38160F5
S1131AE08DBBE9E6F0E080818160808380818D7F19
S1131AF080838DB382608DBB80818460808380818C
S1131B00877F808382E08093B00094E09093B1005B
S1131B109093B300809370000E94060D08951F9265
S1131B200F920FB60F9211242F933F934F935F930D
S1131B306F937F938F939F93AF93BF93EF93FF9391
S1131B4080913E0390913F0390933B0380933A032B
S1131B5010923F0310923E0389B18870809337033B
S1131B6089B1847080933603E0913503F0E0EE0F81
S1131B70FF1FE954FD4F0190F081E02D0995FF917D
S1131B80EF91BF91AF919F918F917F916F915F91F1
S1131B904F913F912F910F900FBE0F901F9018956A
S1131BA01F920F920FB60F9211242F933F934F93CE
S1131BB05F936F937F938F939F93AF93BF93EF93B1
S1131BC0FF93809140039091410390933D03809350
S1131BD03C03109241031092400389B188708093B2
S1131BE0370389B1847080933603E0913503F0E0C4
S1131BF0EE0FFF1FE954FD4F0190F081E02D099590
S1131C00FF91EF91BF91AF919F918F917F916F91D0
S1131C105F914F913F912F910F900FBE0F901F90A6
S1131C2018951F920F920FB60F9211242F938F9332
S1131C309F938091400390914103883199474CF4DC
S1131C4080914003909141030196909341038093C6
S1131C50400380913E0390913F03883199474CF4AF
S1131C6080913E0390913F03019690933F038093AC
S1131C703E039F918F912F910F900FBE0F901F9055
S1131C8018956091440370914503809146039091A7
S1131C9047030895609148037091490380914A0372
S1131CA090914B030895809151038F5F809351036A
S1131CB0823029F481E080934E0310925103809185
S1131CC0C3028F5F8093C302843129F481E080933F
S1131CD04F031092C3028091C2028F5F8093C202AD
S1131CE08A3029F481E080934D031092C2028091DE
S1131CF0C1028F5F8093C102883229F481E080930E
S1131D004C031092C102089580914E03882321F060
S1131D100E94F70410924E0380914F03882321F010
S1131D200E94140110924F0380914D03882321F0E7
S1131D300E94600010924D0380914C03882321F08F
S1131D400E94940110924C03089582E084BD93E0B4
S1131D5095BD9CE797BD80936E0008951F920F92E6
S1131D600FB60F9211242F933F934F935F936F936A
S1131D707F938F939F93AF93BF93EF93FF930E94AF
S1131D80530E8091480390914903A0914A03B09166
S1131D904B030196A11DB11D809348039093490301
S1131DA0A0934A03B0934B038091500391E0980FA2
S1131DB0909350038330A8F080914403909145039D
S1131DC0A0914603B09147030196A11DB11D8093D4
S1131DD0440390934503A0934603B09347031092A2
S1131DE05003FF91EF91BF91AF919F918F917F919C
S1131DF06F915F914F913F912F910F900FBE0F9074
S1131E001F9018951F920F920FB60F9211248F9363
S1131E109F9380917800909179009093940380939C
S1131E2093039F918F910F900FBE0F901F90189561
S1131E3087B18E7F87B988B18E7F88B981E080931E
S1131E407E00EAE7F0E08FEA8083ACE7B0E08C91B3
S1131E5080648C938081806480830895CF93DF9322
S1131E609091520381E0963908F480E02AE6829F3B
S1131E70900D1124909352038091520390E00196A7
S1131E806FE070E00E944F1380935203C09152039D
S1131E90D0E0CC0FDD1FCC0FDD1FC95ADC4F6091A1
S1131EA0930370919403072E000C880B990B0E94E6
S1131EB0BE11688379838A839B83109253031092A3
S1131EC054031092550310925603C0E028C0809129
S1131ED0520390E00F968C1B91096FE070E00E9412
S1131EE04F13FC01EE0FFF1FEE0FFF1FE95AFC4FCB
S1131EF060817181828193812091530330915403D5
S1131F0040915503509156030E94A31060935303CC
S1131F10709354038093550390935603CF5FCF304F
S1131F20B0F220E030E040E751E460915303709157
S1131F30540380915503909156030E9414110E94FA
S1131F408D11CB01DF91CF91089586E08093C2007B
S1131F5083E08093C400E1ECF0E0808180618083C1
S1131F6080818068808380818860808380818062B2
S1131F708083E0ECF0E0808180628083089590911A
S1131F80FC038091FD03981718F0891B8A5108956A
S1131F90891B0895482F2091FC0330E0C901019664
S1131FA066EE70E00E944F139091FD03981759F06C
S1131FB0F901E250FC4F40838093FC03E1ECF0E034
S1131FC080818062808308951F93CF93DF93EC0117
S1131FD0162F0E94BF0F181720F006C00E94CA0FC8
S1131FE0219688818111FACFDF91CF911F910895B5
S1131FF01F920F920FB60F9211245F936F937F93EA
S11320008F939F93AF93BF93EF93FF93E091FD035F
S11320108091FC03E81789F0F0E0E250FC4F8081E6
S11320208093C6008091FD0390E0019666EE70E017
S11320300E944F138093FD0305C0E1ECF0E0808122
S11320408F7D8083FF91EF91BF91AF919F918F918D
S11320507F916F915F910F900FBE0F901F90189515
S1132060CF93DF93EC0180919503882321F1F894B9
S113207020E011C0FE01E20FF11D90E0DC01A85642
S1132080BC4F3C913083019664E670E00E944F138C
S1132090809397032F5F90919603809197039817ED
S11320A011F0233638F3109295037894C20FD11DA2
S11320B0188281E001C080E0DF91CF9108951F92E2
S11320C00F920FB60F9211242F933F935F936F9348
S11320D07F938F939F93AF93BF93EF93FF938091DD
S11320E0960390E0019664E670E00E944F1390918D
S11320F0C600209197032817A9F09A3011F09D305B
S113210021F481E0809395030DC030919503311142
S113211020939603E0919603F0E0E856FC4F9083F9
S113212080939603FF91EF91BF91AF919F918F910F
S11321307F916F915F913F912F910F900FBE0F9000
S11321401F9018955058BB27AA270E94BA100C94C8
S113215034120E94261238F00E942D1220F039F415
S11321609F3F19F426F40C9423120EF4E095E7FB38
S11321700C941D12E92F0E94451258F3BA176207F6
S113218073078407950720F079F4A6F50C94671279
S11321900EF4E0950B2EBA2FA02D0B01B90190017E
S11321A00C01CA01A0011124FF27591B99F0593FC2
S11321B050F4503E68F11A16F040A22F232F342F0A
S11321C04427585FF3CF469537952795A795F04058
S11321D05395C9F77EF41F16BA0B620B730B840B6D
S11321E0BAF09150A1F0FF0FBB1F661F771F881F25
S11321F0C2F70EC0BA0F621F731F841F48F487957D
S113220077956795B795F7959E3F08F0B0CF93956E
S1132210880F08F09927EE0F9795879508950E94E7
S1132220F91108F481E008950E9428110C943412E5
S11322300E942D1258F00E94261240F029F45F3FAC
S113224029F00C941D1251110C9468120C94231251
S11322500E94451268F39923B1F3552391F3951B1A
S1132260550BBB27AA2762177307840738F09F5FB3
S11322705F4F220F331F441FAA1FA9F335D00E2E20
S11322803AF0E0E832D091505040E695001CCAF78D
S11322902BD0FE2F29D0660F771F881FBB1F261750
S11322A037074807AB07B0E809F0BB0B802DBF0127
S11322B0FF2793585F4F3AF09E3F510578F00C94F6
S11322C01D120C9468125F3FE4F3983ED4F3869594
S11322D077956795B795F7959F5FC9F7880F911D17
S11322E09695879597F90895E1E0660F771F881F03
S11322F0BB1F621773078407BA0720F0621B730BB6
S1132300840BBA0BEE1F88F7E09508950E948D1197
S11323106894B1110C94681208950E944D1288F0CB
S11323209F5798F0B92F9927B751B0F0E1F0660F95
S1132330771F881F991F1AF0BA95C9F714C0B130D6
S113234091F00E946712B1E008950C946712672F10
S1132350782F8827B85F39F0B93FCCF38695779505
S11323606795B395D9F73EF49095809570956195EE
S11323707F4F8F4F9F4F0895E89409C097FB3EF419
S113238090958095709561957F4F8F4F9F4F9923BE
S1132390A9F0F92F96E9BB279395F695879577953C
S11323A06795B795F111F8CFFAF4BB0F11F460FFFC
S11323B01BC06F5F7F4F8F4F9F4F16C0882311F054
S11323C096E911C0772321F09EE8872F762F05C068
S11323D0662371F096E8862F70E060E02AF09A9503
S11323E0660F771F881FDAF7880F9695879597F9F8
S11323F00895990F0008550FAA0BE0E8FEEF161692
S11324001706E807F907C0F012161306E407F507E4
S113241098F0621B730B840B950B39F40A2661F058
S1132420232B242B252B21F408950A2609F4A140FB
S1132430A6958FEF811D811D089597F99F6780E808
S113244070E060E008959FEF80EC089500240A9402
S11324501616170618060906089500240A9412167B
S11324601306140605060895092E0394000C11F4AE
S1132470882352F0BB0F40F4BF2B11F460FF04C05B
S11324806F5F7F4F8F4F9F4F089557FD9058440FB4
S1132490551F59F05F3F71F04795880F97FB991FBF
S11324A061F09F3F79F0879508951216130614067C
S11324B0551FF2CF4695F1DF08C016161706180609
S11324C0991FF1CF86957105610508940895E894E4
S11324D0BB2766277727CB0197F908950E94F91146
S11324E008F48FEF08950E9486120C9434120E940F
S11324F0261238F00E942D1220F0952311F00C942E
S11325001D120C94231211240C9468120E9445127B
S113251070F3959FC1F3950F50E0551F629FF00132
S1132520729FBB27F00DB11D639FAA27F00DB11D4B
S1132530AA1F649F6627B00DA11D661F829F2227D4
S1132540B00DA11D621F739FB00DA11D621F839F5B
S1132550A00D611D221F749F3327A00D611D231F31
S1132560849F600D211D822F762F6A2F11249F577F
S113257050409AF0F1F088234AF0EE0FFF1FBB1F82
S1132580661F771F881F91505040A9F79E3F510541
S113259080F00C941D120C9468125F3FE4F3983E93
S11325A0D4F3869577956795B795F795E7959F5FEB
S11325B0C1F7FE2B880F911D9695879597F908957D
S11325C019F416F40C9423120C9426130E944D1241
S11325D0B8F39923C9F3B6F39F57550B87FF0E94AD
S11325E034130024A0E640EA90018058569597954C
S11325F028F4805C660F771F881F20F026173707A2
S1132600480730F4621B730B840B202931294A2BB1
S1132610A69517940794202531254A2758F7660F65
S1132620771F881F20F026173707480730F4620BFE
S1132630730B840B200D311D411DA09581F7B90149
S1132640842F9158880F9695879508959F3F31F070
S1132650915020F4879577956795B795880F911DCC
S11326609695879597F9089591505040660F771F76
S1132670881FD2F70895AA1BBB1B51E107C0AA1FEC
S1132680BB1FA617B70710F0A61BB70B881F991F0F
S11326905A95A9F780959095BC01CD01089597FBB3
S11326A0072E16F4009407D077FD09D00E943B133F
S11326B007FC05D03EF4909581959F4F0895709541
S10D26C061957F4F0895F894FFCF51
S11326CA303132333435363738394142434445465A
S11326DA0101EB04E1060A0B1B09C00940080000CA
S11326EA07000F0017001F0027002F0036003E00C6
S11326FA46004E0056005E0065006D0075007D00C0
S113270A85008C0094009C00A400AB00B300BB00BD
S113271AC300CA00D200DA00E100E900F100F800BF
S113272A000107010F0116011E0126012D013501C1
S113273A3C0143014B0152015A01610168017001D4
S113274A77017E0185018D0194019B01A201A901F2
S113275AB001B701BE01C501CC01D301DA01E1011F
S113276AE801EF01F601FD0103020A021102170250
S113277A1E0225022B02320238023F0245024B0294
S113278A520258025E0264026B02710277027D02EF
S113279A830289028F0295029B02A102A602AC025D
S11327AAB202B702BD02C302C802CE02D302D802E1
S11327BADE02E302E802EE02F302F802FD02020379
S11327CA07030C03110316031A031F032403290323
S11327DA2D03320336033B033F03430348034C03ED
S11327EA5003540358035C036003640368036C03D3
S11327FA7003730377037B037E03820385038803D1
S113280A8C038F039203950398039B039E03A103EE
S113281AA403A703AA03AC03AF03B203B403B70325
S113282AB903BB03BE03C003C203C403C603C8037C
S113283ACA03CC03CE03CF03D103D303D403D603F1
S113284AD703D903DA03DB03DC03DE03DF03E00384
S113285AE103E103E203E303E403E403E503E60338
S113286AE603E603E703E703E703E703E703E8030B
S113287A0201010000803FE40B100C3C0C680C01BF
S113288A000503017469656D706F3B6572726F723E
S113289A3B696E74656772616C3B646572697661E3
S11328AA64613B736574506F696E740A0064617481
S10928BA6F733A200000D8
S9030000FC
