:100000000C9434000C9426090C94E5080C945100CF
:100010000C9451000C9451000C9451000C946709FD
:100020000C9451000C9451000C9451000C94A103B9
:100030000C94E3030C9451000C94FB090C945100B4
:100040000C9451000C9451000C94AC0B0C94450B87
:100050000C9451000C944F0A0C9451000C945100D4
:100060000C9451000C94510011241FBECFEFD8E026
:10007000DEBFCDBF12E0A0E0B1E0EEEAFCE102C0DD
:1000800005900D92AC3EB107D9F724E0ACEEB2E09A
:1000900001C01D92AA3CB207E1F70E94D5020C9460
:1000A000550E0C9400008AB18F778AB98BB18068A5
:1000B0008BB984B18E7F84B985B1816085B908958B
:1000C0004F9B10C01092F0028091F1028F5F8093DD
:1000D000F1028031E0F081E08093EE0284E68093CB
:1000E000F10215C01092F1028091F0028F5F8093AF
:1000F000F002803128F01092EE0284E68093F00244
:100100008091F0028D3019F481E08093EC0218990F
:100110000BC08091EF028F5F8093EF028B3030F045
:1001200081E08093ED0208951092EF02089561E05E
:100130008AEB92E00E94310B0895CF93DF93EC019C
:10014000DB0190E040E050EF1BC0FE01E423F5230B
:1001500023E030E0291B3109220F331F220F331F08
:1001600002C0F695E7952A95E2F7E050FF4F8081AF
:100170008D93529542954F7045275F7045279F5F3D
:10018000943018F31C92DF91CF910895CF92DF92B3
:10019000EF92FF92CF936B017C01FA01C0E040E047
:1001A00050E060E070EF24C0DB01CA018C219D218A
:1001B000AE21BF2127E030E02C1B3109220F331F75
:1001C000220F331F04C0B695A795979587952A955A
:1001D000D2F7DC01A050BF4F8C918083689413F854
:1001E00076956795579547951694D1F7CF5F3196D9
:1001F000C830D0F21082CF91FF90EF90DF90CF9077
:100200000895CF93DF93CDB7DEB76F970FB6F8940D
:10021000DEBF0FBECDBF0E940C0B8F3D20F081E0F2
:100220008093F20206C00E940C0B883210F41092E8
:10023000F2028091F202882309F45AC00E949709C1
:10024000AE014F5F5F4F0E94C6006AE0CE0101968B
:100250000E94310B8BE30E94170B0E949204BE0197
:10026000675E7F4F0E949D0067E0CE0149960E9425
:10027000310B8BE30E94170B0E948604BE016E5E59
:100280007F4F0E949D0067E0CE0142960E94310B95
:100290008BE30E94170B0E947A04BE01655F7F4FBB
:1002A0000E949D0067E0CE010B960E94310B8BE30C
:1002B0000E94170B0E947B0ABC0180E090E00E9424
:1002C000090D2DEC3CEC44E551E40E94C00D0E9468
:1002D000D30CDC01CB01BE01675E7F4F0E949D0005
:1002E00067E0CE0149960E94310B8AE00E94170B0D
:1002F0006F960FB6F894DEBF0FBECDBFDF91CF91E2
:1003000008953F924F925F926F927F928F929F9249
:10031000AF92BF92CF92DF92EF92FF920F931F9313
:10032000CF93DF93CDB7DEB7C254D1090FB6F8949F
:10033000DEBF0FBECDBFCE0101960E947D0B88238C
:1003400009F41AC1FE01F39680E1DF011D928A953E
:10035000E9F76AE083EE92E00E94310B6AE0CE0199
:1003600001960E94310BE12CF12CC4C0BDE23B127E
:1003700005C0B7FAB094B7F8B0942FC0C32CD12CF5
:10038000E0E3CE1AD1080E2D10E0000F111F000F70
:10039000111F81E090E08C0F9D1F080F191FD801DD
:1003A000D2966D917D918D919C91D59720E030E012
:1003B00040E251E40E94C00D2B013C01B601DD0C6E
:1003C000880B990B0E940B0DA30192010E94F00B68
:1003D000F80162AB73AB84AB95AB832D0E94170B16
:1003E000F39408C00F2E812C912CF0E8AF2EFFE380
:1003F000BF2EF02DE1E0F0E0EC0FFD1FEF0DF11D41
:100400003080FCE23F1609F447C08EE2381609F44A
:1004100043C090E2391609F43FC03110A7CF3CC069
:100420000E32C9F10C32B9F110E000531109CE2C93
:10043000D12CCC0CDD1CCC0CDD1CA1E0B0E0AC0F51
:10044000BD1FCA0EDB1EF60162A973A984A995A976
:1004500020E030E040E251E40E94C00D2B013C015D
:10046000B801110F880B990B0E940B0DA30192018B
:100470000E94F00BD601D2966D937D938D939C9341
:10048000D59720E030E040E251E4C501B4010E947C
:10049000C00D4B015C01F394E1E0F0E0EC0FFD1FB7
:1004A000EF0DF11D0081003211F00111B9CFCE2CFA
:1004B000D12CCC0CDD1CCC0CDD1CE1E0F0E0EC0F11
:1004C000FD1FCE0EDF1ED601D2966D917D918D91CE
:1004D0009C91D597A50194010E94610CF60162AB35
:1004E00073AB84AB95ABE394003221F4802F0E9470
:1004F000170BF394E1E0F0E0EC0FFD1FEF0DF11DA1
:10050000808181116FCF6BA97CA98DA99EA923E35E
:1005100033E343E451EC0E945C0C811104C08BB1C5
:1005200080648BB903C08BB18F7B8BB9F4E0EF1281
:1005300023C06BA97CA98DA99EA90E9496056FA9CD
:1005400078AD89AD9AAD0E9484056BAD7CAD8DAD63
:100550009EAD0E948D0523966CAD7DAD8EAD9FAD99
:1005600023970E94DA0C162F862F90E00E949F0599
:1005700080E3810F0E94170BCE5BDF4F0FB6F8941C
:10058000DEBF0FBECDBFDF91CF911F910F91FF90C6
:10059000EF90DF90CF90BF90AF909F908F907F9023
:1005A0006F905F904F903F9008950E94F20A0E94D2
:1005B00080030E94B8080E94650A0E9453008AB115
:1005C00080628AB978940E9497000E94F2090E9482
:1005D000D109FDCFBC01009761F485B187708863B4
:1005E00085B981E0809310018093110160E07AEF7A
:1005F00066C0992384F48FEF8093F402719561951E
:1006000071098091F302813011F4809311018FEF11
:100610008093F3020DC081E08093F4028091F30295
:100620008F3F19F481E08093110181E08093F30200
:10063000653F81E078075CF088E199E70E94410E10
:1006400080E18093100185B1877085B938C06B3F18
:10065000710564F088E99AE30E94410E88E0809376
:10066000100185B18770806285B929C06E37710528
:1006700064F08CE49DE10E94410E84E080931001BF
:1006800085B18770806185B91AC06034710564F0E6
:1006900086EA9EE00E94410E82E08093100185B1BF
:1006A0008770806385B90BC083E597E00E94410E97
:1006B00081E08093100185B18770886385B980914E
:1006C0001101882321F0645C7F4F10921101209169
:1006D000840030918500CB0101978217930758F46D
:1006E000709389006093880062507109709385004F
:1006F0006093840008957093890060938800089542
:1007000084B18E6384B98AB180688AB910928000FE
:100710008DE08093810086E086BB20E130E030935D
:100720008B0020938A0020E737E1309389002093E3
:10073000880080936F0008958091F5029091F602F1
:1007400008951F920F920FB60F9211242F933F938B
:100750008F939F933091F402209110018091F502C4
:100760009091F6023202800D911D11248033954341
:1007700008F53091F402209110018091F5029091DA
:10078000F6023202800D911D1124892B99F085B15A
:10079000846085B93091F402209110018091F502B6
:1007A0009091F6023202800D911D11249093F60271
:1007B0008093F5029F918F913F912F910F900FBEE3
:1007C0000F901F9018951F920F920FB60F92112441
:1007D0008F9385B18B7F85B98091F402813019F4B4
:1007E00085B18D7F85B98091F4028F3F19F485B171
:1007F000826085B98F910F900FBE0F901F90189552
:1008000068EF72E08CEF92E00E94FD07E091F70242
:10081000F0E0EE0FFF1FEE5EFE4F0190F081E02D45
:10082000099560930A0370930B0380930C039093D4
:100830000D032091EC02222361F02091AA022223D1
:1008400019F01092AA0203C021E02093AA0210928C
:10085000EC022091AA022223A1F120E030E04AE735
:1008600054E40E94BB0D181664F480E090E0AAE7FF
:10087000B4E480930A0390930B03A0930C03B0930A
:100880000D0360910A0370910B0380910C0390910A
:100890000D0320E030E04AE754EC0E945C0C882312
:1008A00064F480E090E0AAE7B4EC80930A039093AC
:1008B0000B03A0930C03B0930D038BB180628BB933
:1008C0000BC010920A0310920B0310920C031092AB
:1008D0000D038BB18F7D8BB960910A0370910B036F
:1008E00080910C0390910D030E94D30CCB010E94C8
:1008F000EA0208956091FE027091FF028091000368
:10090000909101030E94D30CCB01089560910603DE
:100910007091070380910803909109030E94D30C02
:10092000CB0108958091FA029091FB020895BC01D9
:10093000990F880B990B0E940B0D20910E0330919B
:100940000F0340911003509111030E94C00D20919C
:1009500006033091070340910803509109030E9458
:10096000F00B609306037093070380930803909342
:10097000090320E836E948E15BE40E94BB0D181644
:1009800064F480E896E9A8E1BBE4809306039093C1
:100990000703A0930803B0930903609106037091C5
:1009A0000703809108039091090320E836E948E1A4
:1009B0005BEC0E945C0C882364F480E896E9A8E173
:1009C000BBEC8093060390930703A0930803B093B6
:1009D00009030895CF92DF92EF92FF926091F8029F
:1009E0007091F902072E000C880B990B0E940B0DD9
:1009F0009B01AC0160E070E086E194E40E94610C30
:100A00006B017C0128E431EE4AE75FE36091FE026E
:100A10007091FF0280910003909101030E94C00D2C
:100A20009B01AC01C701B6010E94F00B6093FE026E
:100A30007093FF028093000390930103FF90EF9067
:100A4000DF90CF900895CF92DF92EF92FF92809146
:100A5000FC029091FD029093FB028093FA020E94A7
:100A6000EA048091FC029091FD020E94970460913B
:100A7000FC027091FD02072E000C880B990B0E945E
:100A80000B0D2091AB023091AC024091AD02509120
:100A9000AE020E94C00D6B017C012091FE023091DC
:100AA000FF02409100035091010360911203709185
:100AB000130380911403909115030E94C00D9B01B4
:100AC000AC01C701B6010E94F00B6B017C012091C3
:100AD0000603309107034091080350910903609188
:100AE0000E0370910F0380911003909111030E94E7
:100AF000C00D9B01AC01C701B6010E94F00BFF9035
:100B0000EF90DF90CF90089560930E0370930F03E2
:100B100080931003909311030895609312037093D0
:100B20001303809314039093150308956093AB020D
:100B30007093AC028093AD029093AE0208959091B1
:100B4000F702981751F08093F70210920603109263
:100B500007031092080310920903089560E273E0FE
:100B60000E94410E992314F4805E9C4F803921E04D
:100B70009207DCF060E971E00E94410E893C91052A
:100B80004CF028EC30E0B9010E94410EA901481B4D
:100B9000590BCA01880F991FFC01E85EFE4F808146
:100BA0009181919581959109089560E971E00E9484
:100BB000410E893C91054CF028EC30E0B9010E94CF
:100BC000410EA901481B590BCA01880F991FFC014E
:100BD000E85EFE4F808191810895CF92DF92EF927F
:100BE000FF92CF938091FC029091FD0260E273E04E
:100BF0000E94410E9093FD028093FC02992334F4ED
:100C0000805E9C4F9093FD028093FC028091FC02D9
:100C10009091FD029C012F5531402336310510F093
:100C2000C1E001C0CFEF0E94AE059093FD0280931A
:100C3000FC029093FB028093FA020E94EA048091E6
:100C4000FC029091FD020E9497046C2FCC0F770B51
:100C5000880B990B0E940B0D2091AB023091AC02D6
:100C60004091AD025091AE020E94C00D6B017C011B
:100C70006091FC027091FD02072E000C880B990B0D
:100C80000E940B0DA70196010E94C00D6B017C0113
:100C90002091FE023091FF02409100035091010328
:100CA00060911203709113038091140390911503C6
:100CB0000E94C00D9B01AC01C701B6010E94F00B60
:100CC0006B017C01209106033091070340910803DA
:100CD0005091090360910E0370910F0380911003EE
:100CE000909111030E94C00D9B01AC01C701B60198
:100CF0000E94F00BCF91FF90EF90DF90CF9008957E
:100D0000CF92DF92EF92FF92CF93DF938091FC021C
:100D10009091FD020E94AE059093FD028093FC022B
:100D20000E947B0ABC0180E090E00E94090D2DEC3E
:100D30003CEC44E551E40E94C00D609302037093C3
:100D4000030380930403909305036091FC02709168
:100D5000FD02072E000C880B990B0E940B0D20E062
:100D600030E040ED50E40E94C00D0E94D30C70931F
:100D7000FD026093FC020E949C03C091FC02D09192
:100D8000FD028C0F9D1F9093FB028093FA020E943C
:100D90009C039E01281B390BC9010E94EA04C090E4
:100DA0000203D0900303E0900403F09005030E9437
:100DB0009C03BC0180E090E00E94090D9B01AC0106
:100DC000C701B6010E94EF0B6B017C016091FC0230
:100DD0007091FD02072E000C880B990B0E940B0DE1
:100DE000A70196010E94F00B0E94D30C7093FD02A4
:100DF0006093FC02CB010E9497046091FC02709109
:100E0000FD02072E000C880B990B0E940B0D209100
:100E1000AB023091AC024091AD025091AE020E9403
:100E2000C00D6B017C012091FE023091FF024091C8
:100E3000000350910103609112037091130380919C
:100E40001403909115030E94C00D9B01AC01C701D2
:100E5000B6010E94F00B6B017C01209106033091DA
:100E60000703409108035091090360910E037091AC
:100E70000F0380911003909111030E94C00D9B01FC
:100E8000AC01C701B6010E94F00BDF91CF91FF903A
:100E9000EF90DF90CF90089580911E03882391F00A
:100EA00080912803909129030197909329038093BF
:100EB00028038FEF9FEF909323038093220382E018
:100EC0008093160380911F03882389F08091280363
:100ED000909129030196909329038093280381E040
:100EE00090E0909323038093220380931603089548
:100EF00080911E03882391F080912803909129030B
:100F00000196909329038093280381E090E09093C9
:100F100023038093220383E08093160380911F03B1
:100F2000811111C08091280390912903019790931A
:100F30002903809328038FEF9FEF909323038093DF
:100F4000220310921603089580911E03811111C08F
:100F5000809128039091290301969093290380930F
:100F6000280381E090E09093230380932203109262
:100F7000160380911F03882391F08091280390919C
:100F80002903019790932903809328038FEF9FEF04
:100F9000909323038093220383E0809316030895A4
:100FA00080911E03811112C0809128039091290322
:100FB000019790932903809328038FEF9FEF9093DD
:100FC00023038093220381E08093160380911F0303
:100FD000811112C08091280390912903019690936A
:100FE00029038093280381E090E09093230380936A
:100FF000220382E0809316030895CF93DF93EB01E1
:101000002091280330912903FC013183208320970C
:1010100009F44FC060911B0370911C038091190368
:1010200090911A03680F791F772314F46F5F7F4F35
:101030009B0135952795E0912203F0912303809140
:10104000200390912103E817F90759F580911703C0
:10105000909118032817390781F0309318032093D3
:1010600017032E9FC0012F9F900D3E9F900D1124BE
:101070009983888310921D0318C080912603909154
:10108000270365E070E00E94410E620F731FE69F28
:10109000C001E79F900DF69F900D112499838883DE
:1010A00004C080E89EE399838883F0932103E09352
:1010B0002003DF91CF91089590911E0380911F032B
:1010C000892319F083E08093160320911E0381E0A9
:1010D00090E0222311F080E090E020911F0330E0A7
:1010E00082239323892B19F082E0809316032091A9
:1010F0001E0330911F0381E090E0332311F080E064
:1011000090E030E082239323892B19F081E08093D3
:10111000160380911E0320911F0391E0811190E03E
:1011200081E0211180E0892311F0109216032FEF46
:1011300080E792E0215080409040E1F700C000003D
:1011400089B1887080931F0389B1847080931E03D6
:10115000E0911603F0E0EE0FFF1FE155FD4F019007
:10116000F081E02D0995109229031092280308952B
:101170008AB18B7F8AB98BB184608BB98AB1877F42
:101180008AB98BB188608BB98DB381608DBBE9E67C
:10119000F0E080818160808380818D7F80838DB34A
:1011A00082608DBB8081846080838081877F808323
:1011B00082E08093B00094E09093B1009093B300EC
:1011C000809370000E945C0808951F920F920FB6E2
:1011D0000F9211242F933F934F935F936F937F93BD
:1011E0008F939F93AF93BF93EF93FF9380912403CB
:1011F0009091250390931A0380931903109225036D
:101200001092240389B1887080931F0389B1847080
:1012100080931E03E0911603F0E0EE0FFF1FE155EF
:10122000FD4F0190F081E02D0995FF91EF91BF9165
:10123000AF919F918F917F916F915F914F913F916E
:101240002F910F900FBE0F901F9018951F920F9225
:101250000FB60F9211242F933F934F935F936F9389
:101260007F938F939F93AF93BF93EF93FF9380915F
:1012700026039091270390931C0380931B031092E5
:1012800027031092260389B1887080931F0389B1C8
:10129000847080931E03E0911603F0E0EE0FFF1FB1
:1012A000E155FD4F0190F081E02D0995FF91EF91FF
:1012B000BF91AF919F918F917F916F915F914F916E
:1012C0003F912F910F900FBE0F901F9018951F9276
:1012D0000F920FB60F9211242F938F939F938091AB
:1012E00026039091270381159D4749F0809126039D
:1012F0009091270301969093270380932603809172
:1013000024039091250381159D4749F08091240382
:1013100090912503019690932503809324039F9138
:101320008F912F910F900FBE0F901F901895609185
:101330002A0370912B0380912C0390912D03089523
:10134000809137038F5F80933703823029F481E0E7
:1013500080933403109237038091B9028F5F80939A
:10136000B902843129F481E0809335031092B902E7
:101370008091B8028F5F8093B8028A3029F481E0AF
:10138000809333031092B8028091B7028F5F8093ED
:10139000B702883229F481E0809332031092B702B9
:1013A000089580913403882321F00E940004109254
:1013B000340380913503882321F00E9401011092AB
:1013C000350380913303882321F00E94600010923E
:1013D000330380913203882321F00E94810110920F
:1013E0003203089582E084BD93E095BD9CE797BDEC
:1013F00080936E0008951F920F920FB60F921124E2
:101400002F933F934F935F936F937F938F939F930C
:10141000AF93BF93EF93FF930E94A00980912E0397
:1014200090912F03A0913003B09131030196A11D3B
:10143000B11D80932E0390932F03A0933003B0939C
:1014400031038091360391E0980F909336038330F7
:10145000A8F080912A0390912B03A0912C03B091C6
:101460002D030196A11DB11D80932A0390932B0398
:10147000A0932C03B0932D0310923603FF91EF91AC
:10148000BF91AF919F918F917F916F915F914F919C
:101490003F912F910F900FBE0F901F9018951F92A4
:1014A0000F920FB60F9211248F939F938091780023
:1014B0009091790090937A03809379039F918F9113
:1014C0000F900FBE0F901F90189587B18E7F87B930
:1014D00088B18E7F88B981E080937E00EAE7F0E0F2
:1014E0008FEA8083ACE7B0E08C9180648C9380813C
:1014F000806480830895CF93DF939091380381E0D7
:10150000963908F480E02AE6829F900D112490938A
:1015100038038091380390E001966FE070E00E94FC
:10152000410E80933803C0913803D0E0CC0FDD1F0B
:10153000CC0FDD1FC35CDC4F6091790370917A039F
:10154000072E000C880B990B0E940B0D6883798382
:101550008A839B831092390310923A0310923B03C3
:1015600010923C03C0E028C08091380390E00F96B1
:101570008C1B91096FE070E00E94410EFC01EE0FA0
:10158000FF1FEE0FFF1FE35CFC4F608171818281C2
:1015900093812091390330913A0340913B0350915C
:1015A0003C030E94F00B6093390370933A038093DD
:1015B0003B0390933C03CF5FCF30B0F220E030E0AC
:1015C00040E751E46091390370913A0380913B0305
:1015D00090913C030E94610C0E94DA0CCB01DF91D8
:1015E000CF91089586E08093C20083E08093C40089
:1015F000E1ECF0E08081806180838081806880837D
:10160000808188608083808180628083E0ECF0E06C
:1016100080818062808308959091E2038091E3034A
:10162000981718F0891B8A510895891B0895482F2F
:101630002091E20330E0C901019666EE70E00E945D
:10164000410E9091E303981759F0F901EC51FC4FCA
:1016500040838093E203E1ECF0E08081806280834C
:1016600008951F93CF93DF93EC01162F0E940C0B6C
:10167000181720F006C00E94170B2196888181114F
:10168000FACFDF91CF911F9108951F920F920FB65D
:101690000F9211245F936F937F938F939F93AF93D8
:1016A000BF93EF93FF93E091E3038091E203E81788
:1016B00089F0F0E0EC51FC4F80818093C60080916E
:1016C000E30390E0019666EE70E00E94410E809385
:1016D000E30305C0E1ECF0E080818F7D8083FF9122
:1016E000EF91BF91AF919F918F917F916F915F919A
:1016F0000F900FBE0F901F901895CF93DF93EC01C2
:1017000080917B03882321F1F89420E011C0FE0131
:10171000E20FF11D90E0DC01A258BC4F3C913083F8
:10172000019664E670E00E94410E80937D032F5F76
:1017300090917C0380917D03981711F0233638F344
:1017400010927B037894C20FD11D188281E001C0F2
:1017500080E0DF91CF9108951F920F920FB60F9204
:1017600011242F933F935F936F937F938F939F9356
:10177000AF93BF93EF93FF9380917C0390E001962A
:1017800064E670E00E94410E9091C60020917D03B6
:101790002817A9F09A3011F09D3021F481E0809350
:1017A0007B030DC030917B03311120937C03E091CA
:1017B0007C03F0E0E258FC4F908380937C03FF9120
:1017C000EF91BF91AF919F918F917F916F915F91B9
:1017D0003F912F910F900FBE0F901F90189550586A
:1017E000BB27AA270E94070C0C94810D0E94730D41
:1017F00038F00E947A0D20F039F49F3F19F426F456
:101800000C94700D0EF4E095E7FB0C946A0DE92F33
:101810000E94920D58F3BA17620773078407950761
:1018200020F079F4A6F50C94B40D0EF4E0950B2E8F
:10183000BA2FA02D0B01B90190010C01CA01A00122
:101840001124FF27591B99F0593F50F4503E68F17D
:101850001A16F040A22F232F342F4427585FF3CFBE
:10186000469537952795A795F0405395C9F77EF48F
:101870001F16BA0B620B730B840BBAF09150A1F0D8
:10188000FF0FBB1F661F771F881FC2F70EC0BA0F5E
:10189000621F731F841F48F4879577956795B795E6
:1018A000F7959E3F08F0B0CF9395880F08F09927E1
:1018B000EE0F9795879508950E94460D08F481E0F4
:1018C00008950E94750C0C94810D0E947A0D58F0B9
:1018D0000E94730D40F029F45F3F29F00C946A0DCB
:1018E00051110C94B50D0C94700D0E94920D68F37B
:1018F0009923B1F3552391F3951B550BBB27AA27C9
:1019000062177307840738F09F5F5F4F220F331F02
:10191000441FAA1FA9F335D00E2E3AF0E0E832D0CA
:1019200091505040E695001CCAF72BD0FE2F29D0CD
:10193000660F771F881FBB1F261737074807AB079F
:10194000B0E809F0BB0B802DBF01FF2793585F4F14
:101950003AF09E3F510578F00C946A0D0C94B50D49
:101960005F3FE4F3983ED4F3869577956795B795F6
:10197000F7959F5FC9F7880F911D9695879597F901
:101980000895E1E0660F771F881FBB1F621773077A
:101990008407BA0720F0621B730B840BBA0BEE1F8F
:1019A00088F7E09508950E94DA0C6894B1110C94C0
:1019B000B50D08950E949A0D88F09F5798F0B92FA1
:1019C0009927B751B0F0E1F0660F771F881F991F74
:1019D0001AF0BA95C9F714C0B13091F00E94B40D55
:1019E000B1E008950C94B40D672F782F8827B85F65
:1019F00039F0B93FCCF3869577956795B395D9F7CC
:101A00003EF490958095709561957F4F8F4F9F4FD5
:101A10000895E89409C097FB3EF4909580957095E1
:101A200061957F4F8F4F9F4F9923A9F0F92F96E92A
:101A3000BB279395F695879577956795B795F1119F
:101A4000F8CFFAF4BB0F11F460FF1BC06F5F7F4F3C
:101A50008F4F9F4F16C0882311F096E911C077234E
:101A600021F09EE8872F762F05C0662371F096E857
:101A7000862F70E060E02AF09A95660F771F881F26
:101A8000DAF7880F9695879597F90895990F0008CA
:101A9000550FAA0BE0E8FEEF16161706E807F90740
:101AA000C0F012161306E407F50798F0621B730BDB
:101AB000840B950B39F40A2661F0232B242B252B5C
:101AC00021F408950A2609F4A140A6958FEF811DFF
:101AD000811D089597F99F6780E870E060E00895A0
:101AE0009FEF80EC089500240A9416161706180636
:101AF0000906089500240A94121613061406050612
:101B00000895092E0394000C11F4882352F0BB0FA2
:101B100040F4BF2B11F460FF04C06F5F7F4F8F4F05
:101B20009F4F089557FD9058440F551F59F05F3F40
:101B300071F04795880F97FB991F61F09F3F79F0EF
:101B400087950895121613061406551FF2CF469571
:101B5000F1DF08C0161617061806991FF1CF8695F3
:101B60007105610508940895E894BB2766277727D7
:101B7000CB0197F908950E94460D08F48FEF089560
:101B80000E94D30D0C94810D0E94730D38F00E94B9
:101B90007A0D20F0952311F00C946A0D0C94700DC1
:101BA00011240C94B50D0E94920D70F3959FC1F312
:101BB000950F50E0551F629FF001729FBB27F00DFB
:101BC000B11D639FAA27F00DB11DAA1F649F662750
:101BD000B00DA11D661F829F2227B00DA11D621F9F
:101BE000739FB00DA11D621F839FA00D611D221F59
:101BF000749F3327A00D611D231F849F600D211D3D
:101C0000822F762F6A2F11249F5750409AF0F1F0BF
:101C100088234AF0EE0FFF1FBB1F661F771F881F28
:101C200091505040A9F79E3F510580F00C946A0DE9
:101C30000C94B50D5F3FE4F3983ED4F38695779509
:101C40006795B795F795E7959F5FC1F7FE2B880FCE
:101C5000911D9695879597F90895AA1BBB1B51E195
:101C600007C0AA1FBB1FA617B70710F0A61BB70B0C
:101C7000881F991F5A95A9F780959095BC01CD01B1
:101C8000089597FB072E16F4009407D077FD09D02E
:101C90000E942D0E07FC05D03EF4909581959F4F34
:0E1CA0000895709561957F4F0895F894FFCFD9
:101CAE003031323334353637383941424344454684
:101CBE000101ED0523058006000007000F00170047
:101CCE001F0027002F0036003E0046004E00560033
:101CDE005E0065006D0075007D0085008C0094002F
:101CEE009C00A400AB00B300BB00C300CA00D2002E
:101CFE00DA00E100E900F100F800000107010F0130
:101D0E0016011E0126012D0135013C0143014B0137
:101D1E0052015A0161016801700177017E0185014E
:101D2E008D0194019B01A201A901B001B701BE0171
:101D3E00C501CC01D301DA01E101E801EF01F601A1
:101D4E00FD0103020A02110217021E0225022B02D6
:101D5E00320238023F0245024B02520258025E0224
:101D6E0064026B02710277027D02830289028F0286
:101D7E0095029B02A102A602AC02B202B702BD02FC
:101D8E00C302C802CE02D302D802DE02E302E80288
:101D9E00EE02F302F802FD02020307030C03110325
:101DAE0016031A031F03240329032D0332033603DC
:101DBE003B033F03430348034C03500354035803B0
:101DCE005C036003640368036C037003730377039F
:101DDE007B037E038203850388038C038F039203A8
:101DEE00950398039B039E03A103A403A703AA03D1
:101DFE00AC03AF03B203B403B703B903BB03BE0313
:101E0E00C003C203C403C603C803CA03CC03CE0374
:101E1E00CF03D103D303D403D603D703D903DA03F5
:101E2E00DB03DC03DE03DF03E003E103E103E20394
:101E3E00E303E403E403E503E603E603E603E70353
:101E4E00E703E703E703E703E80301CDCCCC3D4C02
:101E5E00077807A407D0070503017469656D706FD5
:101E6E003B6572726F723B696E74656772616C3B33
:101E7E0064657269766164613B736574506F696EF7
:0C1E8E00740A006461746F733A20000055
:00000001FF
