S0110000477275614D656A6F722E7372656387
S11300000C9434000C94330A0C94F2090C945100AF
S11300100C9451000C9451000C9451000C94740AEB
S11300200C9451000C9451000C9451000C94B8039E
S11300300C94FA030C9451000C94080B0C9451008A
S11300400C9451000C9451000C94B90C0C94520C67
S11300500C9451000C945C0B0C9451000C945100C2
S11300600C9451000C94510011241FBECFEFD8E022
S1130070DEBFCDBF12E0A0E0B1E0E8ECFEE102C0DB
S113008005900D92AE3EB107D9F725E0AEEEB2E091
S113009001C01D92A330B207E1F70E94E8020C945C
S11300A0620F0C9400008AB18F778AB98BB1806893
S11300B08BB984B18E7F84B985B1816085B9089587
S11300C04F9B10C01092F4028091F5028F5F8093D1
S11300D0F5028031E0F081E08093F10284E68093C0
S11300E0F50215C01092F5028091F4028F5F80939F
S11300F0F402803128F01092F10284E68093F40235
S11301008091F4028D3019F481E08093EF02189904
S11301100DC01092F2028091F3028F5F8093F3027C
S11301208031B8F081E08093F00208958091F2026A
S11301308F5F8093F202803128F01092F00284E6FF
S11301408093F2028091F2028D3019F481E0809361
S1130150EE02089561E08DEB92E00E943E0C08955A
S1130160CF93DF93EC01DB0190E040E050EF1BC044
S1130170FE01E423F52323E030E0291B3109220F9B
S1130180331F220F331F02C0F695E7952A95E2F735
S1130190E050FF4F80818D93529542954F704527D3
S11301A05F7045279F5F943018F31C92DF91CF91C5
S11301B00895CF92DF92EF92FF92CF936B017C016F
S11301C0FA01C0E040E050E060E070EF24C0DB01E1
S11301D0CA018C219D21AE21BF2127E030E02C1BD8
S11301E03109220F331F220F331F04C0B695A79580
S11301F0979587952A95D2F7DC01A050BF4F8C9133
S11302008083689413F87695679557954795169467
S1130210D1F7CF5F3196C830D0F21082CF91FF90E2
S1130220EF90DF90CF900895CF93DF93CDB7DEB7F3
S11302306F970FB6F894DEBF0FBECDBF0E94190CA6
S11302408F3D20F081E08093F60206C00E94190CD5
S1130250883210F41092F6028091F602882309F491
S11302605AC00E94A40AAE014F5F5F4F0E94D9009A
S11302706AE0CE0101960E943E0C8BE30E94240C9E
S11302800E94F504BE01675E7F4F0E94B00067E0E4
S1130290CE0149960E943E0C8BE30E94240C0E94DE
S11302A0E904BE016E5E7F4F0E94B00067E0CE019C
S11302B042960E943E0C8BE30E94240C0E94DD04B3
S11302C0BE01655F7F4F0E94B00067E0CE010B96D0
S11302D00E943E0C8BE30E94240C0E94880BBC01FC
S11302E080E090E00E94160E2DEC3CEC44E551E4D5
S11302F00E94CD0E0E94E00DDC01CB01BE01675EC1
S11303007F4F0E94B00067E0CE0149960E943E0CE8
S11303108AE00E94240C6F960FB6F894DEBF0FBEDD
S1130320CDBFDF91CF9108953F924F925F926F922C
S11303307F928F929F92AF92BF92CF92DF92EF9271
S1130340FF920F931F93CF93DF93CDB7DEB7C254C1
S1130350D1090FB6F894DEBF0FBECDBFCE01019612
S11303600E948A0C882309F41AC1FE01F39680E1E5
S1130370DF011D928A95E9F76AE086EE92E00E9419
S11303803E0C6AE0CE0101960E943E0CE12CF12C59
S1130390C4C0BDE23B1205C0B7FAB094B7F8B0943C
S11303A02FC0C32CD12CE0E3CE1AD1080E2D10E0BF
S11303B0000F111F000F111F81E090E08C0F9D1F93
S11303C0080F191FD801D2966D917D918D919C9142
S11303D0D59720E030E040E251E40E94CD0E2B019D
S11303E03C01B601DD0C880B990B0E94180EA30189
S11303F092010E94FD0CF80162AB73AB84AB95AB28
S1130400832D0E94240CF39408C00F2E812C912C70
S1130410F0E8AF2EFFE3BF2EF02DE1E0F0E0EC0FAB
S1130420FD1FEF0DF11D3080FCE23F1609F447C0BB
S11304308EE2381609F443C090E2391609F43FC03D
S11304403110A7CF3CC00E32C9F10C32B9F110E023
S113045000531109CE2CD12CCC0CDD1CCC0CDD1C92
S1130460A1E0B0E0AC0FBD1FCA0EDB1EF60162A90D
S113047073A984A995A920E030E040E251E40E94E8
S1130480CD0E2B013C01B801110F880B990B0E9472
S1130490180EA30192010E94FD0CD601D2966D9311
S11304A07D938D939C93D59720E030E040E251E416
S11304B0C501B4010E94CD0E4B015C01F394E1E04F
S11304C0F0E0EC0FFD1FEF0DF11D0081003211F083
S11304D00111B9CFCE2CD12CCC0CDD1CCC0CDD1CE5
S11304E0E1E0F0E0EC0FFD1FCE0EDF1ED601D29648
S11304F06D917D918D919C91D597A50194010E9458
S11305006E0DF60162AB73AB84AB95ABE394003232
S113051021F4802F0E94240CF394E1E0F0E0EC0F2E
S1130520FD1FEF0DF11D808181116FCF6BA97CA997
S11305308DA99EA923E333E343E451EC0E94690DA2
S1130540811104C08BB180648BB903C08BB18F7BE4
S11305508BB9F4E0EF1223C06BA97CA98DA99EA9E5
S11305600E942F066FA978AD89AD9AAD0E9403064B
S11305706BAD7CAD8DAD9EAD0E94260623966CAD11
S11305807DAD8EAD9FAD23970E94E70D162F862F6C
S113059090E00E94380680E3810F0E94240CCE5B19
S11305A0DF4F0FB6F894DEBF0FBECDBFDF91CF9102
S11305B01F910F91FF90EF90DF90CF90BF90AF907D
S11305C09F908F907F906F905F904F903F90089591
S11305D00E94FF0B0E9497030E94C5090E94720BA0
S11305E00E9453008AB180628AB978940E94AA005A
S11305F080E090E00E9401030E94FF0A0E94DE0A4C
S1130600FDCFBC01009761F485B18770886385B91B
S113061081E0809310018093110160E07AEF66C05D
S1130620992384F48FEF8093F80271956195710991
S11306308091F702813011F4809311018FEF809340
S1130640F7020DC081E08093F8028091F7028F3F9A
S113065019F481E08093110181E08093F702653FF2
S113066081E078075CF088E199E70E944E0F80E111
S11306708093100185B1877085B938C06B3F7105CF
S113068064F088E99AE30E944E0F88E08093100199
S113069085B18770806285B929C06E37710564F0B1
S11306A08CE49DE10E944E0F84E08093100185B19B
S11306B08770806185B91AC06034710564F086EA78
S11306C09EE00E944E0F82E08093100185B18770F6
S11306D0806385B90BC083E597E00E944E0F81E0EB
S11306E08093100185B18770886385B98091110169
S11306F0882321F0645C7F4F1092110120918400C3
S113070030918500CB0101978217930758F47093B9
S1130710890060938800625071097093850060932A
S1130720840008957093890060938800089584B1CB
S11307308E6384B98AB180688AB9109280008DE092
S11307408093810086E086BB20E130E030938B000B
S113075020938A0020E737E13093890020938800B2
S113076080936F0008958091F9029091FA020895A0
S11307701F920F920FB60F9211242F933F938F93D2
S11307809F933091F802209110018091F902909189
S1130790FA023202800D911D11248033954308F52D
S11307A03091F802209110018091F9029091FA029F
S11307B03202800D911D1124892B99F085B184603A
S11307C085B93091F802209110018091F90290913D
S11307D0FA023202800D911D11249093FA02809343
S11307E0F9029F918F913F912F910F900FBE0F901F
S11307F01F9018951F920F920FB60F9211248F938A
S113080085B18B7F85B98091F802813019F485B167
S11308108D7F85B98091F8028F3F19F485B182608C
S113082085B98F910F900FBE0F901F9018958F92DE
S11308309F92AF92BF92CF92DF92EF92FF926CEFB2
S113084072E080E093E00E940909E091FB02F0E08D
S1130850EE0FFF1FEE5EFE4F0190F081E02D099533
S113086060931A0370931B0380931C0390931D03DE
S11308708091EF02882361F08091AB02882319F004
S11308801092AB0203C081E08093AB021092EF029E
S11308908091EE02882361F08091AA02882319F0E6
S11308A01092AA0203C081E08093AA021092EE0281
S11308B08091AB02882321F08BB180628BB90BC08D
S11308C010921A0310921B0310921C0310921D0322
S11308D08BB18F7D8BB980901A0390901B03A090ED
S11308E01C03B0901D032AE939E949E95EE3C50117
S11308F0B4010E94CD0E6B017C0120E030E844ED90
S113090054E40E94C80E18164CF40F2EC12CF0E8C3
S1130910DF2EF4EDEF2EF4E4FF2EF02D20E030E88E
S113092044ED54ECC701B6010E94690D88234CF4D0
S11309300F2EC12CF0E8DF2EF4EDEF2EF4ECFF2E99
S1130940F02DA5019401C701B6010E94690D882309
S113095044F4C0921A03D0921B03E0921C03F09259
S11309601D0320911A0330911B0340911C035091E5
S11309701D03C701B6010E94C80E181644F4C092A4
S11309801A03D0921B03E0921C03F0921D036091A2
S11309901A0370911B0380911C0390911D030E9404
S11309A0E00DCB010E940103FF90EF90DF90CF9008
S11309B0BF90AF909F908F90089560910E037091B7
S11309C00F0380911003909111030E94E00DCB015D
S11309D00895609116037091170380911803909104
S11309E019030E94E00DCB0108958091FE029091BD
S11309F0FF020895CF92DF92EF92FF92BC01990F0C
S1130A00880B990B0E94180E20911E0330911F032E
S1130A1040912003509121030E94CD0E2091160392
S1130A203091170340911803509119030E94FD0C53
S1130A30609316037093170380931803909319031C
S1130A40C0900203D0900303E0900403F0900503E8
S1130A50A70196010E94C80E181644F4C09216030A
S1130A60D0921703E0921803F0921903F7FAF09466
S1130A70F7F8F0942091160330911703409118036E
S1130A8050911903C701B6010E94C80E181644F408
S1130A90C0921603D0921703E0921803F092190340
S1130AA0FF90EF90DF90CF900895CF92DF92EF9276
S1130AB0FF926091FC027091FD0280E29EE40E942C
S1130AC04E0F072E000C880B990B0E94180E2AE07B
S1130AD037ED43EA5CE30E94CD0E6B017C0128E410
S1130AE031EE4AE75FE360910A0370910B03809152
S1130AF00C0390910D030E94CD0E9B01AC01C70124
S1130B00B6010E94FD0C60930A0370930B0380935B
S1130B100C0390930D03FF90EF90DF90CF90089516
S1130B208F929F92AF92BF92CF92DF92EF92FF92F9
S1130B3080910003909101039093FF028093FE0241
S1130B400E94550580910003909101030E94FA04CC
S1130B50C0900A03D0900B03E0900C03F0900D03B7
S1130B60C0920E03D0920F03E0921003F09211038F
S1130B706091000370910103072E000C880B990B00
S1130B800E94180E2091AC023091AD024091AE0249
S1130B905091AF020E94CD0E4B015C0120912203C3
S1130BA0309123034091240350912503C701B601DA
S1130BB00E94CD0E9B01AC01C501B4010E94FD0C45
S1130BC06B017C01209116033091170340911803A7
S1130BD05091190360911E0370911F0380912003AB
S1130BE0909121030E94CD0E9B01AC01C701B60177
S1130BF00E94FD0CFF90EF90DF90CF90BF90AF90DC
S1130C009F908F900895CF92DF92EF92FF926B01A5
S1130C107C019B01AC0160E070E884ED94E40E94E7
S1130C206E0D609302037093030380930403909307
S1130C300503C0921E03D0921F03E0922003F0929A
S1130C402103FF90EF90DF90CF90089560932203EB
S1130C507093230380932403909325030895609352
S1130C60AC027093AD028093AE029093AF020895EC
S1130C709091FB02981751F08093FB021092160397
S1130C80109217031092180310921903089560E24A
S1130C9073E00E944E0F992314F4805E9C4F8039B8
S1130CA021E09207DCF060E971E00E944E0F893C7C
S1130CB091054CF028EC30E0B9010E944E0FA901D7
S1130CC0481B590BCA01880F991FFC01E85EFE4FAF
S1130CD080819181919581959109089560E971E0F0
S1130CE00E944E0F893C91054CF028EC30E0B9018C
S1130CF00E944E0FA901481B590BCA01880F991F66
S1130D00FC01E85EFE4F808191810895CF92DF92CD
S1130D10EF92FF92CF93DF93EC010E945505CE0131
S1130D2088539F4F0E944706EC0120E030E04AE7D9
S1130D3054E460910A0370910B0380910C03909129
S1130D400D030E946E0D6B017C01BE01DD0F880B4B
S1130D50990B0E94180EA70196010E94CD0E609374
S1130D600603709307038093080390930903DF91AC
S1130D70CF91FF90EF90DF90CF9008958F929F9244
S1130D80AF92BF92CF92DF92EF92FF92CF93E09017
S1130D900003F0900103F0920205E0920105C701FF
S1130DA060E273E00E944E0F90930103809300036E
S1130DB0992334F4805E9C4F909301038093000345
S1130DC080910003909101039C012F5531402336FB
S1130DD0310510F0C1E001C0CFEF0E9447069093A7
S1130DE00103809300039093FF028093FE02C701E6
S1130DF00E94860680910003909101030E94FA04E8
S1130E008090060390900703A0900803B090090314
S1130E1080920E0390920F03A0921003B0921103DC
S1130E206C2FCC0F770B880B990B0E94180E209116
S1130E30AC023091AD024091AE025091AF020E94DB
S1130E40CD0E6B017C016091000370910103072EAC
S1130E50000C880B990B0E94180EA70196010E94A2
S1130E60CD0E6B017C01209122033091230340912C
S1130E70240350912503C501B4010E94CD0E9B01AA
S1130E80AC01C701B6010E94FD0C6B017C012091ED
S1130E901603309117034091180350911903609180
S1130EA01E0370911F0380912003909121030E94DF
S1130EB0CD0E9B01AC01C701B6010E94FD0CCF9180
S1130EC0FF90EF90DF90CF90BF90AF909F908F9066
S1130ED008950E94860620910603309107034091ED
S1130EE008035091090360911A0370911B038091C8
S1130EF01C0390911D030E94FD0C60930E037093DC
S1130F000F0380931003909311030895CF92DF92FF
S1130F10EF92FF9280910003909101039093020558
S1130F20809301050E944706909301038093000378
S1130F300E94880BBC0180E090E00E94160E2DEC0C
S1130F403CEC44E551E40E94CD0E6093120370938F
S1130F50130380931403909315036091000370911D
S1130F600103072E000C880B990B0E94180E20E039
S1130F7030E040ED50E40E94CD0E0E94E00D7093ED
S1130F800103609300030E94B30320910003309196
S1130F900103820F931F9093FF028093FE028091BE
S1130FA00105909102050E946907C0901203D09038
S1130FB01303E0901403F09015030E94B303BC01E3
S1130FC080E090E00E94160E9B01AC01C701B601BF
S1130FD00E94FC0C6B017C01609100037091010381
S1130FE0072E000C880B990B0E94180EA70196017E
S1130FF00E94FD0C0E94E00D7093010360930003B6
S113100010920E0310920F0310921003109211030A
S1131010CB010E94FA046091000370910103072E32
S1131020000C880B990B0E94180E2091AC02309191
S1131030AD024091AE025091AF020E94CD0E6B0101
S11310407C0120910E0330910F03409110035091C5
S113105011036091220370912303809124039091E2
S113106025030E94CD0E9B01AC01C701B6010E946D
S1131070FD0C6B017C012091160330911703409104
S113108018035091190360911E0370911F038091FE
S11310902003909121030E94CD0E9B01AC01C70156
S11310A0B6010E94FD0CFF90EF90DF90CF90089561
S11310B080912703882391F0809133039091340326
S11310C0019790933403809333038FEF9FEF9093B2
S11310D0B9028093B80282E08093260380912803AA
S11310E0882389F08091330390913403019690937F
S11310F034038093330381E090E09093B9028093AA
S1131100B80280932603089580912703882391F0E1
S11311108091330390913403019690933403809328
S1131120330381E090E09093B9028093B80283E0A6
S11311308093260380912803811111C08091330389
S113114090913403019790933403809333038FEF8A
S11311509FEF9093B9028093B802109226030895EA
S113116080912703811111C080913303909134033E
S11311700196909334038093330381E090E090933D
S1131180B9028093B8021092260380912803882321
S113119091F0809133039091340301979093340339
S11311A0809333038FEF9FEF9093B9028093B8023B
S11311B083E080932603089580912703811112C050
S11311C08091330390913403019790933403809377
S11311D033038FEF9FEF9093B9028093B80281E0BD
S11311E08093260380912803811112C080913303D8
S11311F0909134030196909334038093330381E0F8
S113120090E09093B9028093B80282E08093260321
S11312100895FB012091330330913403DC012D93B5
S11312203C93309709F454C020912D0330912E0340
S113123080912B0390912C03280F391F4091B80201
S11312405091B902249FC001259F900D349F900DA9
S1131250112499230CF401969595879591838083A5
S11312602091290330912A038217930759F520917D
S11312702D0330912E0380912B0390912C03280F82
S1131280391F429FC001439F900D529F900D11241E
S113129099230CF401969C013595279560913103AF
S11312A070913203469FC001479F900D569F900D49
S11312B0112499230CF4019695958795820F931F19
S11312C0918380838081918190932A038093290361
S11312D008959091270380912803892319F083E0CE
S11312E0809326032091270381E090E0222311F0CC
S11312F080E090E02091280330E082239323892B1F
S113130019F082E08093260320912703309128036B
S113131081E090E0332311F080E090E030E082231C
S11313209323892B19F081E080932603809127036E
S11313302091280391E0811190E081E0211180E067
S1131340892311F0109226032FEF80E792E02150B9
S113135080409040E1F700C0000089B1887080931C
S1131360280389B1847080932703E0912603F0E079
S1131370EE0FFF1FE055FD4F0190F081E02D099520
S1131380109234031092330308958AB18B7F8AB983
S11313908BB184608BB98AB1877F8AB98BB188603D
S11313A08BB98DB381608DBBE9E6F0E0808181600B
S11313B0808380818D7F80838DB382608DBB8081AB
S11313C0846080838081877F808382E08093B00003
S11313D094E09093B1009093B300809370000E94C6
S11313E0690908951F920F920FB60F9211242F933B
S11313F03F934F935F936F937F938F939F93AF9399
S1131400BF93EF93FF9380912F03909130039093B8
S11314102C0380932B031092300310922F0389B175
S113142088708093280389B1847080932703E091A6
S11314302603F0E0EE0FFF1FE055FD4F0190F08111
S1131440E02D0995FF91EF91BF91AF919F918F91FD
S11314507F916F915F914F913F912F910F900FBEAC
S11314600F901F9018951F920F920FB60F92112490
S11314702F933F934F935F936F937F938F939F9398
S1131480AF93BF93EF93FF93809131039091320315
S113149090932E0380932D03109232031092310304
S11314A089B188708093280389B18470809327035D
S11314B0E0912603F0E0EE0FFF1FE055FD4F019091
S11314C0F081E02D0995FF91EF91BF91AF919F912C
S11314D08F917F916F915F914F913F912F910F90D9
S11314E00FBE0F901F9018951F920F920FB60F9278
S11314F011242F938F939F93809131039091320302
S113150081159D4749F080913103909132030196F2
S1131510909332038093310380912F039091300391
S113152081159D4749F080912F03909130030196D6
S11315309093300380932F039F918F912F910F905D
S11315400FBE0F901F90189560913503709136036C
S113155080913703909138030895809142038F5FFF
S113156080934203823029F481E080933F031092F8
S113157042038091BC028F5F8093BC02843129F4C2
S113158081E0809340031092BC028091BB028F5F84
S11315908093BB028A3029F481E080933E03109249
S11315A0BB028091BA028F5F8093BA02883229F419
S11315B081E080933D031092BA02089580913F0325
S11315C0882321F00E94170410923F038091400366
S11315D0882321F00E9414011092400380913E035D
S11315E0882321F00E94600010923E0380913D0305
S11315F0882321F00E94940110923D03089582E013
S113160084BD93E095BD9CE797BD80936E000895DB
S11316101F920F920FB60F9211242F933F934F9363
S11316205F936F937F938F939F93AF93BF93EF9346
S1131630FF930E94AD0A8091390390913A03A091DF
S11316403B03B0913C030196A11DB11D8093390366
S113165090933A03A0933B03B0933C0380914103DE
S113166091E0980F909341038330A8F08091350363
S113167090913603A0913703B09138030196A11DD0
S1131680B11D8093350390933603A0933703B09331
S1131690380310924103FF91EF91BF91AF919F9155
S11316A08F917F916F915F914F913F912F910F9007
S11316B00FBE0F901F9018951F920F920FB60F92A6
S11316C011248F939F938091780090917900909347
S11316D08503809384039F918F910F900FBE0F9089
S11316E01F90189587B18E7F87B988B18E7F88B98E
S11316F081E080937E00EAE7F0E08FEA8083ACE744
S1131700B0E08C9180648C938081806480830895A0
S1131710CF93DF939091430381E0963908F480E0FE
S11317202AE6829F900D11249093430380914303F2
S113173090E001966FE070E00E944E0F80934303A7
S1131740C0914303D0E0CC0FDD1FCC0FDD1FC85B7D
S1131750DC4F6091840370918503072E000C880B85
S1131760990B0E94180E688379838A839B83109255
S11317704403109245031092460310924703C0E0BD
S113178028C08091430390E00F968C1B91096FE071
S113179070E00E944E0FFC01EE0FFF1FEE0FFF1FC3
S11317A0E85BFC4F608171818281938120914403C5
S11317B03091450340914603509147030E94FD0C2C
S11317C060934403709345038093460390934703C7
S11317D0CF5FCF30B0F220E030E040E751E46091D9
S11317E044037091450380914603909147030E94FE
S11317F06E0D0E94E70DCB01DF91CF91089586E035
S11318008093C20083E08093C400E1ECF0E0808127
S11318108061808380818068808380818860808308
S1131820808180628083E0ECF0E08081806280834C
S113183008959091ED038091EE03981718F0891B99
S11318408A510895891B0895482F2091ED0330E0B3
S1131850C901019666EE70E00E944E0F9091EE036E
S1131860981759F0F901E151FC4F40838093ED033F
S1131870E1ECF0E080818062808308951F93CF9330
S1131880DF93EC01162F0E94190C181720F006C0E4
S11318900E94240C219688818111FACFDF91CF9187
S11318A01F9108951F920F920FB60F9211245F9308
S11318B06F937F938F939F93AF93BF93EF93FF9314
S11318C0E091EE038091ED03E81789F0F0E0E15137
S11318D0FC4F80818093C6008091EE0390E00196D6
S11318E066EE70E00E944E0F8093EE0305C0E1ECBB
S11318F0F0E080818F7D8083FF91EF91BF91AF9164
S11319009F918F917F916F915F910F900FBE0F9078
S11319101F901895CF93DF93EC0180918603882361
S113192021F1F89420E011C0FE01E20FF11D90E0D6
S1131930DC01A757BC4F3C913083019664E670E00C
S11319400E944E0F809388032F5F909187038091AC
S11319508803981711F0233638F31092860378948D
S1131960C20FD11D188281E001C080E0DF91CF91C8
S113197008951F920F920FB60F9211242F933F9345
S11319805F936F937F938F939F93AF93BF93EF93E3
S1131990FF938091870390E0019664E670E00E94D3
S11319A04E0F9091C600209188032817A9F09A3011
S11319B011F09D3021F481E0809386030DC03091B5
S11319C08603311120938703E0918703F0E0E75702
S11319D0FC4F908380938703FF91EF91BF91AF9168
S11319E09F918F917F916F915F913F912F910F9074
S11319F00FBE0F901F9018955058BB27AA270E941E
S1131A00140D0C948E0E0E94800E38F00E94870EE6
S1131A1020F039F49F3F19F426F40C947D0E0EF453
S1131A20E095E7FB0C94770EE92F0E949F0E58F384
S1131A30BA17620773078407950720F079F4A6F5AF
S1131A400C94C10E0EF4E0950B2EBA2FA02D0B01B1
S1131A50B90190010C01CA01A0011124FF27591BEF
S1131A6099F0593F50F4503E68F11A16F040A22FF5
S1131A70232F342F4427585FF3CF46953795279566
S1131A80A795F0405395C9F77EF41F16BA0B620B65
S1131A90730B840BBAF09150A1F0FF0FBB1F661FAC
S1131AA0771F881FC2F70EC0BA0F621F731F841FEF
S1131AB048F4879577956795B795F7959E3F08F015
S1131AC0B0CF9395880F08F09927EE0F97958795D7
S1131AD008950E94530E08F481E008950E94820D37
S1131AE00C948E0E0E94870E58F00E94800E40F0D7
S1131AF029F45F3F29F00C94770E51110C94C20E17
S1131B000C947D0E0E949F0E68F39923B1F3552324
S1131B1091F3951B550BBB27AA27621773078407FC
S1131B2038F09F5F5F4F220F331F441FAA1FA9F392
S1131B3035D00E2E3AF0E0E832D091505040E69580
S1131B40001CCAF72BD0FE2F29D0660F771F881FE1
S1131B50BB1F261737074807AB07B0E809F0BB0BD4
S1131B60802DBF01FF2793585F4F3AF09E3F5105E8
S1131B7078F00C94770E0C94C20E5F3FE4F3983E19
S1131B80D4F3869577956795B795F7959F5FC9F7D1
S1131B90880F911D9695879597F90895E1E0660F52
S1131BA0771F881FBB1F621773078407BA0720F0CB
S1131BB0621B730B840BBA0BEE1F88F7E095089534
S1131BC00E94E70D6894B1110C94C20E08950E940E
S1131BD0A70E88F09F5798F0B92F9927B751B0F006
S1131BE0E1F0660F771F881F991F1AF0BA95C9F79D
S1131BF014C0B13091F00E94C10EB1E008950C946C
S1131C00C10E672F782F8827B85F39F0B93FCCF31E
S1131C10869577956795B395D9F73EF49095809519
S1131C20709561957F4F8F4F9F4F0895E89409C039
S1131C3097FB3EF490958095709561957F4F8F4FFB
S1131C409F4F9923A9F0F92F96E9BB279395F69511
S1131C50879577956795B795F111F8CFFAF4BB0F8F
S1131C6011F460FF1BC06F5F7F4F8F4F9F4F16C0F3
S1131C70882311F096E911C0772321F09EE8872F7D
S1131C80762F05C0662371F096E8862F70E060E039
S1131C902AF09A95660F771F881FDAF7880F9695B2
S1131CA0879597F90895990F0008550FAA0BE0E856
S1131CB0FEEF16161706E807F907C0F0121613060A
S1131CC0E407F50798F0621B730B840B950B39F44A
S1131CD00A2661F0232B242B252B21F408950A26B0
S1131CE009F4A140A6958FEF811D811D089597F9F0
S1131CF09F6780E870E060E008959FEF80EC0895AE
S1131D0000240A94161617061806090608950024D6
S1131D100A9412161306140605060895092E039450
S1131D20000C11F4882352F0BB0F40F4BF2B11F4C4
S1131D3060FF04C06F5F7F4F8F4F9F4F089557FD23
S1131D409058440F551F59F05F3F71F04795880F25
S1131D5097FB991F61F09F3F79F0879508951216BC
S1131D6013061406551FF2CF4695F1DF08C0161668
S1131D7017061806991FF1CF869571056105089419
S1131D800895E894BB2766277727CB0197F9089530
S1131D900E94530E08F48FEF08950E94E00E0C94F5
S1131DA08E0E0E94800E38F00E94870E20F095233C
S1131DB011F00C94770E0C947D0E11240C94C20E29
S1131DC00E949F0E70F3959FC1F3950F50E0551F2D
S1131DD0629FF001729FBB27F00DB11D639FAA277C
S1131DE0F00DB11DAA1F649F6627B00DA11D661FCB
S1131DF0829F2227B00DA11D621F739FB00DA11DEC
S1131E00621F839FA00D611D221F749F3327A00DA5
S1131E10611D231F849F600D211D822F762F6A2F41
S1131E2011249F5750409AF0F1F088234AF0EE0FA6
S1131E30FF1FBB1F661F771F881F91505040A9F7D3
S1131E409E3F510580F00C94770E0C94C20E5F3FB8
S1131E50E4F3983ED4F3869577956795B795F7950F
S1131E60E7959F5FC1F7FE2B880F911D9695879587
S1131E7097F90895AA1BBB1B51E107C0AA1FBB1FFA
S1131E80A617B70710F0A61BB70B881F991F5A9502
S1131E90A9F780959095BC01CD01089597FB072E75
S1131EA016F4009407D077FD09D00E943A0F07FC7E
S1131EB005D03EF4909581959F4F08957095619556
S10B1EC07F4F0895F894FFCF51
S1131EC83031323334353637383941424344454664
S1131ED80101BE0690058607000007000F001700E1
S1131EE81F0027002F0036003E0046004E00560013
S1131EF85E0065006D0075007D0085008C0094000F
S1131F089C00A400AB00B300BB00C300CA00D2000D
S1131F18DA00E100E900F100F800000107010F010F
S1131F2816011E0126012D0135013C0143014B0117
S1131F3852015A0161016801700177017E0185012E
S1131F488D0194019B01A201A901B001B701BE0151
S1131F58C501CC01D301DA01E101E801EF01F60181
S1131F68FD0103020A02110217021E0225022B02B6
S1131F78320238023F0245024B02520258025E0204
S1131F8864026B02710277027D02830289028F0266
S1131F9895029B02A102A602AC02B202B702BD02DC
S1131FA8C302C802CE02D302D802DE02E302E80268
S1131FB8EE02F302F802FD02020307030C03110305
S1131FC816031A031F03240329032D0332033603BC
S1131FD83B033F03430348034C0350035403580390
S1131FE85C036003640368036C037003730377037F
S1131FF87B037E038203850388038C038F03920388
S1132008950398039B039E03A103A403A703AA03B0
S1132018AC03AF03B203B403B703B903BB03BE03F2
S1132028C003C203C403C603C803CA03CC03CE0354
S1132038CF03D103D303D403D603D703D903DA03D5
S1132048DB03DC03DE03DF03E003E103E103E20374
S1132058E303E403E403E503E603E603E603E70333
S1132068E703E703E703E703E8030101CDCCCC3D2D
S113207858088408B008DC08010005030174696580
S11320886D706F3B6572726F723B696E74656772CF
S1132098616C3B64657269766164613B7365745015
S11120A86F696E740A006461746F733A2000ED
S9030000FC
