:100000000C9434000C94B9010C9484010C945100AC
:100010000C9451000C9451000C9451000C9451001C
:100020000C9451000C9451000C9451000C9451000C
:100030000C9451000C9451000C9451000C945100FC
:100040000C9451000C9451000C9451000C945100EC
:100050000C9451000C9451000C9451000C945100DC
:100060000C9451000C94510011241FBECFEFD8E026
:10007000DEBFCDBF11E0A0E0B1E0E0EEF3E002C0F2
:1000800005900D92A830B107D9F721E0A8E0B1E0C2
:1000900001C01D92AF30B207E1F70E94D5000C9469
:1000A000EE010C94000080910901882361F0809199
:1000B0000D0190910E01019790930E0180930D0117
:1000C00082E08093080180910A01882361F0809189
:1000D0000D0190910E01019690930E0180930D01F8
:1000E00081E080930801089580910901882361F0DF
:1000F00080910D0190910E01019690930E018093D5
:100100000D0183E08093080180910A0181110BC0E9
:1001100080910D0190910E01019790930E018093B3
:100120000D011092080108958091090181110BC001
:1001300080910D0190910E01019690930E01809394
:100140000D011092080180910A01882361F08091CD
:100150000D0190910E01019790930E0180930D0176
:1001600083E08093080108958091090181110CC0FA
:1001700080910D0190910E01019790930E01809353
:100180000D0181E08093080180910A0181110CC06A
:1001900080910D0190910E01019690930E01809334
:1001A0000D0182E08093080108958AB18B7F8AB99E
:1001B0008BB18B7F8BB984B1816084B98AB1877F21
:1001C0008AB98BB1877F8BB984B1816084B99091F2
:1001D000090180910A01892319F083E080930801C5
:1001E0002091090181E090E0222311F080E090E06D
:1001F00020910A0130E082239323892B19F082E0B9
:10020000809308012091090130910A0181E090E07A
:10021000332311F080E090E030E082239323892B98
:1002200019F081E0809308018091090120910A0171
:1002300091E0811190E081E0211180E0892311F0AB
:10024000109208018DB381608DBBE9E6F0E08081FA
:100250008160808380818D7F80838DB382608DBB40
:100260008081846080838081877F808310920E01EB
:1002700010920D0178942FEF80E792E0215080409A
:100280009040E1F700C0000089B1887080930A01B6
:1002900089B1847080930901E0910801F0E0EE0FCC
:1002A000FF1FE050FF4F0190F081E02D09952FEFE7
:1002B00080E792E0215080409040E1F700C00000CC
:1002C00080910D0190910E0190930C0180930B0190
:1002D00020910D0130910E0180910B0190910C0144
:1002E0002817390721F485B1816085B903C085B12C
:1002F0008E7F85B92FEF89EF90E0215080409040AC
:10030000E1F700C00000E4CF1F920F920FB60F92EA
:1003100011242F933F934F935F936F937F938F930A
:100320009F93AF93BF93EF93FF9389B188708093AE
:100330000A0189B1847080930901E0910801F0E01D
:10034000EE0FFF1FE050FF4F0190F081E02D099567
:10035000FF91EF91BF91AF919F918F917F916F919D
:100360005F914F913F912F910F900FBE0F901F9073
:1003700018951F920F920FB60F9211242F933F934F
:100380004F935F936F937F938F939F93AF93BF939D
:10039000EF93FF9389B1887080930A0189B18470CB
:1003A00080930901E0910801F0E0EE0FFF1FE0509B
:1003B000FF4F0190F081E02D0995FF91EF91BF91E2
:1003C000AF919F918F917F916F915F914F913F91ED
:1003D0002F910F900FBE0F901F901895F894FFCF9C
:0803E000530074009400B40006
:00000001FF
