S00C0000677275612E7372656369
S11300000C9434000C9491040C9462040C945100EC
S11300100C9451000C9451000C9451000C94BE03A8
S11300200C9451000C9451000C9451000C94510008
S11300300C9451000C9451000C94F2000C94510057
S11300400C9451000C9451000C9455050C941B0510
S11300500C9451000C94B5020C9451000C94510072
S11300600C9451000C94510011241FBECFEFD8E022
S1130070DEBFCDBF11E0A0E0B1E0E8E7FDE002C0E3
S113008005900D92A232B107D9F723E0A2E2B1E0C4
S113009001C01D92AA34B207E1F70E9453000C94E8
S11300A0BA060C9400000E940C030E94C0047894C9
S11300B080E090E00E948A008FE091E00E940805B1
S11300C02FEF89E698E1215080409040E1F700C08D
S11300D0000010922D0110922C0180912201909128
S11300E023010196909323018093220180912B0197
S11300F0813099F710922B010E94CB0290934B010F
S113010080934A01BC010E94F50190932D018093D4
S11301102C01E3CF80912C0190912D0199235CF463
S11301202FEF2093240191958195910990932D01AE
S113013080932C0103C081E08093240180912C01E1
S113014090912D01009729F4109228011092270113
S11301500895893E934034F088EE93E090932D0106
S113016080932C0160912C0170912D0180ED97E01A
S11301700E94750670932801609327010895809169
S1130180290190912A010895AC01443A86E0580768
S113019008F108952091290130912A012F5F3F4FE2
S11301A030932A012093290195B1937C95B9E0916C
S11301B02901F0912A01E770FF27E050FF4F908159
S11301C025B19C73922B95B98FE39FE10197F1F7C9
S11301D000C000008091290190912A01841795079D
S11301E0C8F208951F920F920FB60F9211242F9305
S11301F03F934F935F936F937F938F939F93AF93AB
S1130200BF93EF93FF938091250190912601883845
S1130210934121F4109226011092250181E08093EC
S11302202B018091270190912801892B09F468C042
S1130230609127017091280180E090E00E940006FF
S113024020E030E040EA50E40E94FB05882334F4C7
S113025085E090E090932801809327018091250107
S11302609091260101969093260180932501209177
S11302702701309128018217930708F447C0209181
S113028024018091290190912A01820F911D27FD5B
S11302909A9520912E0130912F0128173907B0F536
S11302A0209124018091290190912A01820F911DAE
S11302B027FD9A95843A964048F52091240180912F
S11302C0290190912A01820F911D27FD9A959093FF
S11302D02A018093290185B1837C85B9E0912901A4
S11302E0F0912A01E770FF27E050FF4F808195B11C
S11302F08C73892B85B9109226011092250106C0B2
S113030084E690E09093260180932501FF91EF917C
S1130310BF91AF919F918F917F916F915F914F9119
S11303203F912F910F900FBE0F901F901895209121
S11303303A0130913B01820F931F90933B018093CC
S11303403A01069734F085E090E090933B01809366
S11303503A0180913A0190913B018B3F9F4F34F4D5
S11303608BEF9FEF90933B0180933A0108950F9395
S11303701F93CF93DF93EC018B010E94D2048E97DD
S113038078F184E50E94ED046091300170913101AF
S113039080913201909133010E94BD0585E40E9451
S11303A0ED04C8010E94890581E40E94ED04CE0198
S11303B00E94890586E50E94ED04809134019091A4
S11303C035010E94890584E60E94ED040E94BF0065
S11303D00E9489058AE00E94ED0480E00E94ED04F9
S11303E0DF91CF911F910F9108950F931F93CF9396
S11303F0DF938C01EB018091300190913101A09148
S11304003201B0913301BC01CD016F5F7F4F8F4F3B
S11304109F4F609330017093310180933201909328
S1130420330129E130E040E050E00E948906672B67
S1130430682B692B09F059C080913E0190913F01CE
S11304409E01281B390B3093370120933601CE01CE
S11304500E9497018091360190913701892BE9F52B
S11304608091380190913901499690933901809394
S11304703801092E000CAA0BBB0B409109015091C5
S11304800A0160910B0170910C01481759076A0722
S11304907B0738F588279927801B910B90933D01A2
S11304A080933C0110923B0110923A018091080123
S11304B0882331F087E593E00E94C400109208017C
S11304C08CE19CE0A0E0B0E08093090190930A01E4
S11304D0A0930B01B0930C0104C010923901109247
S11304E03801D0933F01C0933E012AEA2C9FC001FA
S11304F02D9F900D112490933501809334018091A8
S11305000801882341F010923501109234018BB117
S113051080688BB903C08BB18F778BB9BE01C801DA
S11305200E94B701809134019091350181329E443B
S113053034F080E29EE490933501809334018091FD
S1130540340190913501803E914B34F480EE91EB6F
S11305509093350180933401809134019091350159
S1130560DF91CF911F910F9108951F920F920FB6B3
S11305700F9211248F939F9380917800909179002A
S113058090930E0180930D019F918F910F900FBE58
S11305900F901F9018958091440190914501089502
S11305A09091420180914301892319F083E0809363
S11305B040012091420181E090E0222311F080E08B
S11305C090E02091430130E082239323892B19F09A
S11305D082E080934001209142013091430181E007
S11305E090E0332311F080E090E030E08223932305
S11305F0892B19F081E08093400180914201209180
S1130600430191E0811190E081E0211180E0892390
S113061011F01092400108958AB18B7F8AB98BB191
S113062084608BB98AB1877F8AB98BB188608BB9B2
S11306308DB381608DBBE9E6F0E0808181608083C9
S113064080818D7F80838DB382608DBB8081846047
S113065080838081877F80830E94D0020895809167
S11306604001813051F138F0823009F446C08330C2
S113067009F463C0089580914201882361F0809158
S11306804401909145010197909345018093440161
S113069082E08093400180914301882309F46DC076
S11306A08091440190914501019690934501809376
S11306B0440181E0809340010895809142018823A0
S11306C061F0809144019091450101969093450118
S11306D08093440183E08093400180914301811120
S11306E04CC080914401909145010197909345013C
S11306F08093440110924001089580914201811138
S11307000BC080914401909145010196909345015D
S1130710809344011092400180914301882369F140
S113072080914401909145010197909345018093F4
S1130730440183E080934001089580914201811136
S11307400CC080914401909145010197909345011B
S11307508093440181E080934001809143018111A1
S11307600CC08091440190914501019690934501FC
S11307708093440182E08093400108951F920F9278
S11307800FB60F9211248F939F9389B18870809331
S1130790430189B18470809342018091400181308A
S11307A051F138F0823009F446C0833009F463C053
S11307B082C080914201882361F08091440190912C
S11307C045010197909345018093440182E0809311
S11307D0400180914301882309F46DC08091440154
S11307E0909145010196909345018093440181E0E5
S11307F08093400160C080914201882361F0809120
S113080044019091450101969093450180934401E0
S113081083E0809340018091430181114CC0809119
S113082044019091450101979093450180934401BF
S11308301092400140C08091420181110BC080910F
S113084044019091450101969093450180934401A0
S11308501092400180914301882369F18091440101
S1130860909145010197909345018093440183E061
S11308708093400120C08091420181110CC080917D
S1130880440190914501019790934501809344015F
S113089081E0809340018091430181110CC08091DB
S11308A04401909145010196909345018093440140
S11308B082E0809340019F918F910F900FBE0F9023
S11308C01F9018951F920F920FB60F9211242F9319
S11308D03F934F935F936F937F938F939F93AF93C4
S11308E0BF93EF93FF9389B188708093430189B1DB
S11308F08470809342010E942F0381E08093410120
S1130900FF91EF91BF91AF919F918F917F916F91E3
S11309105F914F913F912F910F900FBE0F901F90B9
S113092018951F920F920FB60F9211242F933F9395
S11309304F935F936F937F938F939F93AF93BF93E3
S1130940EF93FF9389B188708093430189B18470D8
S1130950809342010E942F0381E080934101FF9123
S1130960EF91BF91AF919F918F917F916F915F9123
S11309704F913F912F910F900FBE0F901F9018959C
S113098086E08093C20083E38093C400E1ECF0E04E
S11309908081806180838081806880838081886099
S11309A0808308959091470180914601981760F0E3
S11309B0209147018091460130E0281B31098EEFD8
S11309C090E0821B930B089580914601209147018A
S11309D090E0821B910901970895282F8091470187
S11309E090E001966FEF70E00E94750690914601C9
S11309F0981769F0E0914701F0E0E45BFE4F208333
S1130A0080934701E1ECF0E0808180628083089567
S1130A100F931F93CF938C01C0E003C00E94ED0499
S1130A20CF5FF801EC0FF11D80818111F7CFCF91D9
S1130A301F910F9108951F920F920FB60F921124D8
S1130A405F936F937F938F939F93AF93BF93EF9332
S1130A50FF939091470180914601981799F0E09196
S1130A604601F0E0E45BFE4F80818093C6008091F4
S1130A70460190E001966FEF70E00E947506809346
S1130A80460105C0E1ECF0E080818F7D8083FF9119
S1130A90EF91BF91AF919F918F917F916F915F91F2
S1130AA00F900FBE0F901F9018951F920F920FB6C4
S1130AB00F9211242F935F936F937F938F939F9340
S1130AC0AF93BF93EF93FF938091490190E0019618
S1130AD06FEF70E00E9475062091C6009091480166
S1130AE0981741F0E0914901F0E0E55BFD4F208368
S1130AF080934901FF91EF91BF91AF919F918F91A5
S1130B007F916F915F912F910F900FBE0F901F9067
S1130B1018950F931F93CF93DF938C0199234CF473
S1130B201195019511098DE20E94ED04C0E1D7E20F
S1130B301AC08BE20E94ED04F9CFC801BE010E94E5
S1130B406106462F8C019E01ADECBCEC0E94AB0605
S1130B50EC01D695C795D695C795D695C79580E3EC
S1130B60840F0E94ED04209741F780E00E94ED0479
S1130B70DF91CF911F910F9108958F929F92AF9221
S1130B80BF92CF92DF92EF92FF92CF934B015C0121
S1130B900F2EF0E4CF2EF2E4DF2EFFE0EF2EF12C47
S1130BA0F02D17C0C501B401A70196010E94890662
S1130BB0C22F4B015C01C701B6012AE030E040E0DE
S1130BC050E00E94890669017A0180E38C0F0E943B
S1130BD0ED04C114D104E104F10421F780E00E9482
S1130BE0ED04CF91FF90EF90DF90CF90BF90AF9046
S1130BF09F908F9008950E943D0608F481E0089527
S1130C00E89409C097FB3EF49095809570956195A2
S1130C107F4F8F4F9F4F9923A9F0F92F96E9BB2758
S1130C209395F695879577956795B795F111F8CFD4
S1130C30FAF4BB0F11F460FF1BC06F5F7F4F8F4F3F
S1130C409F4F16C0882311F096E911C0772321F035
S1130C509EE8872F762F05C0662371F096E8862FCD
S1130C6070E060E02AF09A95660F771F881FDAF724
S1130C70880F9695879597F90895990F0008550F51
S1130C80AA0BE0E8FEEF16161706E807F907C0F00E
S1130C9012161306E407F50798F0621B730B840B16
S1130CA0950B39F40A2661F0232B242B252B21F4F0
S1130CB008950A2609F4A140A6958FEF811D811D90
S1130CC00895AA1BBB1B51E107C0AA1FBB1FA6178F
S1130CD0B70710F0A61BB70B881F991F5A95A9F7E1
S1130CE080959095BC01CD01089597FB072E16F4CD
S1130CF0009407D077FD09D00E94610607FC05D057
S1130D003EF4909581959F4F0895709561957F4F1E
S1130D100895A1E21A2EAA1BBB1BFD010DC0AA1F38
S1130D20BB1FEE1FFF1FA217B307E407F50720F050
S1130D30A21BB30BE40BF50B661F771F881F991FCB
S1130D401A9469F760957095809590959B01AC0114
S1130D50BD01CF010895A29FB001B39FC001A39F1D
S1130D60700D811D1124911DB29F700D811D1124E0
S10B0D70911D0895F894FFCFD2
S1130D78040C0818103020240188130000F40150D2
S1130D887275656261206465726976616461200ABE
S1050D98000055
S9030000FC
